:100000000C94E5000C941D050C94F6040C94070860
:100010000C9407080C9407080C940D010C940D0126
:100020000C940D010C940D010C940D010C940D0118
:100030000C940D010C940D010C940D010C940D0108
:100040000C94AC040C940D010C94780B0C94520B92
:100050000C940D010C940D010C940D010C940D01E8
:100060000C940D010C940D015F04630469045904A0
:1000700069045B0467047104690469046904690420
:1000800069046904690469046C0469046904690405
:1000900069046904506C61796572203320566F6C75
:1000A000756D652043562000506C61796572203271
:1000B00020566F6C756D652043562000506C617939
:1000C0006572203120566F6C756D65204356200097
:1000D0004D75746520566F6C756D65204356200014
:1000E000416464726573733D004368616E676520A7
:1000F0006E6967687420737461746520746F3A2048
:100100000000000000230026002900000000002459
:100110000027002A0000000000250028002B000412
:10012000040404040404040202020202020303039E
:100130000303030102040810204080010204081098
:100140002001020408102000000008000201000045
:1001500003040700000000000000004164647265B1
:1001600073733D00416C6C204446506C617965723C
:1001700073204D696E6920617265206F6E6C696EC7
:10018000652E00496E697469616C697A696E6720D1
:100190004446506C6179657273202E2E2E20284DB6
:1001A00061792074616B6520337E35207365636FE0
:1001B0006E647329006463635F617564696F5F33A4
:1001C000706C617965727300BD1111241FBECFEF91
:1001D000D8E0DEBFCDBF23E0AAE8B1E001C01D92A8
:1001E000A838B207E1F711E0A0E0B1E0EEE8F7E2ED
:1001F00002C005900D92AA38B107D9F710E0C5EEFC
:10020000D0E004C02197FE010E946C12C43ED107C9
:10021000C9F70E94690D0C94C5130C9400003FB7F8
:10022000F8948091D9019091DA01A091DB01B0910D
:10023000DC0126B5A89B05C02F3F19F00196A11D32
:10024000B11D3FBFBA2FA92F982F8827820F911D6C
:10025000A11DB11DBC01CD0142E0660F771F881FB3
:10026000991F4A95D1F70895089588E08093000179
:1002700008952091CC013091CD012817390771F4F0
:100280009091CB018091CA01981741F0E091CB0188
:10029000F0E0E657FE4F808190E008958FEF9FEFEA
:1002A000089508951F93CF93DF93DC015C962D9101
:1002B0003C915D972115310539F481E090E013966A
:1002C0009C938E9312973DC05196ED91FC9152975D
:1002D00050969C915097892F80951FB75E964C91B0
:1002E0005E9741FB772770F941FD6095F894408156
:1002F000772311F0492B01C048234083E90121975E
:10030000F1F748E0508160FF02C0592B01C058232B
:100310005083E9012197F1F76695415099F77723CA
:1003200021F090818923808303C08081982B908362
:100330001FBF5C968D919C915D970197F1F721E02D
:1003400030E0C901DF91CF911F9108952091CC0138
:100350003091CD012817390771F48091CA0120919D
:10036000CB0190E0805C9F4F821B910960E470E0BC
:100370000E945812089580E090E008952091CC01E9
:100380003091CD0128173907B9F49091CB018091B4
:10039000CA01981789F0E091CB01F0E0E657FE4FD3
:1003A00080812091CB0130E02F5F3F4F2F733327A7
:1003B0002093CB0190E008958FEF9FEF0895CF93A6
:1003C000DF93FC01828D938D892B31F1A091CC01BB
:1003D000B091CD01AE17BF07F9F0109751F05396C9
:1003E000CD91DC915497988155968C918095892375
:1003F0008883868D8E7F868F1092CA011092CB01E2
:10040000F093CD01E093CC01A389B4899C918589B7
:10041000892B8C9381E001C080E0DF91CF9108951A
:100420008091D301811148C10E940F012091D10117
:100430003091D201DB01A21BB30B2091DD01309181
:10044000DE01A217B30708F437C121E0E091DF0114
:10045000F091E001AE17BF0708F020E07093D201E1
:100460006093D10161E06093D30178944091E201FF
:100470005091E3014130510599F11CF4452B51F0A5
:1004800019C14230510509F4B1C04330510509F496
:10049000E4C010C1222309F4CCC08091E5018F5F34
:1004A0008093E5018B3008F405C181E090E09093E2
:1004B000E3018093E20161E070E0809108020E9414
:1004C0006A0C1092D00182E590E09093E001809355
:1004D000DF0183E290E09093DE018093DD01EAC0CA
:1004E0003091D001313079F028F0333069F1343077
:1004F000C1F1E0C0222329F06093D001A093CF0185
:10050000D9C084E01EC02223D9F01092D001A0935C
:10051000CE019091E5019F5F9093E5018A2FAA0F8C
:10052000990B2091CF01821B910927FD939597FF8D
:1005300003C091958195910943970CF4BBC013C0FA
:1005400083E08093D001B6C021110DC08091E101FC
:10055000833021F482E08093E10118C03093E101FF
:1005600015C0222399F01092E3011092E20182E972
:1005700090E09093E0018093DF0182E590E090931A
:10058000DE018093DD011092E50128C082E090E059
:100590009093E3018093E20182E990E09093E0017F
:1005A0008093DF0182E590E09093DE018093DD018E
:1005B0001092E7011092E9011092EA011092EB010A
:1005C0001092EC011092ED011092EE018091E50184
:1005D0008093E8011092E5011092E6016091E1013B
:1005E00070E0809108020E946A0C64C09091E5015D
:1005F0009F5F9093E5018091E601880F2111816052
:100600008093E601983009F055C0E091E701E630AB
:1006100099F41092E3011092E20182E990E0909344
:10062000E0018093DF0182E590E09093DE0180930A
:10063000DD011092E5013EC083E090E09093E3017C
:100640008093E20181E08E0F8093E701F0E0EE51AC
:10065000FE4F8091E60187832DC08091E5018F5F79
:100660008093E5012223E1F01092E3011092E20170
:1006700082E990E09093E0018093DF0182E590E0D1
:100680009093DE018093DD0188E0E7EEF1E0AFEECC
:10069000B1E001900D928A95E1F76093E40106C004
:1006A00082E090E09093E3018093E2011092E501F3
:1006B0001092E6011092D3010895CF93DF9390E05A
:1006C000FC01ED5CFE4F2491FC01E15EFE4F849144
:1006D000882361F190E0880F991FFC01E55FFE4FD0
:1006E000C591D491FC01EB5EFE4FA591B4916111CF
:1006F00009C09FB7F8948881209582238883EC9164
:100700002E230BC0623061F49FB7F8943881822F9A
:10071000809583238883EC912E2B2C939FBF06C05A
:100720008FB7F894E8812E2B28838FBFDF91CF916C
:1007300008958F929F92AF92BF92CF92DF92EF92E5
:10074000FF926B017C010E940F014B015C01C114FF
:10075000D104E104F104F1F00E940F01DC01CB01AE
:1007600088199909AA09BB09883E9340A105B105DA
:1007700070F321E0C21AD108E108F10888EE880E72
:1007800083E0981EA11CB11CC114D104E104F10442
:1007900019F7DDCFFF90EF90DF90CF90BF90AF9033
:1007A0009F908F9008952FB7F8946091D501709124
:1007B000D6018091D7019091D8012FBF0895CF9293
:1007C000DF92EF92FF920F931F93CF93DF93EC0191
:1007D00088819981DC01ED91FC910480F581E02D07
:1007E0000995892B09F48DC00E8D88819981DC01D2
:1007F000ED91FC910680F781E02D011109C009956A
:100800008A878E3729F71CA28E8D8F5F8E8FE0CF5F
:100810000995FE01E00FF11D82879E8D923079F0DF
:10082000993091F0913009F069C08B858F3F09F4C0
:1008300065C01E8E98A31BA21AA29CA382C08C85A1
:10084000863009F45BC003C08B898F3E11F01E8E89
:1008500050C0FE013B96CE01419640E050E0219110
:10086000420F511DE817F907D1F7298930E0322FDF
:1008700022275195419551098A89280F311D1E8ED5
:1008800042175307B1F5ED85E9A38F8590E0982FC6
:1008900088272889820F911D9BA38AA34E2F50E0A1
:1008A000FA01FA97E631F105B8F4EC5CFF4F0C94CD
:1008B0006C1285E00DC081FF15C084E009C081FF86
:1008C00011C082E005C081FF0DC083E001C086E059
:1008D00088A381E08CA306C081E088A31BA21AA292
:1008E0008CA31DA21CA1112369F1888D882349F1D5
:1008F00029C081E088A31BA21AA222C09F5F9E8FFD
:1009000067CF8DA18823A9F00E94D303CA80DB8022
:10091000EC80FD80DC01CB018C199D09AE09BF097B
:10092000CE80DF80E884F9848C159D05AE05BF0577
:1009300010F41CA107C01E8E18A21BA21AA281E0EF
:100940008CA31DA2812FDF91CF911F910F91FF905A
:10095000EF90DF90CF9008951F920F920FB60F92F5
:1009600011242F933F938F939F93AF93BF938091C5
:10097000D5019091D601A091D701B091D8013091C5
:10098000D40123E0230F2D3720F40196A11DB11DC2
:1009900005C026E8230F0296A11DB11D2093D401A6
:1009A0008093D5019093D601A093D701B093D8013D
:1009B0008091D9019091DA01A091DB01B091DC0125
:1009C0000196A11DB11D8093D9019093DA01A093E6
:1009D000DB01B093DC01BF91AF919F918F913F916B
:1009E0002F910F900FBE0F901F9018951F920F928E
:1009F0000FB60F9211242F933F934F935F936F93F2
:100A00007F938F939F93AF93BF93EF93FF93E09167
:100A10000301F09104010995FF91EF91BF91AF910E
:100A20009F918F917F916F915F914F913F912F9106
:100A30000F900FBE0F901F9018951F920F920FB638
:100A40000F9211242F933F934F935F936F937F9354
:100A50008F939F93AF93BF93EF93FF93E091010127
:100A6000F09102010995FF91EF91BF91AF919F9194
:100A70008F917F916F915F914F913F912F910F9047
:100A80000FBE0F901F901895EF92FF920F931F9338
:100A9000CF93DF938C01F62EE42E84EF91E0A0E05B
:100AA000B0E0F80180879187A287B3878AE0EBE006
:100AB000F1E0D801569601900D928A95E1F7F80180
:100AC00010A282E081A316A217A210A611A68FE1A0
:100AD00090E00E948612EC011B821A8288EE93E05D
:100AE000A0E0B0E08C839D83AE83BF8389E191E079
:100AF000998388831F8A1E8A198E188E1B8E1A8EE0
:100B00001D8E1C8E6E8D6E7F6D7F6E8F66956170F3
:100B100081E068278E2D0E94AA0B61E08E2D0E9435
:100B20005D034E2D50E0FA01ED5CFE4FE491E88B41
:100B3000FA01E15EFE4FE491F0E0EE0FFF1FEB5E85
:100B4000FE4F859194919A8B898B60E08F2D0E9446
:100B50005D038E8D81FD04C061E08F2D0E94AA0B84
:100B6000FC866F2D70E0FB01ED5CFE4FE491ED879C
:100B7000FB01E15EFE4FE491F0E0EE0FFF1FEF5F3F
:100B8000FE4F859194919F878E87F801D183C08312
:100B9000DF91CF911F910F91FF90EF900895809377
:100BA000F901882319F00E94D30303C060E070E0CC
:100BB000CB016093FA017093FB018093FC01909349
:100BC000FD0181E08093FE011092FF0188E0E0E0EA
:100BD000F2E0DF011D928A95E9F708951F93CF9304
:100BE000DF9320E030E0232B29F0DF91CF911F919C
:100BF0000C940000162FEC010E942012811761F066
:100C0000612FCE010E94281280E090E0892B21F014
:100C1000612FCE010E940000CE01DF91CF911F9184
:100C20000C94201220E030E0232B11F00C940000F3
:100C30000C942012CF938DE190E00E94120687FF62
:100C40000EC089E090E00E941206C82F81E090E07B
:100C50000E94120640E4C49F9001112411C085FF38
:100C600013C081E190E00E941206C82F82E190E05B
:100C70000E9412062C2F30E0205C3109322F2227EF
:100C8000A901482BCA0105C081E090E00E9412062C
:100C900090E0CF9108958830910559F46623F9F0DA
:100CA00028E02093000120E030E0232B79F00C9421
:100CB000000020E030E0232BD1F741E0811524E053
:100CC000920708F040E0662379F001C041E09C0102
:100CD000275031092230310538F440E005C020E0CA
:100CE00030E0232B21F741E0842F0895DF92EF922B
:100CF000FF920F931F93CF93DF938B01E42E82FF1C
:100D000027C083FF1BC061E0C8010E944B068823F7
:100D100009F453C06E2DC8010E94EE058E114DC01E
:100D200080E090E0892B09F448C0DF91CF911F91BA
:100D30000F91FF90EF90DF900C94000060E0C801ED
:100D40000E944B068823C9F1C8010E941206E6CF13
:100D5000842F8770C1E0D0E001C0CC0F8A95EAF7FC
:100D6000842F8870D82ECB010E941206F82EE4FE44
:100D700015C061E0C8010E944B068823F1F0DD2018
:100D800011F0CF2904C09C2F9095CF2DC9236C2F33
:100D9000C8010E94EE058C1310C0C2CF60E0C801EC
:100DA0000E944B06882349F0CF21DD2019F0CC2387
:100DB00021F0B6CFCC2309F4B3CFDF91CF911F91AF
:100DC0000F91FF90EF90DF9008950F931F93CF93B3
:100DD000DF93EC016F8B598F4A8F8C010C5E1F4F94
:100DE000FC0175969C01255E3F4F80E090E04191AB
:100DF000840F911DE217F307D1F791958195910921
:100E00009B8F8C8F888D882339F08DA1882351F09A
:100E1000CE010E94DF03F9CF6AE070E080E090E04D
:100E20000E94990388819981DC01ED91FC910280F7
:100E3000F381E02D4AE050E0B80109950E94D30308
:100E40006A837B838C839D8381E0988D911101C09F
:100E500080E08DA3DF91CF911F910F91089521E044
:100E6000FC0120A721A50296222319F042E050E0C0
:100E700002C041E050E068E00C94E506FC0120A5CA
:100E8000211102C00C942F0708950F931F93CF9345
:100E9000DF93EC0169A7FC01819191918F010E9480
:100EA000DF0141E050E069E1C8010E94E50618A6B3
:100EB000CE01DF91CF911F910F910C942F07FF92DC
:100EC0000F931F93CF93DF93EC01E881F981138E89
:100ED000128E118E108E178A168A8DE991E0958FE9
:100EE000848F8485863108F04DC02DEB30E0378B40
:100EF000268B2BE931E0318F208F2CE231E0338FCC
:100F0000228F90916800883050F021E08E3008F4F4
:100F100020E081E001C0880F2A95EAF701C084E053
:100F2000892B809368008485883038F08E3040F0BB
:100F3000863148F020E030E008C02DE630E005C002
:100F40002BE630E002C02CE630E0348B238B883077
:100F500030F491E001C0990F8A95EAF70EC0282F6E
:100F600030E08E3018F42850310902C02E5031097B
:100F700091E001C0990F2A95EAF7958B848D958DA4
:100F80000197F1F7CF010E94DF01888199810E94CA
:100F9000DF01FE01819191918F01FF24F394FA8E7C
:100FA0009B838A8388859985AA85BB858854944FBD
:100FB000AF4FBF4F88879987AA87BB8740E050E033
:100FC0006CE0CF010E94E506FFA2C8010E94DF038A
:100FD0008823D9F388859985AA85BB85885B9B4042
:100FE000A109B10988879987AA87BB8768EC70E057
:100FF00080E090E00E9499031EA28AA1843009F04B
:10100000FFCFDF91CF911F910F91FF9008951F9215
:101010000F920FB60F9211242F933F934F935F932C
:101020006F937F938F939F93AF93BF93EF93FF93B0
:10103000E091CC01F091CD01309709F451C0968D2B
:10104000A685B785858591FF04C09C91892329F4E5
:1010500047C09C91892309F043C0A389B4899C911E
:101060008589809589238C93868997890197F1F7E3
:10107000608D718DA685B785558538E020E0CB0160
:101080000197F1F7822F90E095958795282F4C9145
:10109000452309F02068315091F7868D81FD209518
:1010A0008091CA0190E001968F7399273091CB010E
:1010B000381749F0A091CA01B0E0A657BE4F2C9353
:1010C0008093CA0103C0868D8160868F828D938D47
:1010D0000197F1F7A389B4899C918589892B8C9319
:1010E000FF91EF91BF91AF919F918F917F916F9100
:1010F0005F914F913F912F910F900FBE0F901F90D6
:10110000189580930A0289EE90E00E94210C80914C
:101110000A0290E00E94230D60910A0280E593E0AC
:101120000E94450760910A0286E293E00E9445070B
:1011300060910A028CEF92E00C944507CF93DF9305
:10114000C22F4130510521F042305105E9F0CBC0AA
:10115000822F817090910A0298130E948108C3FF28
:101160000DC080917803882309F4BDC010927803E4
:1011700040E050E066E182E593E0B1C080E593E0B5
:10118000DF91CF910C943E0720FF0EC080914E035B
:10119000882371F010924E0340E050E066E188E24F
:1011A00093E00E94E50604C086E293E00E943E07B9
:1011B000C2FF64C080EE90E00E94210C0E941A06DB
:1011C000AC0160E070E02AE083E192E00E94B10CA3
:1011D0006EE571E083E192E00E948C0C80ED90E07E
:1011E0000E94210C87E890E00E94410D6DE471E0BF
:1011F00083E192E00E94670D87E890E00E9412066A
:101200000E94500D8CEB90E00E94210C8DE890E044
:101210000E94410D6DE471E083E192E00E94670D50
:101220008DE890E00E9412060E94500D88EA90E03E
:101230000E94210C8EE890E00E94410D6DE471E067
:1012400083E192E00E94670D8EE890E00E94120612
:101250000E94500D84E990E00E94210C8FE890E0FC
:101260000E94410D6DE471E083E192E00E94670D00
:101270008FE890E00E9412060E94500DC3FBDD270C
:10128000D0F9C3FF03C087E890E002C08DE890E08A
:101290000E941206482F50E066E082E593E00E942B
:1012A000E506DD2319F087E890E002C08EE890E0C3
:1012B0000E941206482F50E066E088E293E00E9408
:1012C000E506DD2319F087E890E002C08EE890E0A3
:1012D0000E941206482F50E066E08EEF92E0DF9108
:1012E000CF910C94E506DF91CF910895CF92DF92D4
:1012F000EF92FF920F931F93CF93DF9300D0CDB760
:10130000DEB77C016B01542F142F107E8091F70102
:1013100087FF20C0103E09F0ECC08091F8018823BF
:1013200009F4E7C090E029834A830E941206182F2F
:101330008091F80190E001960E9412069FE3F92245
:10134000E12FF0E0F82B29815A81EE16FF0609F013
:10135000D0C01DC080FF0DC029834A830E941A0699
:1013600029815A81E816F90621F0E114F10409F007
:10137000C0C0103631F100F1103A09F491C008F400
:10138000A6C0103C09F4AAC0103E09F0B2C0852FD7
:101390008370622F70E0782B6F5F7F4F402F852F17
:1013A0000F900F90DF91CF911F910F91FF90EF90D1
:1013B000DF90CF900C9476061032E1F1103409F0F2
:1013C00057C080E090E0892B09F1852F8F71813023
:1013D00029F078F0803169F0813111F440E00AC0E1
:1013E00054FB882780F9452F4F70440F482B4250FB
:1013F00001C041E055FB222720F90DE110E030E06B
:10140000B601C7015A830E9400005A8180E090E033
:10141000892B09F46EC0452FB601C7010F900F90BC
:10142000DF91CF911F910F91FF90EF90DF90CF90C0
:101430000C9400005F715F3109F05BC080E090E0C8
:10144000892B09F456C0422F4F7721F0413019F40F
:1014500040E001C041E0622F661F6627661F262F0D
:1014600030E00FE710E0B601C7010E94000041C064
:1014700011113FC0852F8E70E1F580E090E0892B3F
:10148000C1F150FF36C081E00F900F90DF91CF91F6
:101490001F910F91FF90EF90DF90CF900C94000080
:1014A000252F2F7054FF10C042E050E0B601C70155
:1014B0000F900F90DF91CF911F910F91FF90EF90C0
:1014C000DF90CF900C949E0843E050E0EFCF1038AF
:1014D00081F4252F2F7141E050E0E8CF5F715E313C
:1014E00029F05F3131F445E050E0E0CF44E050E0D6
:1014F000DDCF0F900F90DF91CF911F910F91FF9053
:10150000EF90DF90CF900895FC01918D828D981718
:1015100061F0828DDF01A80FB11D5D968C91928DD7
:101520009F5F9F73928F90E008958FEF9FEF0895D4
:10153000FC01918D828D981731F0828DE80FF11D9D
:10154000858D90E008958FEF9FEF0895FC01918DB8
:10155000228D892F90E0805C9F4F821B91098F73B1
:101560009927089583E192E00E94A60A21E0892B41
:1015700009F420E0822F0895FC01848DDF01A80F7B
:10158000B11DA35ABF4F2C91848D90E001968F73AB
:101590009927848FA689B7892C93A089B1898C91CA
:1015A00080648C93938D848D981306C00288F38990
:1015B000E02D80818F7D80830895EF92FF920F93BD
:1015C0001F93CF93DF93EC0181E0888F9B8D8C8DEF
:1015D000981305C0E889F989808185FD24C0F62E1D
:1015E0000B8D10E00F5F1F4F0F731127E02E8C8DB6
:1015F000E8120CC00FB607FCFACFE889F9898081A0
:1016000085FFF5CFCE010E94BC0AF1CF8B8DFE0184
:10161000E80FF11DE35AFF4FF0820B8FEA89FB8937
:101620008081806207C0EE89FF896083E889F9893B
:1016300080818064808381E090E0DF91CF911F9171
:101640000F91FF90EF900895CF93DF93EC01888D79
:101650008823C9F0EA89FB89808185FD05C0A889B6
:10166000B9898C9186FD0FC00FB607FCF5CF80813C
:1016700085FFF2CFA889B9898C9185FFEDCFCE0186
:101680000E94BC0AE7CFDF91CF91089580E090E0FF
:10169000892B29F00E94B20A81110C940000089550
:1016A0000E94B3131F920F920FB60F9211242F9323
:1016B0003F934F935F936F937F938F939F93AF93DA
:1016C000BF93EF93FF9383E192E00E94BC0AFF91E6
:1016D000EF91BF91AF919F918F917F916F915F91AA
:1016E0004F913F912F910F900FBE0F901F90189523
:1016F0001F920F920FB60F9211242F938F939F93E7
:10170000EF93FF93E0912302F09124028081E09116
:101710002902F0912A0282FD12C0908180912C0250
:101720008F5F8F7320912D02821751F0E0912C0270
:10173000F0E0ED5EFD4F958F80932C0201C080811B
:10174000FF91EF919F918F912F910F900FBE0F906E
:101750001F90189590E0FC01E95BFE4F3491FC016D
:10176000ED5CFE4F2491FC01E15EFE4FE491EE231F
:1017700009F43BC0332339F1333091F038F4313080
:10178000A9F0323001F584B58F7D12C0373091F069
:101790003830A1F03430B9F4809180008F7D03C0DF
:1017A000809180008F77809380000DC084B58F7703
:1017B00084BD09C08091B0008F7703C08091B000D4
:1017C0008F7D8093B000F0E0EE0FFF1FEB5EFE4FC9
:1017D000A591B4918FB7F894EC91611103C0209555
:1017E0002E2301C02E2B2C938FBF0895CF92DF9212
:1017F000EF92FF920F931F93CF93DF936C017A01C7
:101800008B01C0E0D0E0CE15DF0589F0D8016D91E5
:101810008D01D601ED91FC910190F081E02DC60182
:101820000995892B11F47E0102C02196ECCFC701E6
:10183000DF91CF911F910F91FF90EF90DF90CF90AC
:1018400008950F931F93CF93DF938C01C0E0D0E0F6
:10185000F801EC0FFD1F6491662371F0E091130213
:10186000F09114020190F081E02D83E192E009955E
:10187000892B11F02196ECCFCE01DF91CF911F91F2
:101880000F910895E3E1F2E0A089B18982E08C93A1
:10189000A485B5851C92A685B78580E18C93108EB2
:1018A000A489B58986E08C93A289B3898C918061E3
:1018B0008C93A289B3898C9188608C93A289B38917
:1018C0008C9180688C930288F389E02D80818F7DD4
:1018D000808308958230F8F4E82FF0E0EE0FFF1FC8
:1018E000EF5FFE4F20E132E031832083813041F011
:1018F000809169008C7F682B60936900E89A089555
:1019000080916900660F771F660F771F837F682BB2
:1019100060936900E99A08956115710579F0FB01FA
:1019200001900020E9F73197AF01461B570BDC010E
:10193000ED91FC910280F381E02D099480E090E02C
:101940000895CF93DF930E94210CEC016EE571E0C6
:1019500083E192E00E948C0C8C0F9D1FDF91CF9150
:1019600008954F925F926F927F92EF92FF920F9342
:101970001F93CF93DF93CDB7DEB7A1970FB6F8943F
:10198000DEBF0FBECDBF7C01FA01CB0119A2223010
:1019900008F42AE08E010F5D1F4F422E512C612C5E
:1019A000712CBF01A30192010E943612F901CA01F4
:1019B000015011096A3014F4605D01C0695CD801FE
:1019C0006C93232B242B252B61F7B801C7010E94B0
:1019D0008C0CA1960FB6F894DEBF0FBECDBFDF9181
:1019E000CF911F910F91FF90EF907F906F905F903C
:1019F0004F900895CF92DF92EF92FF92CF93DF93B3
:101A00006B017C01E0911302F09114020190F081CE
:101A1000E02D6DE283E192E00995EC014427552722
:101A2000BA014C195D096E097F092AE083E192E051
:101A30000E94B10C8C0F9D1FDF91CF91FF90EF9012
:101A4000DF90CF900895CF93DF93AC01990F660B91
:101A5000770B77FF05C0CB01BA010E94FA0C05C0D5
:101A60002AE083E192E00E94B10CEC016EE571E0A6
:101A700083E192E00E948C0C8C0F9D1FDF91CF912F
:101A80000895AC01990F660B770B77FF04C0CB016B
:101A9000BA010C94FA0C2AE083E192E00C94B10CA8
:101AA000CF93DF93482F50E060E070E02AE083E1BD
:101AB00092E00E94B10CEC016EE571E083E192E0EE
:101AC0000E948C0C8C0F9D1FDF91CF9108950C9478
:101AD0008C0CCF93DF9300D000D0CDB7DEB77894D5
:101AE00084B5826084BD84B5816084BD85B5826023
:101AF00085BD85B5816085BD80916E0081608093D4
:101B00006E0010928100809181008260809381003C
:101B1000809181008160809381008091800081604C
:101B2000809380008091B10084608093B1008091A7
:101B3000B00081608093B00080917A0084608093CF
:101B40007A0080917A00826080937A0080917A0096
:101B5000816080937A0080917A00806880937A0017
:101B60001092C1001092F4021092F5021092F60247
:101B70001092F7021092B2021092B3021092B402C5
:101B80001092B5020E94D3036B017C014B015C01F2
:101B900028EB820E2BE0921EA11CB11C0E94D303E5
:101BA0006C157D058E059F0528F086169706A806FC
:101BB000B906A0F783E192E09093F3028093F202DA
:101BC0000E94420C0E94D3036093B2027093B3024E
:101BD0008093B4029093B5026FE471E08091F202B9
:101BE0009091F3020E94670D0E94D3036B017C0168
:101BF0004B015C013AE0830E911CA11CB11C0E94B8
:101C0000D3036C157D058E059F0528F08616970673
:101C1000A806B906A0F711E01093C60280E593E08C
:101C20000E945F0786E293E00E945F078CEF92E0DC
:101C30000E945F070E94420C6EE571E083E192E032
:101C40000E948C0C85EB91E00E94A10C83E891E04E
:101C50000E94A10C84E691E00E94A10C4FE050E0AC
:101C600066E082E593E00E94E50680E593E00E944D
:101C70003E074FE050E066E088E293E00E94E50610
:101C800086E293E00E943E074FE050E066E08EEF70
:101C900092E00E94E5068CEF92E00E943E071092CF
:101CA000080282E08093090260E00E945D0385E102
:101CB000E2EEF1E0DF011D928A95E9F783E080937F
:101CC000E10182E990E09093E0018093DF0182E5F9
:101CD00090E09093DE018093DD0163E070E08091FD
:101CE00008020E946A0C1093F7011092F8018DE12E
:101CF00090E00E941206682F61608DE190E00E94E2
:101D0000EE0564E687E090E00E94EE056DE088E075
:101D100090E00E94EE0580E00E94CF0560E273E053
:101D200080E090E00E9499038BE591E00E94210CF5
:101D30000E941A06AC0160E070E02AE083E192E0C4
:101D40000E94B10C6EE571E083E192E00E948C0C80
:101D5000A4EF4A2E55245394612C712CB8E03B2EED
:101D600010E0A12E10E0B12E00E0802E00E0902EB9
:101D70000E94D303672B682B692B41F40E94D30385
:101D8000623071058105910508F41AC10E94D303E0
:101D900060930F02709310028093110290931202CD
:101DA00000910B0210910C0220910D0230910E0255
:101DB000601771078207930740F460930B027093DA
:101DC0000C0280930D0290930E0200910B02109171
:101DD0000C0220910D0230910E026B017C01C01AA1
:101DE000D10AE20AF30A970186010A3F110521058B
:101DF000310508F4E5C060930B0270930C028093E8
:101E00000D0290930E024092BE025092BF02609269
:101E1000C0027092C1021092C2021092C3021092CC
:101E2000C4021092C5028091B6029091B702A091AF
:101E3000B802B091B9028093BA029093BB02A0930A
:101E4000BC02B093BD020E94D3036093B6027093AC
:101E5000B7028093B8029093B9020E94D3036093B3
:101E6000B2027093B3028093B4029093B5020E94C1
:101E7000D3036B017C0161E671E08091F2029091E5
:101E8000F3020E94670D2AE041E050E060E070E05C
:101E90008091F2029091F3020E94B10C68E671E029
:101EA0008091F2029091F3020E94670D2AE0B7013F
:101EB000A6018091F2029091F3020E94B10C6AE6B1
:101EC00071E08091F2029091F3020E94670D80917F
:101ED000B6029091B702A091B802B091B902B701D1
:101EE000A601481B590B6A0B7B0B2AE08091F2027A
:101EF0009091F3020E94B10C6AE671E08091F202C7
:101F00009091F3020E94670D4091B6025091B70282
:101F10006091B8027091B9028091BA029091BB02AF
:101F2000A091BC02B091BD02481B590B6A0B7B0B00
:101F30002AE08091F2029091F3020E94B10C6CE6CB
:101F400071E08091F2029091F3020E94670D0E946D
:101F5000D303AB01BC012AE08091F2029091F3021D
:101F60000E94B10C0091F2021091F3026EE671E052
:101F7000C8010E948C0C6EE571E0C8010E948C0CB7
:101F80000E94D3036B017C019B01AC012E5F3F4F8C
:101F90004F4F5F4F29833A834B835C830E94D30367
:101FA0006C157D058E059F0508F092C10E94D30334
:101FB0006093B6027093B7028093B8029093B9020F
:101FC0008091F9018823B9F00E94D3030091FA01AE
:101FD0001091FB012091FC013091FD01DC01CB014E
:101FE000801B910BA20BB30B4597A105B10518F00F
:101FF00080E00E94CF058091E401882309F432C17A
:10200000F894EFEEF1E0AAE7B3E0832D01900D9292
:102010008A95E1F71092E40178949091EF01E1EF55
:10202000F1E080E02E2F41EF51E0241B291718F436
:1020300021918227F7CF811115C180E090E0892B93
:1020400021F08AE793E00E94000080917C038111D7
:102050001FC090917D0391111BC08114910411F058
:102060000E9400008091F901882371F091E0909323
:10207000F9010E94D3036093FA017093FB018093EE
:10208000FC019093FD01EEC081E00E94CF05EAC003
:102090009091F901992309F48FC08057803108F09D
:1020A00088C0A1E0A093F9010E94D3036093FA01D4
:1020B0007093FB018093FC019093FD0148E050E098
:1020C00060E072E08AE793E00E94B813892B61F028
:1020D0001092FF01EAE7F3E0A0E0B2E0832D019067
:1020E0000D928A95E1F7BEC08091FF018F5F8093CA
:1020F000FF0180917A03833009F046C080917C0310
:10210000982F977010917D03953049F41093FE013C
:10211000A114B10409F4A6C00E940000A3C0943029
:10212000A9F0E92EF12C943068F49091FE019923E6
:1021300049F0B4E09B9FE00CF11C1124E3E0EE1A9F
:10214000F10807C0FFEFEF1AFF0A03C0FDE1EF2E11
:10215000F12C83FF0CC061E0C7010E944B0688236D
:1021600009F480C0612FC7010E94EE050AC060E03B
:10217000C7010E944B06882309F474C0C7010E945E
:10218000120681136FC0C4CF843009F06BC08091F8
:102190007C03682F637070E0762F662790917D0333
:1021A000692B6F5F7F4F40917E038C700E94760693
:1021B00059C080E00E94CF0580917C038F3F71F46D
:1021C00080917D0381114EC060E0C62E60E0D62E66
:1021D000CD2809F447C00E94000044C087FD0AC012
:1021E00000917F0320917E0340917D0360E070E0C9
:1021F00090E036C0803C10F59091F70197FF32C017
:1022000020917D0330E02095309520773327220FF1
:10221000331F220F331F8F737901E82AFA82E98274
:1022200090FF61C00E941A06E816F90609F45BC027
:102230002FEFE21621E0F206A9F455C0883E90F493
:1022400090E0805C9109982F882730917D03009160
:10225000800320917F0340917E0361E070E0832B37
:102260000E9476090E94D3030091F8021091F902AE
:102270002091FA023091FB02DC01CB01801B910B13
:10228000A20BB30B81319742A105B105F0F00E947A
:10229000D3036093F8027093F9028093FA0290934B
:1022A000FB0265E771E083E192E00E94670D809197
:1022B0000A0231E0832790E00E94230D90910A02E8
:1022C00081E0892798130E9481080E94460B50CD17
:1022D00029813A814B815C812617370748075907C6
:1022E00008F05CCE63CE80917D03482F4770C42EEA
:1022F000D12CD594C79409811A8101501109000F7E
:10230000111F000F111F0C291D290F5F1F4F87FF81
:1023100026C0382F3170232E282F287083FBFF24EE
:10232000F0F880E090E0892B29F069817A81C8017A
:102330000E940000A0E0B0E0AB2B39F02F2D422D21
:102340006C2D89819A810E940000E0E0F0E03097D6
:1023500009F488CF4F2D622DC801099583CF40E045
:10236000E42E40E0F42EEF2809F47CCF40917E0368
:102370006C2DC8010E94000075CFE3E1F2E01382EA
:10238000128288EE93E0A0E0B0E084839583A68378
:10239000B78389E291E09183808385EC90E0958713
:1023A000848784EC90E09787868780EC90E0918B1F
:1023B000808B81EC90E0938B828B82EC90E0958B0C
:1023C000848B86EC90E0978B868B118E128E138E09
:1023D000148EE0EBF2E016821782108611861286C8
:1023E00013861486158616861786108A118A128A15
:1023F000138A148A158A8AEA90E00E9486129093C2
:102400008303809382034BE06AE080E593E00E94BF
:10241000440548E069E086E293E00E9444054DE00F
:102420006CE08CEF92E00E9444050E94D30360931D
:10243000F8027093F9028093FA029093FB020895D8
:10244000F999FECF92BD81BDF89A992780B508957C
:10245000262FF999FECF1FBA92BD81BD20BD0FB6C0
:10246000F894FA9AF99A0FBE01960895A1E21A2EED
:10247000AA1BBB1BFD010DC0AA1FBB1FEE1FFF1F28
:10248000A217B307E407F50720F0A21BB30BE40B78
:10249000F50B661F771F881F991F1A9469F76095BF
:1024A0007095809590959B01AC01BD01CF01089579
:1024B00097FB072E16F4009407D077FD09D00E94F1
:1024C000721207FC05D03EF4909581959F4F0895B8
:1024D000709561957F4F0895EE0FFF1F0590F49161
:1024E000E02D0994AA1BBB1B51E107C0AA1FBB1F0B
:1024F000A617B70710F0A61BB70B881F991F5A9590
:10250000A9F780959095BC01CD010895CF93DF93F5
:102510008230910510F482E090E0E0918603F09122
:10252000870320E030E0C0E0D0E0309711F1408137
:10253000518148175907C0F04817590761F4828143
:102540009381209719F09B838A832BC090938703F4
:102550008093860326C02115310519F042175307D1
:1025600018F49A01BE01DF01EF010280F381E02D32
:10257000DCCF2115310509F1281B390B2430310539
:1025800090F412968D919C9113976115710521F02D
:10259000FB019383828304C0909387038093860317
:1025A000FD01329644C0FD01E20FF31F8193919328
:1025B000225031092D933C933AC0209184033091ED
:1025C0008503232B41F420910701309108013093BA
:1025D0008503209384032091050130910601211584
:1025E000310541F42DB73EB74091090150910A01E0
:1025F000241B350BE0918403F0918503E217F30768
:10260000A0F42E1B3F0B2817390778F0AC014E5F62
:102610005F4F2417350748F04E0F5F1F5093850317
:10262000409384038193919302C0E0E0F0E0CF01F6
:10263000DF91CF9108950F931F93CF93DF9300976E
:1026400009F48CC0FC013297138212820091860338
:10265000109187030115110581F420813181820FCA
:10266000931F20918403309185032817390779F54A
:10267000F0938503E093840371C0D80140E050E0FB
:10268000AE17BF0750F412962D913C911397AD01F0
:102690002115310509F1D901F3CF9D01DA01338309
:1026A000228360817181860F971F8217930769F4D7
:1026B000EC0128813981260F371F2E5F3F4F318370
:1026C00020838A819B8193838283452B29F4F09315
:1026D0008703E093860342C01396FC93EE93129710
:1026E000ED01499159919E01240F351FE217F3071F
:1026F00071F480819181840F951F029611969C93AD
:102700008E938281938113969C938E931297E0E02F
:10271000F0E0D80112968D919C911397009719F0D3
:10272000F8018C01F6CF8D919C9198012E5F3F4F5F
:10273000820F931F20918403309185032817390756
:1027400069F4309729F4109287031092860302C02F
:10275000138212821093850300938403DF91CF913B
:102760001F910F91089581E090E0F8940C94C513A7
:10277000FB01DC0104C08D910190801921F44150CE
:0E2780005040C8F7881B990B0895F894FFCFBE
:10278E0096340134010000880380007EFF060001AC
:10279E0000000000EF000000005201F60BA601BE83
:1027AE00013901510100000000DD0AF60BA60A8472
:1027BE000A980A240B00000000500BF60B500B5029
:1027CE000B500B500B00000000500BF60B3D00564B
:1027DE004D4450565F317C315F564D4450560D0A74
:1027EE0000564D4450455F003A323A007C005F5629
:1027FE004D4450450073657474696E672069734E5D
:0A280E006967687420746F3A0000D7
:00000001FF
