:100000000C94E5000C941D050C94F6040C94660801
:100010000C9466080C9466080C940D010C940D0168
:100020000C940D010C940D010C940D010C940D0118
:100030000C940D010C940D010C940D010C940D0108
:100040000C94AC040C940D010C94D70B0C94B10BD4
:100050000C940D010C940D010C940D010C940D01E8
:100060000C940D010C940D015F04630469045904A0
:1000700069045B0467047104690469046904690420
:1000800069046904690469046C0469046904690405
:1000900069046904506C61796572203320566F6C75
:1000A000756D652043562000506C61796572203271
:1000B00020566F6C756D652043562000506C617939
:1000C0006572203120566F6C756D65204356200097
:1000D0004D75746520566F6C756D65204356200014
:1000E000416464726573733D004368616E676520A7
:1000F0006E6967687420737461746520746F3A2048
:100100000000000000230026002900000000002459
:100110000027002A0000000000250028002B000412
:10012000040404040404040202020202020303039E
:100130000303030102040810204080010204081098
:100140002001020408102000000008000201000045
:1001500003040700000000000000004164647265B1
:1001600073733D00416C6C204446506C617965723C
:1001700073204D696E6920617265206F6E6C696EC7
:10018000652E00496E697469616C697A696E6720D1
:100190004446506C6179657273202E2E2E20284DB6
:1001A00061792074616B6520337E35207365636FE0
:1001B0006E647329006463635F617564696F5F33A4
:1001C000706C617965727300281211241FBECFEF25
:1001D000D8E0DEBFCDBF23E0AAEAB1E001C01D92A6
:1001E000A73BB207E1F711E0A0E0B1E0E4E6F8E2F6
:1001F00002C005900D92AA3AB107D9F710E0C5EEFA
:10020000D0E004C02197FE010E94D712C43ED1075E
:10021000C9F70E94C80D0C9430140C9400003FB72D
:10022000F8948091F9019091FA01A091FB01B091AD
:10023000FC0126B5A89B05C02F3F19F00196A11D12
:10024000B11D3FBFBA2FA92F982F8827820F911D6C
:10025000A11DB11DBC01CD0142E0660F771F881FB3
:10026000991F4A95D1F70895089588E08093000179
:1002700008952091EC013091ED012817390771F4B0
:100280009091EB018091EA01981741F0E091EB0128
:10029000F0E0E655FE4F808190E008958FEF9FEFEC
:1002A000089508951F93CF93DF93DC015C962D9101
:1002B0003C915D972115310539F481E090E013966A
:1002C0009C938E9312973DC05196ED91FC9152975D
:1002D00050969C915097892F80951FB75E964C91B0
:1002E0005E9741FB772770F941FD6095F894408156
:1002F000772311F0492B01C048234083E90121975E
:10030000F1F748E0508160FF02C0592B01C058232B
:100310005083E9012197F1F76695415099F77723CA
:1003200021F090818923808303C08081982B908362
:100330001FBF5C968D919C915D970197F1F721E02D
:1003400030E0C901DF91CF911F9108952091EC0118
:100350003091ED012817390771F48091EA0120915D
:10036000EB0190E0805C9F4F821B910960E470E09C
:100370000E94C312089580E090E008952091EC015E
:100380003091ED0128173907B9F49091EB01809174
:10039000EA01981789F0E091EB01F0E0E655FE4F95
:1003A00080812091EB0130E02F5F3F4F2F73332787
:1003B0002093EB0190E008958FEF9FEF0895CF9386
:1003C000DF93FC01828D938D892B31F1A091EC019B
:1003D000B091ED01AE17BF07F9F0109751F05396A9
:1003E000CD91DC915497988155968C918095892375
:1003F0008883868D8E7F868F1092EA011092EB01A2
:10040000F093ED01E093EC01A389B4899C91858977
:10041000892B8C9381E001C080E0DF91CF9108951A
:100420008091F301811148C10E940F012091F101D7
:100430003091F201DB01A21BB30B2091FD01309141
:10044000FE01A217B30708F437C121E0E091FF01D4
:10045000F0910002AE17BF0708F020E07093F201A0
:100460006093F10161E06093F3017894409102029E
:10047000509103024130510599F11CF4452B51F084
:1004800019C14230510509F4B1C04330510509F496
:10049000E4C010C1222309F4CCC0809105028F5F13
:1004A000809305028B3008F405C181E090E09093C1
:1004B00003028093020261E070E0809128020E94B2
:1004C000C90C1092F00182E590E0909300028093B5
:1004D000FF0183E290E09093FE018093FD01EAC06A
:1004E0003091F001313079F028F0333069F1343057
:1004F000C1F1E0C0222329F06093F001A093EF0145
:10050000D9C084E01EC02223D9F01092F001A0933C
:10051000EE01909105029F5F909305028A2FAA0F2A
:10052000990B2091EF01821B910927FD939597FF6D
:1005300003C091958195910943970CF4BBC013C0FA
:1005400083E08093F001B6C021110DC080910102BB
:10055000833021F482E08093010218C030930102BD
:1005600015C0222399F0109203021092020282E930
:1005700090E0909300028093FF0182E590E09093D9
:10058000FE018093FD011092050228C082E090E0F8
:10059000909303028093020282E990E0909300021C
:1005A0008093FF0182E590E09093FE018093FD012E
:1005B000109207021092090210920A0210920B0286
:1005C00010920C0210920D0210920E028091050200
:1005D00080930802109205021092060260910102B7
:1005E00070E0809128020E94C90C64C090910502BD
:1005F0009F5F9093050280910602880F2111816010
:1006000080930602983009F055C0E0910702E63069
:1006100099F4109203021092020282E990E0909302
:1006200000028093FF0182E590E09093FE018093A9
:10063000FD01109205023EC083E090E0909303021A
:100640008093020281E08E0F80930702F0E0EE5F5C
:10065000FD4F8091060287832DC0809105028F5F38
:10066000809305022223E1F010920302109202020D
:1006700082E990E0909300028093FF0182E590E090
:100680009093FE018093FD0188E0E7E0F2E0AFE0A7
:10069000B2E001900D928A95E1F76093040206C0E2
:1006A00082E090E090930302809302021092050290
:1006B000109206021092F3010895CF93DF9390E019
:1006C000FC01ED5CFE4F2491FC01E15EFE4F849144
:1006D000882361F190E0880F991FFC01E55FFE4FD0
:1006E000C591D491FC01EB5EFE4FA591B4916111CF
:1006F00009C09FB7F8948881209582238883EC9164
:100700002E230BC0623061F49FB7F8943881822F9A
:10071000809583238883EC912E2B2C939FBF06C05A
:100720008FB7F894E8812E2B28838FBFDF91CF916C
:1007300008958F929F92AF92BF92CF92DF92EF92E5
:10074000FF926B017C010E940F014B015C01C114FF
:10075000D104E104F104F1F00E940F01DC01CB01AE
:1007600088199909AA09BB09883E9340A105B105DA
:1007700070F321E0C21AD108E108F10888EE880E72
:1007800083E0981EA11CB11CC114D104E104F10442
:1007900019F7DDCFFF90EF90DF90CF90BF90AF9033
:1007A0009F908F9008952FB7F8946091F501709104
:1007B000F6018091F7019091F8012FBF0895CF9233
:1007C000DF92EF92FF920F931F93CF93DF93EC0191
:1007D00088819981DC01ED91FC910480F581E02D07
:1007E0000995892B09F48DC00E8D88819981DC01D2
:1007F000ED91FC910680F781E02D011109C009956A
:100800008A878E3729F71CA28E8D8F5F8E8FE0CF5F
:100810000995FE01E00FF11D82879E8D923079F0DF
:10082000993091F0913009F069C08B858F3F09F4C0
:1008300065C01E8E98A31BA21AA29CA382C08C85A1
:10084000863009F45BC003C08B898F3E11F01E8E89
:1008500050C0FE013B96CE01419640E050E0219110
:10086000420F511DE817F907D1F7298930E0322FDF
:1008700022275195419551098A89280F311D1E8ED5
:1008800042175307B1F5ED85E9A38F8590E0982FC6
:1008900088272889820F911D9BA38AA34E2F50E0A1
:1008A000FA01FA97E631F105B8F4EC5CFF4F0C94CD
:1008B000D71285E00DC081FF15C084E009C081FF1B
:1008C00011C082E005C081FF0DC083E001C086E059
:1008D00088A381E08CA306C081E088A31BA21AA292
:1008E0008CA31DA21CA1112369F1888D882349F1D5
:1008F00029C081E088A31BA21AA222C09F5F9E8FFD
:1009000067CF8DA18823A9F00E94D303CA80DB8022
:10091000EC80FD80DC01CB018C199D09AE09BF097B
:10092000CE80DF80E884F9848C159D05AE05BF0577
:1009300010F41CA107C01E8E18A21BA21AA281E0EF
:100940008CA31DA2812FDF91CF911F910F91FF905A
:10095000EF90DF90CF9008951F920F920FB60F92F5
:1009600011242F933F938F939F93AF93BF938091C5
:10097000F5019091F601A091F701B091F801309145
:10098000F40123E0230F2D3720F40196A11DB11DA2
:1009900005C026E8230F0296A11DB11D2093F40186
:1009A0008093F5019093F601A093F701B093F801BD
:1009B0008091F9019091FA01A091FB01B091FC01A5
:1009C0000196A11DB11D8093F9019093FA01A093A6
:1009D000FB01B093FC01BF91AF919F918F913F912B
:1009E0002F910F900FBE0F901F9018951F920F928E
:1009F0000FB60F9211242F933F934F935F936F93F2
:100A00007F938F939F93AF93BF93EF93FF93E09167
:100A10000301F09104010995FF91EF91BF91AF910E
:100A20009F918F917F916F915F914F913F912F9106
:100A30000F900FBE0F901F9018951F920F920FB638
:100A40000F9211242F933F934F935F936F937F9354
:100A50008F939F93AF93BF93EF93FF93E091010127
:100A6000F09102010995FF91EF91BF91AF919F9194
:100A70008F917F916F915F914F913F912F910F9047
:100A80000FBE0F901F901895EF92FF920F931F9338
:100A9000CF93DF938C01F62EE42E84EF91E0A0E05B
:100AA000B0E0F80180879187A287B3878AE0EBE006
:100AB000F1E0D801569601900D928A95E1F7F80180
:100AC00010A282E081A316A217A210A611A612A658
:100AD00013A614A615A616A68FE190E00E94F112A7
:100AE000EC011B821A8288EE93E0A0E0B0E08C83D8
:100AF0009D83AE83BF8389E191E0998388831F8AB8
:100B00001E8A198E188E1B8E1A8E1D8E1C8E6E8D4F
:100B10006E7F6D7F6E8F6695617081E068278E2D88
:100B20000E94090C61E08E2D0E945D034E2D50E065
:100B3000FA01ED5CFE4FE491E88BFA01E15EFE4FB5
:100B4000E491F0E0EE0FFF1FEB5EFE4F8591949174
:100B50009A8B898B60E08F2D0E945D038E8D81FDC5
:100B600004C061E08F2D0E94090CFC866F2D70E09F
:100B7000FB01ED5CFE4FE491ED87FB01E15EFE4F72
:100B8000E491F0E0EE0FFF1FEF5FFE4F859194912F
:100B90009F878E87F801D183C083DF91CF911F910A
:100BA0000F91FF90EF90089580931902882319F018
:100BB0000E94D30303C060E070E0CB0160931A028F
:100BC00070931B0280931C0290931D0281E080931E
:100BD0001E0210921F0288E0E0E2F2E0DF011D92A7
:100BE0008A95E9F708951F93CF93DF9320E030E0D3
:100BF000232B29F0DF91CF911F910C940000162F29
:100C0000EC010E948B12811761F0612FCE010E94CE
:100C1000931280E090E0892B21F0612FCE010E9499
:100C20000000CE01DF91CF911F910C948B1220E038
:100C300030E0232B11F00C9400000C948B12CF9316
:100C40008DE190E00E94170687FF0EC089E090E0DA
:100C50000E941706C82F81E090E00E94170640E42A
:100C6000C49F9001112411C085FF13C081E190E061
:100C70000E941706C82F82E190E00E9417062C2FD1
:100C800030E0205C3109322F2227A901482BCA010C
:100C900005C081E090E00E94170690E0CF91089592
:100CA0008830910559F46623F9F028E0209300017B
:100CB00020E030E0232B79F00C94000020E030E0BD
:100CC000232BD1F741E0811524E0920708F040E0A2
:100CD000662379F001C041E09C01275031092230A0
:100CE000310538F440E005C020E030E0232B21F747
:100CF00041E0842F0895DF92EF92FF920F931F93AC
:100D0000CF93DF938B01E42E82FF27C083FF1BC0AC
:100D100061E0C8010E945006882309F453C06E2D7B
:100D2000C8010E94F3058E114DC080E090E0892B30
:100D300009F448C0DF91CF911F910F91FF90EF9080
:100D4000DF900C94000060E0C8010E9450068823E8
:100D5000C9F1C8010E941706E6CF842F8770C1E051
:100D6000D0E001C0CC0F8A95EAF7842F8870D82E86
:100D7000CB010E941706F82EE4FE15C061E0C80101
:100D80000E9450068823F1F0DD2011F0CF2904C025
:100D90009C2F9095CF2DC9236C2FC8010E94F3057D
:100DA0008C1310C0C2CF60E0C8010E945006882397
:100DB00049F0CF21DD2019F0CC2321F0B6CFCC2390
:100DC00009F4B3CFDF91CF911F910F91FF90EF9076
:100DD000DF9008950F931F93CF93DF93EC016F8BF8
:100DE000598F4A8F8C010C5E1F4FFC0175969C0138
:100DF000255E3F4F80E090E04191840F911DE21706
:100E0000F307D1F79195819591099B8F8C8F888DF0
:100E1000882339F08DA1882351F0CE010E94DF0391
:100E2000F9CF6AE070E080E090E00E949903888149
:100E30009981DC01ED91FC910280F381E02D4AE083
:100E400050E0B80109950E94D3036A837B838C83A9
:100E50009D8381E0988D911101C080E08DA3DF9189
:100E6000CF911F910F91089521E0FC0120A721A5AA
:100E70000296222319F043E050E002C041E050E026
:100E800068E00C94EA06FC0120A5211102C00C9434
:100E9000340708950F931F93CF93DF93FC0122A58E
:100EA000222399F1EC010E94D3030BA51CA52DA5CB
:100EB0003EA5DC01CB01801B910BA20BB30B813152
:100EC0009742A105B10508F11AA66DE471E083E32C
:100ED00092E00E94C60D99A581E0892790E00E94CA
:100EE000820DFE01819191918F010E94DF0141E00D
:100EF00050E069E1C8010E94EA0618A6CE01DF9120
:100F0000CF911F910F910C943407DF91CF911F91D6
:100F10000F9108950F931F93CF93DF93EC0169A76F
:100F2000FC01819191918F010E94DF0141E050E02D
:100F300069E1C8010E94EA0618A60E94D3036BA7C4
:100F40007CA78DA79EA781E08AA798A5911111C0C3
:100F500088A789A5882319F042E050E002C044E048
:100F600050E068E0C801DF91CF911F910F910C9480
:100F7000EA06DF91CF911F910F910895FF920F9391
:100F80001F93CF93DF93EC01E881F981138E128ECA
:100F9000118E108E178A168A8DE991E0958F848FB5
:100FA0008485863108F04DC02DEB30E0378B268BE1
:100FB0002BE931E0318F208F2CE231E0338F228F0B
:100FC00090916800883050F021E08E3008F420E0E5
:100FD00081E001C0880F2A95EAF701C084E0892BDF
:100FE000809368008485883038F08E3040F08631F8
:100FF00048F020E030E008C02DE630E005C02BE6E8
:1010000030E002C02CE630E0348B238B883030F4A3
:1010100091E001C0990F8A95EAF70EC0282F30E0C1
:101020008E3018F42850310902C02E50310991E059
:1010300001C0990F2A95EAF7958B848D958D0197BC
:10104000F1F7CF010E94DF01888199810E94DF01C1
:10105000FE01819191918F01FF24F394FA8E9B837D
:101060008A8388859985AA85BB858854944FAF4F1C
:10107000BF4F88879987AA87BB8740E050E06CE024
:10108000CF010E94EA06FFA2C8010E94DF03882365
:10109000D9F388859985AA85BB85885B9B40A10982
:1010A000B10988879987AA87BB8768EC70E080E0E0
:1010B00090E00E9499031EA28AA1843009F0FFCF1C
:1010C000DF91CF911F910F91FF9008951F920F9282
:1010D0000FB60F9211242F933F934F935F936F930B
:1010E0007F938F939F93AF93BF93EF93FF93E09181
:1010F000EC01F091ED01309709F451C0968DA68571
:10110000B785858591FF04C09C91892329F447C048
:101110009C91892309F043C0A389B4899C91858956
:10112000809589238C93868997890197F1F7608D43
:10113000718DA685B785558538E020E0CB010197F4
:10114000F1F7822F90E095958795282F4C914523B4
:1011500009F02068315091F7868D81FD20958091AE
:10116000EA0190E001968F7399273091EB013817CF
:1011700049F0A091EA01B0E0A655BE4F2C938093B0
:10118000EA0103C0868D8160868F828D938D0197E1
:10119000F1F7A389B4899C918589892B8C93FF9160
:1011A000EF91BF91AF919F918F917F916F915F91DF
:1011B0004F913F912F910F900FBE0F901F90189558
:1011C00080932A0289EE90E00E94800C80912A028E
:1011D00090E00E94820D60912A028AE793E00E94CB
:1011E0008A0760912A028BE493E00E948A0760914B
:1011F0002A028CE193E00C948A07CF93DF93C22FED
:101200004130510521F042305105E9F0CBC0822F29
:10121000817090912A0298130E94E008C3FF0DC0CC
:101220008091A203882309F4BDC01092A20340E07C
:1012300050E066E18CE793E0B1C08AE793E0DF918C
:10124000CF910C94430720FF0EC080917303882335
:1012500071F01092730340E050E066E18DE493E09A
:101260000E94EA0604C08BE493E00E944307C2FF99
:1012700064C080EE90E00E94800C0E941F06AC01CA
:1012800060E070E02AE083E392E00E94100D6FE7D7
:1012900071E083E392E00E94EB0C80ED90E00E940D
:1012A000800C87E890E00E94A00D6EE671E083E379
:1012B00092E00E94C60D87E890E00E9417060E9407
:1012C000AF0D8CEB90E00E94800C8DE890E00E94C6
:1012D000A00D6EE671E083E392E00E94C60D8DE8FA
:1012E00090E00E9417060E94AF0D88EA90E00E94ED
:1012F000800C8EE890E00E94A00D6EE671E083E322
:1013000092E00E94C60D8EE890E00E9417060E94AF
:10131000AF0D84E990E00E94800C8FE890E00E947D
:10132000A00D6EE671E083E392E00E94C60D8FE8A7
:1013300090E00E9417060E94AF0DC3FBDD27D0F995
:10134000C3FF03C087E890E002C08DE890E00E94F0
:101350001706482F50E066E08CE793E00E94EA060B
:10136000DD2319F087E890E002C08EE890E00E944B
:101370001706482F50E066E08DE493E00E94EA06ED
:10138000DD2319F087E890E002C08EE890E00E942B
:101390001706482F50E066E08EE193E0DF91CF9191
:1013A0000C94EA06DF91CF910895CF92DF92EF92ED
:1013B000FF920F931F93CF93DF9300D0CDB7DEB78B
:1013C0007C016B01542F142F107E8091170287FF30
:1013D00020C0103E09F0ECC080911802882309F467
:1013E000E7C090E029834A830E941706182F809156
:1013F000180290E001960E9417069FE3F922E12F60
:10140000F0E0F82B29815A81EE16FF0609F0D0C0D2
:101410001DC080FF0DC029834A830E941F062981B9
:101420005A81E816F90621F0E114F10409F0C0C070
:10143000103631F100F1103A09F491C008F4A6C059
:10144000103C09F4AAC0103E09F0B2C0852F837089
:10145000622F70E0782B6F5F7F4F402F852F0F90AA
:101460000F90DF91CF911F910F91FF90EF90DF9040
:10147000CF900C947B061032E1F1103409F057C084
:1014800080E090E0892B09F1852F8F71813029F060
:1014900078F0803169F0813111F440E00AC054FBEA
:1014A000882780F9452F4F70440F482B425001C0C8
:1014B00041E055FB222720F90DE110E030E0B601B4
:1014C000C7015A830E9400005A8180E090E0892B76
:1014D00009F46EC0452FB601C7010F900F90DF9140
:1014E000CF911F910F91FF90EF90DF90CF900C94D0
:1014F00000005F715F3109F05BC080E090E0892BF4
:1015000009F456C0422F4F7721F0413019F440E0E2
:1015100001C041E0622F661F6627661F262F30E05C
:101520000FE710E0B601C7010E94000041C0111191
:101530003FC0852F8E70E1F580E090E0892BC1F1EE
:1015400050FF36C081E00F900F90DF91CF911F9137
:101550000F91FF90EF90DF90CF900C940000252F1B
:101560002F7054FF10C042E050E0B601C7010F9049
:101570000F90DF91CF911F910F91FF90EF90DF902F
:10158000CF900C94FD0843E050E0EFCF103881F489
:10159000252F2F7141E050E0E8CF5F715E3129F0D7
:1015A0005F3131F445E050E0E0CF44E050E0DDCF82
:1015B0000F900F90DF91CF911F910F91FF90EF90BF
:1015C000DF90CF900895FC01918D828D981761F086
:1015D000828DDF01A80FB11D5D968C91928D9F5F6A
:1015E0009F73928F90E008958FEF9FEF0895FC0115
:1015F000918D828D981731F0828DE80FF11D858DC8
:1016000090E008958FEF9FEF0895FC01918D228D5A
:10161000892F90E0805C9F4F821B91098F739927DF
:10162000089583E392E00E94050B21E0892B09F4E1
:1016300020E0822F0895FC01848DDF01A80FB11DE9
:10164000A35ABF4F2C91848D90E001968F739927F8
:10165000848FA689B7892C93A089B1898C918064E5
:101660008C93938D848D981306C00288F389E02DA6
:1016700080818F7D80830895EF92FF920F931F9357
:10168000CF93DF93EC0181E0888F9B8D8C8D981335
:1016900005C0E889F989808185FD24C0F62E0B8D6F
:1016A00010E00F5F1F4F0F731127E02E8C8DE81293
:1016B0000CC00FB607FCFACFE889F989808185FF55
:1016C000F5CFCE010E941B0BF1CF8B8DFE01E80FF1
:1016D000F11DE35AFF4FF0820B8FEA89FB8980816D
:1016E000806207C0EE89FF896083E889F98980817B
:1016F0008064808381E090E0DF91CF911F910F9112
:10170000FF90EF900895CF93DF93EC01888D8823AD
:10171000C9F0EA89FB89808185FD05C0A889B9895E
:101720008C9186FD0FC00FB607FCF5CF808185FF39
:10173000F2CFA889B9898C9185FFEDCFCE010E94A7
:101740001B0BE7CFDF91CF91089580E090E0892BCC
:1017500029F00E94110B81110C94000008950E9441
:101760001E141F920F920FB60F9211242F933F93C6
:101770004F935F936F937F938F939F93AF93BF9399
:10178000EF93FF9383E392E00E941B0BFF91EF9195
:10179000BF91AF919F918F917F916F915F914F9189
:1017A0003F912F910F900FBE0F901F9018951F9291
:1017B0000F920FB60F9211242F938F939F93EF9355
:1017C000FF93E0914302F09144028081E09149024D
:1017D000F0914A0282FD12C0908180914C028F5F8D
:1017E0008F7320914D02821751F0E0914C02F0E08E
:1017F000ED5CFD4F958F80934C0201C08081FF917D
:10180000EF919F918F912F910F900FBE0F901F908E
:10181000189590E0FC01E95BFE4F3491FC01ED5C12
:10182000FE4F2491FC01E15EFE4FE491EE2309F4AA
:101830003BC0332339F1333091F038F43130A9F023
:10184000323001F584B58F7D12C0373091F03830D9
:10185000A1F03430B9F4809180008F7D03C0809175
:1018600080008F77809380000DC084B58F7784BD12
:1018700009C08091B0008F7703C08091B0008F7D48
:101880008093B000F0E0EE0FFF1FEB5EFE4FA591DE
:10189000B4918FB7F894EC91611103C020952E2379
:1018A00001C02E2B2C938FBF0895CF92DF92EF9221
:1018B000FF920F931F93CF93DF936C017A018B01FB
:1018C000C0E0D0E0CE15DF0589F0D8016D918D0123
:1018D000D601ED91FC910190F081E02DC6010995B2
:1018E000892B11F47E0102C02196ECCFC701DF9154
:1018F000CF911F910F91FF90EF90DF90CF900895BF
:101900000F931F93CF93DF938C01C0E0D0E0F801D9
:10191000EC0FFD1F6491662371F0E0913302F091AA
:1019200034020190F081E02D83E392E00995892B48
:1019300011F02196ECCFCE01DF91CF911F910F9145
:101940000895E3E3F2E0A089B18982E08C93A48555
:10195000B5851C92A685B78580E18C93108EA489ED
:10196000B58986E08C93A289B3898C9180618C9330
:10197000A289B3898C9188608C93A289B3898C9158
:1019800080688C930288F389E02D80818F7D80832D
:1019900008958230F8F4E82FF0E0EE0FFF1FEF5FBC
:1019A000FE4F20E132E031832083813041F080918D
:1019B00069008C7F682B60936900E89A0895809194
:1019C0006900660F771F660F771F837F682B609310
:1019D0006900E99A08956115710579F0FB0101909C
:1019E0000020E9F73197AF01461B570BDC01ED9161
:1019F000FC910280F381E02D099480E090E008954D
:101A0000CF93DF930E94800CEC016FE771E083E3DA
:101A100092E00E94EB0C8C0F9D1FDF91CF910895F7
:101A20004F925F926F927F92EF92FF920F931F936C
:101A3000CF93DF93CDB7DEB7A1970FB6F894DEBF93
:101A40000FBECDBF7C01FA01CB0119A2223008F4F0
:101A50002AE08E010F5D1F4F422E512C612C712CFC
:101A6000BF01A30192010E94A112F901CA01015014
:101A700011096A3014F4605D01C0695CD8016C938F
:101A8000232B242B252B61F7B801C7010E94EB0CF7
:101A9000A1960FB6F894DEBF0FBECDBFDF91CF91F8
:101AA0001F910F91FF90EF907F906F905F904F90FC
:101AB0000895CF92DF92EF92FF92CF93DF936B0165
:101AC0007C01E0913302F09134020190F081E02D2D
:101AD0006DE283E392E00995EC0144275527BA01B2
:101AE0004C195D096E097F092AE083E392E00E94A8
:101AF000100D8C0F9D1FDF91CF91FF90EF90DF9025
:101B0000CF900895CF93DF93AC01990F660B770BBD
:101B100077FF05C0CB01BA010E94590D05C02AE02C
:101B200083E392E00E94100DEC016FE771E083E324
:101B300092E00E94EB0C8C0F9D1FDF91CF910895D6
:101B4000AC01990F660B770B77FF04C0CB01BA018C
:101B50000C94590D2AE083E392E00C94100DCF937E
:101B6000DF93482F50E060E070E02AE083E392E0EA
:101B70000E94100DEC016FE771E083E392E00E9498
:101B8000EB0C8C0F9D1FDF91CF9108950C94EB0C03
:101B9000CF93DF9300D000D0CDB7DEB7789484B573
:101BA000826084BD84B5816084BD85B5826085BD59
:101BB00085B5816085BD80916E00816080936E00E7
:101BC00010928100809181008260809381008091D9
:101BD000810081608093810080918000816080938A
:101BE00080008091B10084608093B1008091B0004A
:101BF00081608093B00080917A00846080937A0045
:101C000080917A00826080937A0080917A0081606E
:101C100080937A0080917A00806880937A00109295
:101C2000C100109214031092150310921603109223
:101C300017031092D2021092D3021092D402109283
:101C4000D5020E94D3036B017C014B015C0128EBA0
:101C5000820E2BE0921EA11CB11C0E94D3036C15B6
:101C60007D058E059F0528F086169706A806B906FD
:101C7000A0F783E392E090931303809312030E94F2
:101C8000A10C0E94D3036093D2027093D30280937D
:101C9000D4029093D50260E771E080911203909195
:101CA00013030E94C60D0E94D3036B017C014B01FC
:101CB0005C013AE0830E911CA11CB11C0E94D3036D
:101CC0006C157D058E059F0528F086169706A806DB
:101CD000B906A0F711E01093E6028AE793E00E94AC
:101CE000BE078BE493E00E94BE078CE193E00E9464
:101CF000BE070E94A10C6FE771E083E392E00E94AF
:101D0000EB0C85EB91E00E94000D83E891E00E94CE
:101D1000000D84E691E00E94000D4FE050E066E087
:101D20008CE793E00E94EA068AE793E00E9443076B
:101D30004FE050E066E08DE493E00E94EA068BE419
:101D400093E00E9443074FE050E066E08EE193E0AD
:101D50000E94EA068CE193E00E9443071092280259
:101D600082E08093290260E00E945D0385E1E2E069
:101D7000F2E0DF011D928A95E9F783E0809301028A
:101D800082E990E0909300028093FF0182E590E069
:101D90009093FE018093FD0163E070E08091280242
:101DA0000E94C90C10931702109218028DE190E066
:101DB0000E941706682F61608DE190E00E94F30594
:101DC00064E687E090E00E94F3056DE088E090E033
:101DD0000E94F30580E00E94D40560E273E080E099
:101DE00090E00E9499038BE591E00E94800C0E9494
:101DF0001F06AC0160E070E02AE083E392E00E94FD
:101E0000100D6FE771E083E392E00E94EB0CA4EF0A
:101E10004A2E55245394612C712CB8E03B2E10E0CF
:101E2000A12E10E0B12E00E0802E00E0902E0E9446
:101E3000D303672B682B692B41F40E94D3036230D4
:101E400071058105910508F41AC10E94D3036093BE
:101E50002F027093300280933102909332020091EE
:101E60002B0210912C0220912D0230912E0260172E
:101E700071078207930740F460932B0270932C0242
:101E800080932D0290932E0200912B0210912C0230
:101E900020912D0230912E026B017C01C01AD10AD3
:101EA000E20AF30A970186010A3F1105210531056F
:101EB00008F4E5C060932B0270932C0280932D02EE
:101EC00090932E024092DE025092DF026092E00276
:101ED0007092E1021092E2021092E3021092E40288
:101EE0001092E5028091D6029091D702A091D8027B
:101EF000B091D9028093DA029093DB02A093DC02C6
:101F0000B093DD020E94D3036093D6027093D70290
:101F10008093D8029093D9020E94D3036093D20297
:101F20007093D3028093D4029093D5020E94D3037E
:101F30006B017C0162E871E08091120390911303C0
:101F40000E94C60D2AE041E050E060E070E0809120
:101F50001203909113030E94100D69E871E08091C3
:101F60001203909113030E94C60D2AE0B701A60147
:101F700080911203909113030E94100D6BE871E0A1
:101F800080911203909113030E94C60D8091D60296
:101F90009091D702A091D802B091D902B701A601C1
:101FA000481B590B6A0B7B0B2AE08091120390911E
:101FB00013030E94100D6BE871E080911203909161
:101FC00013030E94C60D4091D6025091D702609132
:101FD000D8027091D9028091DA029091DB02A0912F
:101FE000DC02B091DD02481B590B6A0B7B0B2AE027
:101FF00080911203909113030E94100D6DE871E01F
:1020000080911203909113030E94C60D0E94D30386
:10201000AB01BC012AE080911203909113030E944E
:10202000100D00911203109113036FE871E0C801C5
:102030000E94EB0C6FE771E0C8010E94EB0C0E945C
:10204000D3036B017C019B01AC012E5F3F4F4F4FCF
:102050005F4F29833A834B835C830E94D3036C15C3
:102060007D058E059F0508F09EC10E94D3036093F5
:10207000D6027093D7028093D8029093D9028091B0
:1020800019028823B9F00E94D30300911A0210911B
:102090001B0220911C0230911D02DC01CB01801B30
:1020A000910BA20BB30B4597A105B10518F080E089
:1020B0000E94D40580910402882309F432C1F89467
:1020C000EFE0F2E0A9EAB3E0832D01900D928A954A
:1020D000E1F710920402789490910F02E1E1F2E0AE
:1020E00080E02E2F41E152E0241B291718F42191A2
:1020F0008227F7CF811115C180E090E0892B21F074
:1021000089EA93E00E9400008091AB0381111FC017
:102110009091AC0391111BC08114910411F00E94A5
:10212000000080911902882371F091E090931902C8
:102130000E94D30360931A0270931B0280931C02C7
:1021400090931D02EEC081E00E94D405EAC09091F8
:102150001902992309F48FC08057803108F088C094
:10216000A1E0A09319020E94D30360931A02709316
:102170001B0280931C0290931D0248E050E060E235
:1021800072E089EA93E00E942314892B61F0109297
:102190001F02E9EAF3E0A0E2B2E0832D01900D9284
:1021A0008A95E1F7BEC080911F028F5F80931F0266
:1021B0008091A903833009F046C08091AB03982F2A
:1021C00097701091AC03953049F410931E02A1143E
:1021D000B10409F4A6C00E940000A3C09430A9F085
:1021E000E92EF12C943068F490911E02992349F065
:1021F000B4E09B9FE00CF11C1124E3E0EE1AF1081F
:1022000007C0FFEFEF1AFF0A03C0FDE1EF2EF12C2C
:1022100083FF0CC061E0C7010E945006882309F4C7
:1022200080C0612FC7010E94F3050AC060E0C701AA
:102230000E945006882309F474C0C7010E94170643
:1022400081136FC0C4CF843009F06BC08091AB03A1
:10225000682F637070E0762F66279091AC03692B2E
:102260006F5F7F4F4091AD038C700E947B0659C019
:1022700080E00E94D4058091AB038F3F71F4809180
:10228000AC0381114EC060E0C62E60E0D62ECD2892
:1022900009F447C00E94000044C087FD0AC00091B5
:1022A000AE032091AD034091AC0360E070E090E09C
:1022B00036C0803C10F59091170297FF32C02091F4
:1022C000AC0330E02095309520773327220F331F61
:1022D000220F331F8F737901E82AFA82E98290FF77
:1022E0006DC00E941F06E816F90609F467C02FEFBB
:1022F000E21621E0F206A9F461C0883E90F490E075
:10230000805C9109982F88273091AC030091AF032E
:102310002091AE034091AD0361E070E0832B0E94F9
:10232000D5098AE793E00E944A078BE493E00E9474
:102330004A078CE193E00E944A070E94D303009170
:1023400018031091190320911A0330911B03DC012B
:10235000CB01801B910BA20BB30B81339547A105D9
:10236000B105F0F00E94D303609318037093190332
:1023700080931A0390931B0366E971E083E392E074
:102380000E94C60D80912A0231E0832790E00E94CE
:10239000820D90912A0281E0892798130E94E0081B
:1023A0000E94A50B44CD29813A814B815C8126177F
:1023B00037074807590708F050CE57CE8091AC0335
:1023C000482F4770C42ED12CD594C79409811A8107
:1023D00001501109000F111F000F111F0C291D2999
:1023E0000F5F1F4F87FF26C0382F3170232E282FF5
:1023F000287083FBFF24F0F880E090E0892B29F01F
:1024000069817A81C8010E940000A0E0B0E0AB2B96
:1024100039F02F2D422D6C2D89819A810E94000068
:10242000E0E0F0E0309709F47CCF4F2D622DC80139
:10243000099577CF40E0E42E40E0F42EEF2809F430
:1024400070CF4091AD036C2DC8010E94000069CF90
:10245000E3E3F2E01382128288EE93E0A0E0B0E0C2
:1024600084839583A683B78389E291E091838083F7
:1024700085EC90E09587848784EC90E09787868749
:1024800080EC90E0918B808B81EC90E0938B828B41
:1024900082EC90E0958B848B86EC90E0978B868B1A
:1024A000118E128E138E148EE0EDF2E016821782DA
:1024B0001086118612861386148615861686178650
:1024C000108A118A128A138A148A158A8AEA90E07D
:1024D0000E94F1129093B2038093B1034BE06AE043
:1024E0008AE793E00E94440548E069E08BE493E0CA
:1024F0000E9444054DE06CE08CE193E00E944405AD
:102500000E94D303609318037093190380931A03F6
:1025100090931B030895F999FECF92BD81BDF89A5F
:10252000992780B50895262FF999FECF1FBA92BD3D
:1025300081BD20BD0FB6F894FA9AF99A0FBE0196A4
:102540000895A1E21A2EAA1BBB1BFD010DC0AA1FF4
:10255000BB1FEE1FFF1FA217B307E407F50720F00C
:10256000A21BB30BE40BF50B661F771F881F991F87
:102570001A9469F760957095809590959B01AC01D0
:10258000BD01CF01089597FB072E16F4009407D0E4
:1025900077FD09D00E94DD1207FC05D03EF490952E
:1025A00081959F4F0895709561957F4F0895EE0F27
:1025B000FF1F0590F491E02D0994AA1BBB1B51E16C
:1025C00007C0AA1FBB1FA617B70710F0A61BB70BA3
:1025D000881F991F5A95A9F780959095BC01CD0148
:1025E0000895CF93DF938230910510F482E090E05C
:1025F000E091B503F091B60320E030E0C0E0D0E018
:10260000309711F14081518148175907C0F04817A0
:10261000590761F482819381209719F09B838A8303
:102620002BC09093B6038093B50326C021153105C6
:1026300019F04217530718F49A01BE01DF01EF01A8
:102640000280F381E02DDCCF2115310509F1281B33
:10265000390B2430310590F412968D919C9113978B
:102660006115710521F0FB019383828304C090936F
:10267000B6038093B503FD01329644C0FD01E20F1D
:10268000F31F81939193225031092D933C933AC0CB
:102690002091B3033091B403232B41F4209107011F
:1026A000309108013093B4032093B30320910501C6
:1026B000309106012115310541F42DB73EB7409107
:1026C000090150910A01241B350BE091B303F091ED
:1026D000B403E217F307A0F42E1B3F0B28173907AA
:1026E00078F0AC014E5F5F4F2417350748F04E0F6E
:1026F0005F1F5093B4034093B3038193919302C03F
:10270000E0E0F0E0CF01DF91CF9108950F931F93A8
:10271000CF93DF93009709F48CC0FC0132971382AA
:1027200012820091B5031091B6030115110581F4D1
:1027300020813181820F931F2091B3033091B40324
:102740002817390779F5F093B403E093B30371C008
:10275000D80140E050E0AE17BF0750F412962D911B
:102760003C911397AD012115310509F1D901F3CF42
:102770009D01DA013383228360817181860F971F67
:102780008217930769F4EC0128813981260F371FDE
:102790002E5F3F4F318320838A819B819383828385
:1027A000452B29F4F093B603E093B50342C013968A
:1027B000FC93EE931297ED01499159919E01240FDC
:1027C000351FE217F30771F480819181840F951F03
:1027D000029611969C938E938281938113969C937B
:1027E0008E931297E0E0F0E0D80112968D919C91C3
:1027F0001397009719F0F8018C01F6CF8D919C91F9
:1028000098012E5F3F4F820F931F2091B3033091A9
:10281000B4032817390769F4309729F41092B603E6
:102820001092B50302C0138212821093B403009376
:10283000B303DF91CF911F910F91089581E090E054
:10284000F8940C943014FB01DC0104C08D910190CC
:10285000801921F441505040C8F7881B990B089506
:04286000F894FFCF1A
:1028640096340134010000B70380007EFF060001A6
:1028740000000000EF000000005201550CA601BE4C
:102884000139015101000000003C0B550C050BE31C
:102894000AF70A830B00000000AF0B550CAF0BAF17
:1028A4000BAF0BAF0B00000000AF0B550C41756470
:1028B400696F506C61796572436C617373207472D3
:1028C400616E736974696F6E20656E643A003D00D1
:1028D400564D4450565F317C315F564D4450560D31
:1028E4000A00564D4450455F003A323A007C005F7E
:1028F400564D4450450073657474696E672069735E
:0A2904004E6967687420746F3A0092
:00000001FF
