:100000000C943F010C94520A0C942B0A0C94870513
:100010000C9487050C9487050C9467010C94670178
:100020000C9467010C9467010C9467010C946701B0
:100030000C9467010C9467010C9467010C946701A0
:100040000C94E1090C9467010C9408090C94E208E3
:100050000C9467010C9467010C9467010C94670180
:100060000C9467010C946701F004F404FA04EA04A8
:10007000FA04EC04F8040205FA04FA04FA04FA0497
:10008000FA04FA04FA04FA04FD04FA04FA04FA047D
:10009000FA04FA044368616E6765206E69676874E4
:1000A00020737461746520746F3A20004368616E38
:1000B00067652043562000506C61796572203320BB
:1000C000757365207472616E736974696F6E204315
:1000D000562000506C61796572203220757365205E
:1000E0007472616E736974696F6E2043562000509C
:1000F0006C61796572203120757365207472616E50
:10010000736974696F6E2043562000416C6C2070D7
:100110006C617965727320757365207472616E739A
:100120006974696F6E20435620005472616E736962
:1001300074696F6E206475726174696F6E204356C6
:1001400020004175746F207472616E736974696FF9
:100150006E2043562000506C617965722033205622
:100160006F6C756D652043562000506C6179657227
:10017000203220566F6C756D652043562000506C00
:1001800061796572203120566F6C756D652043561C
:1001900020004D75746520566F6C756D6520435653
:1001A0002000416464726573733D00416C6C2044AF
:1001B00046506C6179657273204D696E6920617279
:1001C00065206F6E6C696E652E00496E6974696199
:1001D0006C697A696E67204446506C617965727308
:1001E000202E2E2E20284D61792074616B652033DE
:1001F0007E35207365636F6E647329006463635F8B
:10020000617564696F5F33706C6179657273004109
:100210006464726573733D00526573657420435660
:10022000200000000000230026002900000000003C
:10023000240027002A0000000000250028002B00D1
:10024000040404040404040402020202020203037C
:100250000303030301020408102040800102040884
:100260001020010204081020000000080002010014
:10027000000304070000000000000000C413112464
:100280001FBECFEFD8E0DEBFCDBF24E0A8EEB1E0C7
:1002900001C01D92A230B207E1F711E0A0E0B1E089
:1002A000ECE9FBE202C005900D92A83EB107D9F738
:1002B00011E0CFE3D1E004C02197FE010E94731446
:1002C000CE33D107C9F70E94F30E0C94CC150C94D1
:1002D00000008FE080930001089520912B0230915F
:1002E0002C022817390771F490912A028091290273
:1002F000981741F0E0912A02F0E0E751FE4F80812B
:1003000090E008958FEF9FEF089508951F93CF9386
:10031000DF93DC015C962D913C915D9721153105B1
:1003200039F481E090E013969C938E9312973DC030
:100330005196ED91FC91529750969C915097892F30
:1003400080951FB75E964C915E9741FB772770F9B9
:1003500041FD6095F8944081772311F0492B01C04D
:1003600048234083E9012197F1F748E0508160FF7D
:1003700002C0592B01C058235083E9012197F1F79E
:100380006695415099F7772321F0908189238083E6
:1003900003C08081982B90831FBF5C968D919C91A8
:1003A0005D970197F1F721E030E0C901DF91CF912E
:1003B0001F91089520912B0230912C0228173907A4
:1003C00071F48091290220912A0290E0805C9F4F75
:1003D000821B910960E470E00E945F14089580E040
:1003E00090E0089520912B0230912C0228173907B4
:1003F000B9F490912A0280912902981789F0E0912E
:100400002A02F0E0E751FE4F808120912A0230E07D
:100410002F5F3F4F2F73332720932A0290E00895D8
:100420008FEF9FEF089580913202811148C10E94A1
:1004300076092091300230913102DB01A21BB30B0F
:100440002091330230913402A217B30708F437C168
:1004500021E0E0913502F0913602AE17BF0708F0B7
:1004600020E0709331026093300261E060933202C9
:10047000789440913802509139024130510599F1F8
:100480001CF4452B51F019C14230510509F4B1C09B
:100490004330510509F4E4C010C1222309F4CCC053
:1004A00080913B028F5F80933B028B3008F405C143
:1004B00081E090E0909339028093380261E070E02F
:1004C00080915E020E94F40D10922F0282E590E06E
:1004D000909336028093350283E290E09093340249
:1004E00080933302EAC030912F02313079F028F046
:1004F000333069F13430C1F1E0C0222329F0609338
:100500002F02A0932E02D9C084E01EC02223D9F06E
:1005100010922F02A0932D0290913B029F5F909327
:100520003B028A2FAA0F990B20912E02821B910960
:1005300027FD939597FF03C0919581959109439766
:100540000CF4BBC013C083E080932F02B6C021110E
:100550000DC080913702833021F482E0809337020E
:1005600018C03093370215C0222399F01092390237
:100570001092380282E990E090933602809335021F
:1005800082E590E0909334028093330210923B0214
:1005900028C082E090E0909339028093380282E98B
:1005A00090E0909336028093350282E590E090933C
:1005B00034028093330210923D0210923F02109257
:1005C0004002109241021092420210924302109295
:1005D000440280913B0280933E0210923B021092B3
:1005E0003C026091370270E080915E020E94F40D3F
:1005F00064C090913B029F5F90933B0280913C02CC
:10060000880F2111816080933C02983009F055C019
:10061000E0913D02E63099F41092390210923802CE
:1006200082E990E0909336028093350282E590E073
:10063000909334028093330210923B023EC083E0D9
:1006400090E0909339028093380281E08E0F80937E
:100650003D02F0E0E85CFD4F80913C0287832DC0B5
:1006600080913B028F5F80933B022223E1F0109246
:1006700039021092380282E990E09093360280931A
:10068000350282E590E0909334028093330288E053
:10069000EDE3F2E0A5E4B2E001900D928A95E1F776
:1006A00060933A0206C082E090E090933902809312
:1006B000380210923B0210923C02109232020895CE
:1006C0001F93CF93DF93EC01162F8CEA90E00E94EA
:1006D000AB0DAE0160E070E02AE082E792E00E949C
:1006E0003B0E6AE771E082E792E00E94F10E812FF3
:1006F000DF91CF911F910C94DA0E1F93CF93DF936C
:1007000020E030E0232B29F0DF91CF911F910C9452
:100710000000162FEC010E942714811741F0612F71
:10072000CE010E942F14612FCE010E946003CE01E2
:10073000DF91CF911F910C94271420E030E0232B00
:1007400011F00C9400000C942714CF938DE190E0ED
:100750000E949D0387FF0EC089E090E00E949D03E8
:10076000C82F81E090E00E949D0340E4C49F900167
:10077000112411C085FF13C081E190E00E949D0308
:10078000C82F82E190E00E949D032C2F30E0205C76
:100790003109322F2227A901482BCA0105C081E067
:1007A00090E00E949D0390E0CF91089588309105DC
:1007B00059F46623F9F02FE02093000120E030E0A7
:1007C000232B79F00C94000020E030E0232BD1F7AC
:1007D00041E0811524E0920708F040E0662379F0BB
:1007E00001C041E09C01275031092230310538F425
:1007F00040E005C020E030E0232B21F741E0842FCA
:100800000895DF92EF92FF920F931F93CF93DF93A0
:100810008B01E42E82FF27C083FF1BC061E0C8016B
:100820000E94D603882309F453C06E2DC8010E948C
:100830007D038E114DC080E090E0892B09F448C003
:10084000DF91CF911F910F91FF90EF90DF900C946B
:10085000000060E0C8010E94D6038823C9F1C801E6
:100860000E949D03E6CF842F8770C1E0D0E001C0D5
:10087000CC0F8A95EAF7842F8870D82ECB010E947E
:100880009D03F82EE4FE15C061E0C8010E94D60366
:100890008823F1F0DD2011F0CF2904C09C2F909522
:1008A000CF2DC9236C2FC8010E947D038C1310C06B
:1008B000C2CF60E0C8010E94D603882349F0CF214F
:1008C000DD2019F0CC2321F0B6CFCC2309F4B3CF2F
:1008D000DF91CF911F910F91FF90EF90DF900895DE
:1008E000CF92DF92EF92FF920F931F93CF93DF93FC
:1008F000EC0188819981DC01ED91FC910480F58106
:10090000E02D0995892B09F48DC00E8D8881998180
:10091000DC01ED91FC910680F781E02D011109C009
:1009200009958A878E3729F71CA28E8D8F5F8E8F4F
:10093000E0CF0995FE01E00FF11D82879E8D923078
:1009400079F0993091F0913009F069C08B858F3F33
:1009500009F465C01E8E98A31BA21AA29CA382C094
:100960008C85863009F45BC003C08B898F3E11F003
:100970001E8E50C0FE013B96CE01419640E050E0F5
:100980002191420F511DE817F907D1F7298930E06D
:10099000322F22275195419551098A89280F311DFF
:1009A0001E8E42175307B1F5ED85E9A38F8590E0C0
:1009B000982F88272889820F911D9BA38AA34E2FE9
:1009C00050E0FA01FA97E631F105B8F4EC5CFF4F1C
:1009D0000C94731485E00DC081FF15C084E009C03C
:1009E00081FF11C082E005C081FF0DC083E001C01E
:1009F00086E088A381E08CA306C081E088A31BA2C7
:100A00001AA28CA31DA21CA1112369F1888D882331
:100A100049F129C081E088A31BA21AA222C09F5FCE
:100A20009E8F67CF8DA18823A9F00E94D509CA8027
:100A3000DB80EC80FD80DC01CB018C199D09AE09C7
:100A4000BF09CE80DF80E884F9848C159D05AE0552
:100A5000BF0510F41CA107C01E8E18A21BA21AA26B
:100A600081E08CA31DA2812FDF91CF911F910F9167
:100A7000FF90EF90DF90CF9008950F931F93CF9347
:100A8000DF93EC016F8B598F4A8F8C010C5E1F4FE7
:100A9000FC0175969C01255E3F4F80E090E04191FE
:100AA000840F911DE217F307D1F791958195910974
:100AB0009B8F8C8F888D882339F08DA1882351F0EE
:100AC000CE010E947004F9CF6AE070E080E090E00F
:100AD0000E949B0988819981DC01ED91FC91028043
:100AE000F381E02D4AE050E0B80109950E94D50954
:100AF0006A837B838C839D8381E0988D911101C0F3
:100B000080E08DA3DF91CF911F910F9108951F92E7
:100B10000F920FB60F9211242F933F934F935F9331
:100B20006F937F938F939F93AF93BF93EF93FF93B5
:100B3000E0912B02F0912C02309709F451C0968D70
:100B4000A685B785858591FF04C09C91892329F4EA
:100B500047C09C91892309F043C0A389B4899C9123
:100B60008589809589238C93868997890197F1F7E8
:100B7000608D718DA685B785558538E020E0CB0165
:100B80000197F1F7822F90E095958795282F4C914A
:100B9000452309F02068315091F7868D81FD20951D
:100BA0008091290290E001968F73992730912A0253
:100BB000381749F0A0912902B0E0A751BE4F2C93FD
:100BC0008093290203C0868D8160868F828D938DEC
:100BD0000197F1F7A389B4899C918589892B8C931E
:100BE000FF91EF91BF91AF919F918F917F916F9105
:100BF0005F914F913F912F910F900FBE0F901F90DB
:100C00001895CF93DF93FC01828D938D892B31F161
:100C1000A0912B02B0912C02AE17BF07F9F01097EC
:100C200051F05396CD91DC915497988155968C91C3
:100C3000809589238883868D8E7F868F10922902E6
:100C400010922A02F0932C02E0932B02A389B4891C
:100C50009C918589892B8C9381E001C080E0DF9194
:100C6000CF910895909160029817A9F18093600246
:100C700084E990E00E94AB0D8091600290E00E94B8
:100C8000AD0E86E990E00E949D03882321F187E95B
:100C900090E00E949D03882331F06091600281EC16
:100CA00093E00E94D00A88E990E00E949D03882387
:100CB00031F0609160028EE893E00E94D00A89E9E9
:100CC00090E00E949D03882331F0609160028BE5E3
:100CD00093E00C94D00A0895CF93DF93C22F413054
:100CE000510521F04230510589F03FC1822F8170BA
:100CF0000E94320681EC93E0C3FF04C0DF91CF91E4
:100D00000C94790ADF91CF910C94850A8EE893E0D8
:100D100020FF03C00E94790A02C00E94850A8BE569
:100D200093E0C1FF03C00E94790A02C00E94850AB5
:100D3000C2FFE4C08091E8018111E2C081E08093AC
:100D4000E80182EA91E00E94AB0D0E94A503AC018C
:100D500060E070E02AE082E792E00E943B0E6BE8E0
:100D600071E082E792E00E94160E82E991E00E9413
:100D7000AB0D87E890E00E94CB0E6AE771E082E756
:100D800092E00E94F10E87E890E00E949D030E948D
:100D9000DA0E8EE791E00E94AB0D8DE890E00E94A4
:100DA000CB0E6AE771E082E792E00E94F10E8DE8D7
:100DB00090E00E949D030E94DA0E8AE691E00E9474
:100DC000AB0D8EE890E00E94CB0E6AE771E082E7FF
:100DD00092E00E94F10E8EE890E00E949D030E9436
:100DE000DA0E86E591E00E94AB0D8FE890E00E945C
:100DF000CB0E6AE771E082E792E00E94F10E8FE885
:100E000090E00E949D030E94DA0E82E491E00E942D
:100E1000AB0D81E990E00E94CB0E6AE771E082E7BA
:100E200092E00E94F10E81E990E00E949D030E94F1
:100E3000DA0E8AE291E00E94AB0D82E990E00E9416
:100E4000CB0E6AE771E082E792E00E94F10E82E940
:100E500090E00E949D030E94DA0E8BE091E00E94D8
:100E6000AB0D86E990E00E94CB0E6AE771E082E765
:100E700092E00E94F10E86E990E00E949D030E949C
:100E8000DA0E8FEE90E00E94AB0D87E990E00E94B1
:100E9000CB0E6AE771E082E792E00E94F10E87E9EB
:100EA00090E00E949D030E94DA0E83ED90E00E9484
:100EB000AB0D88E990E00E94CB0E6AE771E082E713
:100EC00092E00E94F10E88E990E00E949D030E944A
:100ED000DA0E87EB90E00E94AB0D89E990E00E946A
:100EE000CB0E6AE771E082E792E00E94F10E89E999
:100EF00090E00E949D030E94DA0E02C01092E80169
:100F0000C3FBDD27D0F9C3FF03C087E890E002C030
:100F10008DE890E00E949D03482F50E066E083EC4E
:100F200093E00E943D05DD2319F087E890E002C0C0
:100F30008EE890E00E949D03482F50E066E080E933
:100F400093E00E943D05DD2319F087E890E002C0A0
:100F50008EE890E00E949D03482F50E066E08DE50A
:100F600093E0DF91CF910C943D05DF91CF910895EF
:100F7000FC01918D828D981761F0828DDF01A80FA1
:100F8000B11D5D968C91928D9F5F9F73928F90E0C3
:100F900008958FEF9FEF0895FC01918D828D981732
:100FA00031F0828DE80FF11D858D90E008958FEF6F
:100FB0009FEF0895FC01918D228D892F90E0805C38
:100FC0009F4F821B91098F739927089582E792E0C2
:100FD0000E94DA0721E0892B09F420E0822F08958E
:100FE000FC01848DDF01A80FB11DA35ABF4F2C91C6
:100FF000848D90E001968F739927848FA689B78995
:101000002C93A089B1898C9180648C93938D848D6D
:10101000981306C00288F389E02D80818F7D80833C
:101020000895EF92FF920F931F93CF93DF93EC01FC
:1010300081E0888F9B8D8C8D981305C0E889F98994
:10104000808185FD24C0F62E0B8D10E00F5F1F4FB1
:101050000F731127E02E8C8DE8120CC00FB607FC21
:10106000FACFE889F989808185FFF5CFCE010E940A
:10107000F007F1CF8B8DFE01E80FF11DE35AFF4F12
:10108000F0820B8FEA89FB898081806207C0EE893C
:10109000FF896083E889F98980818064808381E0A9
:1010A00090E0DF91CF911F910F91FF90EF90089505
:1010B000CF93DF93EC01888D8823C9F0EA89FB89FF
:1010C000808185FD05C0A889B9898C9186FD0FC0F6
:1010D0000FB607FCF5CF808185FFF2CFA889B989CB
:1010E0008C9185FFEDCFCE010E94F007E7CFDF9115
:1010F000CF91089580E090E0892B29F00E94E607C7
:1011000081110C940000089590E0FC01E859FD4F16
:101110003491FC01EC5AFD4F2491FC01E05CFD4F41
:10112000E491EE2309F43BC0332339F1333091F0DD
:1011300038F43130A9F0323001F584B58F7D12C01A
:10114000373091F03830A1F03430B9F4809180001C
:101150008F7D03C0809180008F77809380000DC0C9
:1011600084B58F7784BD09C08091B0008F7703C0AC
:101170008091B0008F7D8093B000F0E0EE0FFF1FF4
:10118000EA5CFD4FA591B4918FB7F894EC91611191
:1011900003C020952E2301C02E2B2C938FBF0895C2
:1011A00008950E94BA1521E0FC0120A721A502960E
:1011B000222319F043E050E002C041E050E068E033
:1011C0000C943D051F920F920FB60F9211242F938E
:1011D0003F934F935F936F937F938F939F93AF93BF
:1011E000BF93EF93FF9382E792E00E94F007FF9195
:1011F000EF91BF91AF919F918F917F916F915F918F
:101200004F913F912F910F900FBE0F901F90189507
:101210001F920F920FB60F9211242F938F939F93CB
:10122000EF93FF93E0918202F09183028081E0913D
:101230008802F091890282FD12C0908180918B0218
:101240008F5F8F7320918C02821751F0E0918B0297
:10125000F0E0EE58FD4F958F80938B0201C08081A6
:10126000FF91EF919F918F912F910F900FBE0F9053
:101270001F901895CF93DF9390E0FC01EC5AFD4F3F
:101280002491FC01E05CFD4F8491882361F190E0A2
:10129000880F991FFC01E45DFD4FC591D491FC01BD
:1012A000EA5CFD4FA591B491611109C09FB7F89414
:1012B0008881209582238883EC912E230BC0623095
:1012C00061F49FB7F8943881822F809583238883B7
:1012D000EC912E2B2C939FBF06C08FB7F894E8811A
:1012E0002E2B28838FBFDF91CF9108953FB7F894BD
:1012F00080916E0290916F02A0917002B091710284
:1013000026B5A89B05C02F3F19F00196A11DB11D60
:101310003FBFBA2FA92F982F8827820F911DA11D9B
:10132000B11DBC01CD0142E0660F771F881F991FD8
:101330004A95D1F708958F929F92AF92BF92CF9224
:10134000DF92EF92FF926B017C010E9476094B01C4
:101350005C01C114D104E104F104F1F00E947609AA
:10136000DC01CB0188199909AA09BB09883E934081
:10137000A105B10570F321E0C21AD108E108F10816
:1013800088EE880E83E0981EA11CB11CC114D10404
:10139000E104F10419F7DDCFFF90EF90DF90CF90DB
:1013A000BF90AF909F908F9008952FB7F894609161
:1013B0006A0270916B0280916C0290916D022FBF56
:1013C00008951F920F920FB60F9211242F933F93FF
:1013D0008F939F93AF93BF9380916A0290916B021A
:1013E000A0916C02B0916D023091690223E0230F4D
:1013F0002D3720F40196A11DB11D05C026E8230F4D
:101400000296A11DB11D2093690280936A029093F8
:101410006B02A0936C02B0936D0280916E0290916A
:101420006F02A0917002B09171020196A11DB11DD1
:1014300080936E0290936F02A0937002B09371023A
:10144000BF91AF919F918F913F912F910F900FBEC0
:101450000F901F9018951F920F920FB60F921124A4
:101460002F933F934F935F936F937F938F939F93AC
:10147000AF93BF93EF93FF93E0910301F0910401C9
:101480000995FF91EF91BF91AF919F918F917F91BE
:101490006F915F914F913F912F910F900FBE0F90E1
:1014A0001F9018951F920F920FB60F9211242F9331
:1014B0003F934F935F936F937F938F939F93AF93DC
:1014C000BF93EF93FF93E0910101F0910201099521
:1014D000FF91EF91BF91AF919F918F917F916F910C
:1014E0005F914F913F912F910F900FBE0F901F90E2
:1014F0001895FC0120A5222339F010A640E050E009
:1015000066E102960C943D050895FC0120A5211189
:1015100002C00C94D30808950F931F93CF93DF93C9
:10152000FC0122A52223B9F1EC010E94D5090BA5EB
:101530001CA52DA53EA5DC01CB01801B910BA20BA8
:10154000B30B0FA518A929A93AA9081719072A0743
:101550003B0708F51AA666EC71E082E792E00E946C
:10156000F10E99A581E0892790E00E94AD0EFE0161
:10157000819191918F010E94010641E050E069E163
:10158000C8010E943D0518A6CE01DF91CF911F91A1
:101590000F910C94D308DF91CF911F910F91089573
:1015A0000F931F93CF93DF93EC0169A7FC01819107
:1015B00091918F010E94010641E050E069E1C8016C
:1015C0000E943D0518A60E94D5096BA77CA78DA790
:1015D0009EA781E08AA798A5911111C088A789A527
:1015E000882319F042E050E002C044E050E068E097
:1015F000C801DF91CF911F910F910C943D05DF91B0
:10160000CF911F910F910895FF920F931F93CF9346
:10161000DF93EC0128EE33E0629FC001639F900DE1
:101620001124092E000CAA0BBB0B8FA798ABA9ABFA
:10163000BAABE881F981138E128E118E108E178A43
:10164000168A8DE991E0958F848F8485863108F024
:101650004DC02DEB30E0378B268B2BE931E0318FFD
:10166000208F2CE231E0338F228F909168008830F8
:1016700050F021E08E3008F420E081E001C0880FB6
:101680002A95EAF701C084E0892B8093680084855D
:10169000883038F08E3040F0863148F020E030E07D
:1016A00008C02DE630E005C02BE630E002C02CE695
:1016B00030E0348B238B883030F491E001C0990FF7
:1016C0008A95EAF70EC0282F30E08E3018F42850A3
:1016D000310902C02E50310991E001C0990F2A95BD
:1016E000EAF7958B848D958D0197F1F7CF010E94D4
:1016F0000106888199810E940106FE0181919191E4
:101700008F01FF24F394FA8E9B838A8388859985C1
:10171000AA85BB858854944FAF4FBF4F8887998760
:10172000AA87BB8740E050E06CE0CF010E943D05F6
:10173000FFA2C8010E9470048823D9F38885998587
:10174000AA85BB85885B9B40A109B10988879987D9
:10175000AA87BB8768EC70E080E090E00E949B095C
:101760001EA28AA1843009F0FFCFDF91CF911F9193
:101770000F91FF900895EF92FF920F931F93CF93D5
:10178000DF938C01F62EE42E84EF91E0A0E0B0E030
:10179000F80180879187A287B3878AE0E8E3F1E0C8
:1017A000D801569601900D928A95E1F7F80110A2A2
:1017B00082E081A316A217A210A611A612A613A654
:1017C00014A615A616A680E197E2A0E0B0E087A7D0
:1017D00090ABA1ABB2AB8FE190E00E948D14EC0115
:1017E0001B821A8288EE93E0A0E0B0E08C839D8398
:1017F000AE83BF8386E491E0998388831F8A1E8A23
:10180000198E188E1B8E1A8E1D8E1C8E6E8D6E7FFD
:101810006D7F6E8F6695617081E068278E2D0E94C6
:10182000840861E08E2D0E943A094E2D50E0FA01A5
:10183000EC5AFD4FE491E88BFA01E05CFD4FE49136
:10184000F0E0EE0FFF1FEA5CFD4F859194919A8BBB
:10185000898B60E08F2D0E943A098E8D81FD04C036
:1018600061E08F2D0E948408FC866F2D70E0FB01E3
:10187000EC5AFD4FE491ED87FB01E05CFD4FE491F4
:10188000F0E0EE0FFF1FEE5DFD4F859194919F8775
:101890008E87F801D183C083DF91CF911F910F9183
:1018A000FF90EF90089580934F02882319F00E94D3
:1018B000D50903C060E070E0CB01609350027093E3
:1018C0005102809352029093530281E0809354021C
:1018D0001092550288E0E6E5F2E0DF011D928A955C
:1018E000E9F70895CF92DF92EF92FF920F931F9343
:1018F000CF93DF9300D0CDB7DEB77C016B01542FBF
:10190000142F107E80914D0287FF20C0103E09F0F9
:10191000ECC080914E02882309F4E7C090E029834F
:101920004A830E949D03182F80914E0290E00196F9
:101930000E949D039FE3F922E12FF0E0F82B29811B
:101940005A81EE16FF0609F0D0C01DC080FF0DC001
:1019500029834A830E94A50329815A81E816F90642
:1019600021F0E114F10409F0C0C0103631F100F1AA
:10197000103A09F491C008F4A6C0103C09F4AAC0BA
:10198000103E09F0B2C0852F8370622F70E0782B73
:101990006F5F7F4F402F852F0F900F90DF91CF917A
:1019A0001F910F91FF90EF90DF90CF900C94010466
:1019B0001032E1F1103409F057C080E090E0892B3B
:1019C00009F1852F8F71813029F078F0803169F02D
:1019D000813111F440E00AC054FB882780F9452F7B
:1019E0004F70440F482B425001C041E055FB222765
:1019F00020F90DE110E030E0B601C7015A830E94E2
:101A000000005A8180E090E0892B09F46EC0452FD8
:101A1000B601C7010F900F90DF91CF911F910F91E9
:101A2000FF90EF90DF90CF900C9400005F715F31DA
:101A300009F05BC080E090E0892B09F456C0422F8A
:101A40004F7721F0413019F440E001C041E0622FAE
:101A5000661F6627661F262F30E00FE710E0B601ED
:101A6000C7010E94000041C011113FC0852F8E7038
:101A7000E1F580E090E0892BC1F150FF36C081E0B4
:101A80000F900F90DF91CF911F910F91FF90EF90EA
:101A9000DF90CF900C940000252F2F7054FF10C0C2
:101AA00042E050E0B601C7010F900F90DF91CF9157
:101AB0001F910F91FF90EF90DF90CF900C946C06E8
:101AC00043E050E0EFCF103881F4252F2F7141E033
:101AD00050E0E8CF5F715E3129F05F3131F445E0CD
:101AE00050E0E0CF44E050E0DDCF0F900F90DF9169
:101AF000CF911F910F91FF90EF90DF90CF900895BD
:101B0000CF92DF92EF92FF920F931F93CF93DF93C9
:101B10006C017A018B01C0E0D0E0CE15DF0589F0C1
:101B2000D8016D918D01D601ED91FC910190F0816C
:101B3000E02DC6010995892B11F47E0102C0219682
:101B4000ECCFC701DF91CF911F910F91FF90EF90E4
:101B5000DF90CF9008950F931F93CF93DF938C0165
:101B6000C0E0D0E0F801EC0FFD1F6491662371F036
:101B7000E0917202F09173020190F081E02D82E712
:101B800092E00995892B11F02196ECCFCE01DF91DF
:101B9000CF911F910F910895E2E7F2E0A089B189FA
:101BA00082E08C93A485B5851C92A685B78580E1DB
:101BB0008C93108EA489B58986E08C93A289B38911
:101BC0008C9180618C93A289B3898C9188608C936D
:101BD000A289B3898C9180688C930288F389E02D67
:101BE00080818F7D808308958230F8F4E82FF0E0C3
:101BF000EE0FFF1FEF5FFE4F23E132E031832083C2
:101C0000813041F0809169008C7F682B609369007E
:101C1000E89A089580916900660F771F660F771F15
:101C2000837F682B60936900E99A089561157105B7
:101C300079F0FB0101900020E9F73197AF01461BD5
:101C4000570BDC01ED91FC910280F381E02D0994AA
:101C500080E090E00895CF93DF930E94AB0DEC01FC
:101C60006BE871E082E792E00E94160E8C0F9D1FD8
:101C7000DF91CF9108954F925F926F927F92EF9292
:101C8000FF920F931F93CF93DF93CDB7DEB7A1974A
:101C90000FB6F894DEBF0FBECDBF7C01FA01CB01B9
:101CA00019A2223008F42AE08E010F5D1F4F422E48
:101CB000512C612C712CBF01A30192010E943D1493
:101CC000F901CA01015011096A3014F4605D01C0C4
:101CD000695CD8016C93232B242B252B61F7B80169
:101CE000C7010E94160EA1960FB6F894DEBF0FBE74
:101CF000CDBFDF91CF911F910F91FF90EF907F901B
:101D00006F905F904F900895CF92DF92EF92FF9285
:101D1000CF93DF936B017C01E0917202F09173022B
:101D20000190F081E02D6DE282E792E00995EC01EF
:101D300044275527BA014C195D096E097F092AE02D
:101D400082E792E00E943B0E8C0F9D1FDF91CF91A6
:101D5000FF90EF90DF90CF900895CF93DF93AC0189
:101D6000990F660B770B77FF05C0CB01BA010E9474
:101D7000840E05C02AE082E792E00E943B0EEC014F
:101D80006BE871E082E792E00E94160E8C0F9D1FB7
:101D9000DF91CF910895AC01990F660B770B77FF18
:101DA00004C0CB01BA010C94840E2AE082E792E0D1
:101DB0000C943B0ECF93DF93482F50E060E070E02F
:101DC0002AE082E792E00E943B0EEC016BE871E0B2
:101DD00082E792E00E94160E8C0F9D1FDF91CF913B
:101DE00008950C94160ECF93DF9300D000D0CDB79A
:101DF000DEB7789484B5826084BD84B5816084BD8B
:101E000085B5826085BD85B5816085BD80916E0098
:101E1000816080936E0010928100809181008260C9
:101E20008093810080918100816080938100809106
:101E300080008160809380008091B10084608093F5
:101E4000B1008091B00081608093B00080917A00F1
:101E5000846080937A0080917A00826080937A0017
:101E600080917A00816080937A0080917A00806806
:101E700080937A001092C100109253031092540381
:101E800010925503109256031092110310921203F0
:101E900010921303109214030E94D5096B017C0168
:101EA0004B015C0128EB820E2BE0921EA11CB11CA1
:101EB0000E94D5096C157D058E059F0528F08616B4
:101EC0009706A806B906A0F782E792E0909352031E
:101ED000809351030E94CC0D0E94D5096093110399
:101EE0007093120380931303909314036CE771E0D3
:101EF00080915103909152030E94F10E0E94D509E6
:101F00006B017C014B015C013AE0830E911CA11C2A
:101F1000B11C0E94D5096C157D058E059F0528F022
:101F200086169706A806B906A0F711E010932503B8
:101F300010925E0282E080935F0260E00E943A09A4
:101F400085E1E8E3F2E0DF011D928A95E9F783E09D
:101F50008093370282E990E09093360280933502B5
:101F600082E590E0909334028093330263E070E066
:101F700080915E020E94F40D10934D0210924E0269
:101F80008DE190E00E949D03682F61608DE190E0FB
:101F90000E947D0364E687E090E00E947D036DE08F
:101FA00088E090E00E947D0380E00E94530C60E294
:101FB00073E080E090E00E949B098FE092E00E9435
:101FC000AB0D0E94A503AC0160E070E02AE082E75F
:101FD00092E00E943B0E6BE871E082E792E00E9483
:101FE000160E82E990E00E949D03182F682F81EC65
:101FF00093E00E94040B612F8EE893E00E94040B93
:10200000612F8BE593E00E94040B0E94CC0D6BE8DE
:1020100071E082E792E00E94160E8CEF91E00E9440
:102020002B0E8AEC91E00E942B0E8BEA91E00E942D
:102030002B0E4FE050E066E083EC93E00E943D05FC
:1020400081EC93E00E94850A4FE050E066E080E971
:1020500093E00E943D058EE893E00E94850A4FE0E0
:1020600050E066E08DE593E00E943D058BE593E04E
:102070000E94850A84EF482E55245394612C712CBC
:1020800090E0292E90E0392E20E0A22E20E0B22E02
:1020900030E0832E30E0932E0E94D509672B682B09
:1020A000692B41F40E94D5096230710581059105C3
:1020B00008F41AC10E94D509609365027093660204
:1020C000809367029093680200916102109162020E
:1020D00020916302309164026017710782079307B1
:1020E00040F4609361027093620280936302909364
:1020F00064020091610210916202209163023091AA
:1021000064026B017C01C01AD10AE20AF30A97014A
:1021100086010A3F11052105310508F4E5C06093E9
:102120006102709362028093630290936402409212
:102130001D0350921E0360921F03709220031092A1
:102140002103109222031092230310922403809102
:10215000150390911603A0911703B0911803809373
:10216000190390931A03A0931B03B0931C030E94BE
:10217000D50960931503709316038093170390930A
:1021800018030E94D5096093110370931203809382
:102190001303909314030E94D5096B017C016EE830
:1021A00071E080915103909152030E94F10E2AE058
:1021B00041E050E060E070E0809151039091520363
:1021C0000E943B0E65E971E08091510390915203AA
:1021D0000E94F10E2AE0B701A6018091510390916F
:1021E00052030E943B0E67E971E080915103909188
:1021F00052030E94F10E8091150390911603A09155
:102200001703B0911803B701A601481B590B6A0BBD
:102210007B0B2AE080915103909152030E943B0E68
:1022200067E971E080915103909152030E94F10E91
:102230004091150350911603609117037091180394
:102240008091190390911A03A0911B03B0911C0374
:10225000481B590B6A0B7B0B2AE08091510390912C
:1022600052030E943B0E69E971E080915103909105
:1022700052030E94F10E0E94D509AB01BC012AE075
:1022800080915103909152030E943B0E00915103A3
:10229000109152036BE971E0C8010E94160E6BE8C1
:1022A00071E0C8010E94160E0E94D5096B017C01E5
:1022B0009B01AC012E5F3F4F4F4F5F4F29833A8305
:1022C0004B835C830E94D5096C157D058E059F05A7
:1022D00008F0DFC10E94D5096093150370931603BF
:1022E000809317039093180380914F028823B9F0CD
:1022F0000E94D50900915002109151022091520282
:1023000030915302DC01CB01801B910BA20BB30B6C
:102310004597A105B10518F080E00E94530C80910B
:102320003A02882309F433C1F894E5E4F2E0A4EF1B
:10233000B3E088E001900D928A95E1F710923A029D
:10234000789490914502E7E4F2E080E02E2F47E494
:1023500052E0241B291718F421918227F7CF81110D
:1023600016C12114310421F084EF93E00E94000093
:102370008091F603811121C09091F70391111DC046
:1023800080E090E0892B19F080E00E9400008091AD
:102390004F02882371F081E080934F020E94D5099B
:1023A00060935002709351028093520290935302B3
:1023B000EEC081E00E94530CEAC090914F02992335
:1023C00009F48FC08057803108F088C081E0809385
:1023D0004F020E94D509609350027093510280937E
:1023E00052029093530248E050E066E572E084EFB9
:1023F00093E00E94BF15892B61F010925502E4EF23
:10240000F3E0A6E5B2E088E001900D928A95E1F74D
:10241000BEC0809155028F5F809355028091F40376
:10242000833009F046C08091F603982F9770109181
:10243000F703953049F410935402A114B10409F440
:10244000A6C00E940000A3C09430A9F0E92EF12C90
:10245000943068F490915402992349F0A4E09A9F33
:10246000E00CF11C1124B3E0EB1AF10807C0EFEF08
:10247000EE1AFE0A03C00DE1E02EF12C83FF0CC022
:1024800061E0C7010E94D603882309F480C0612F50
:10249000C7010E947D030AC060E0C7010E94D60305
:1024A000882309F474C0C7010E949D0381136FC083
:1024B000C4CF843009F06BC08091F603682F63703D
:1024C00070E0762F66279091F703692B6F5F7F4F3F
:1024D0004091F8038C700E94010459C080E00E9472
:1024E000530C8091F6038F3F71F48091F7038111B3
:1024F0004EC0A0E0CA2EA0E0DA2ECD2809F447C0D5
:102500000E94000044C087FD0AC00091F903209199
:10251000F8034091F70360E070E090E036C0803C43
:1025200010F590914D0297FF32C02091F70330E0F3
:102530002095309520773327220F331F220F331F2A
:102540008F737901E82AFA82E98290FFADC00E9478
:10255000A503E816F90609F4A7C02FEFE21621E05B
:10256000F206A9F4A1C0883E90F490E0805C910945
:10257000982F88273091F7030091FA032091F903EF
:102580004091F80361E070E0832B0E94720C81ECB3
:1025900093E00E948C0A8EE893E00E948C0A8BE5FF
:1025A00093E00E948C0A81E990E00E949D03F82E3E
:1025B0008823D1F00E94D509009157031091580348
:1025C0002091590330915A03DC01CB01801B910B00
:1025D000A20BB30B0F2D10E020E030E00817190715
:1025E0002A073B0708F4AAC08114910419F00E943D
:1025F000000005C08FB38695817091E089278823FC
:1026000009F444C080910001882309F43FC088E1A7
:1026100092E00E94AB0D8091000190E09C01220F9E
:10262000331F820F931FFC01E55FFE4F40815181F4
:1026300060E070E02AE082E792E00E943B0E6AE7E9
:1026400071E082E792E00E94F10E8091000190E03B
:102650009C01220F331F820F931FFC01E55FFE4F89
:1026600082810E94DA0EE0910001E150E0930001C6
:10267000F0E0CF01880F991FE80FF91FE55FFE4FCB
:102680006281808191810E947D03BCCF0E947A0883
:1026900003CD29813A814B815C8126173707480792
:1026A000590708F00FCE16CE8091F703482F4770D8
:1026B000C42ED12CD594C79409811A8101501109D7
:1026C000000F111F000F111F0C291D290F5F1F4F35
:1026D00087FF26C0382F3170E32E282F287083FB08
:1026E000FF24F0F880E090E0892B29F069817A815D
:1026F000C8010E940000A0E0B0E0AB2B39F02F2D04
:102700004E2D6C2D89819A810E940000E0E0F0E05E
:10271000309709F43CCF4F2D6E2DC801099537CF66
:10272000E0E0EE2EE0E0FE2EEF2809F430CF4091FD
:10273000F8036C2DC8010E94000029CF0E94D50922
:1027400060935703709358038093590390935A03EF
:1027500062EA71E082E792E00E94F10E8F2D0E9402
:10276000DA0E62EB71E082E792E00E94F10E809156
:10277000600211E0812790E00E94AD0E809160021E
:1027800081270E94320630CFE2E7F2E01382128204
:1027900088EE93E0A0E0B0E084839583A683B783BE
:1027A00086E591E09183808385EC90E0958784872E
:1027B00084EC90E09787868780EC90E0918B808B0B
:1027C00081EC90E0938B828B82EC90E0958B848BF4
:1027D00086EC90E0978B868B118E128E138E148E62
:1027E000EFE0F3E0168217821086118612861386B8
:1027F0001486158616861786108A118A128A138AFD
:10280000148A158A8AEA90E00E948D149093FD0341
:102810008093FC034BE06AE081EC93E00E94BB0BE9
:1028200048E069E08EE893E00E94BB0B4DE06CE06D
:102830008BE593E00E94BB0B0E94D5096093570380
:10284000709358038093590390935A030895F9990C
:10285000FECF92BD81BDF89A992780B50895262FA5
:10286000F999FECF1FBA92BD81BD20BD0FB6F89475
:10287000FA9AF99A0FBE01960895A1E21A2EAA1BA0
:10288000BB1BFD010DC0AA1FBB1FEE1FFF1FA21720
:10289000B307E407F50720F0A21BB30BE40BF50B1D
:1028A000661F771F881F991F1A9469F760957095A6
:1028B000809590959B01AC01BD01CF01089597FBD8
:1028C000072E16F4009407D077FD09D00E947914E2
:1028D00007FC05D03EF4909581959F4F0895709523
:1028E00061957F4F0895EE0FFF1F0590F491E02D45
:1028F0000994AA1BBB1B51E107C0AA1FBB1FA61747
:10290000B70710F0A61BB70B881F991F5A95A9F798
:1029100080959095BC01CD010895CF93DF938230CF
:10292000910510F482E090E0E0910004F091010440
:1029300020E030E0C0E0D0E0309711F140815181DB
:1029400048175907C0F04817590761F482819381ED
:10295000209719F09B838A832BC090930104809366
:10296000000426C02115310519F04217530718F449
:102970009A01BE01DF01EF010280F381E02DDCCF7F
:102980002115310509F1281B390B2430310590F44C
:1029900012968D919C9113976115710521F0FB01A1
:1029A0009383828304C09093010480930004FD010B
:1029B000329644C0FD01E20FF31F819391932250A0
:1029C00031092D933C933AC02091FE033091FF03CF
:1029D000232B41F420910701309108013093FF032C
:1029E0002093FE0320910501309106012115310548
:1029F00041F42DB73EB74091090150910A01241BC3
:102A0000350BE091FE03F091FF03E217F307A0F40A
:102A10002E1B3F0B2817390778F0AC014E5F5F4F34
:102A20002417350748F04E0F5F1F5093FF03409364
:102A3000FE038193919302C0E0E0F0E0CF01DF91CB
:102A4000CF9108950F931F93CF93DF93009709F4CD
:102A50008CC0FC0132971382128200910004109105
:102A600001040115110581F420813181820F931F2A
:102A70002091FE033091FF032817390779F5F09371
:102A8000FF03E093FE0371C0D80140E050E0AE17B1
:102A9000BF0750F412962D913C911397AD0121156B
:102AA000310509F1D901F3CF9D01DA013383228386
:102AB00060817181860F971F8217930769F4EC017B
:102AC00028813981260F371F2E5F3F4F31832083A6
:102AD0008A819B8193838283452B29F4F09301049F
:102AE000E093000442C01396FC93EE931297ED011D
:102AF000499159919E01240F351FE217F30771F494
:102B000080819181840F951F029611969C938E93DC
:102B10008281938113969C938E931297E0E0F0E06C
:102B2000D80112968D919C911397009719F0F80196
:102B30008C01F6CF8D919C9198012E5F3F4F820FB3
:102B4000931F2091FE033091FF032817390769F482
:102B5000309729F4109201041092000402C01382ED
:102B600012821093FF030093FE03DF91CF911F9118
:102B70000F91089581E090E0F8940C94CC15FB013E
:102B8000DC0104C08D910190801921F44150504026
:0C2B9000C8F7881B990B0895F894FFCF3C
:102B9C00A0D008D00800000204800001000311003E
:102BAC00001200030800001D00028700018D000FB9
:102BBC008E000F8F000F91000092000A9600019773
:102BCC0000019800019900017EFF06000100000041
:102BDC0000EF000000008601800DDA01F2016D01AA
:102BEC008501000000001108800DDA07B807CC073A
:102BFC00580800000000D108800DD108D108D10878
:102C0C00D10800000000D108800D3D00564D445005
:102C1C00565F317C315F564D4450560D0A00564D6F
:102C2C004450455F003A323A007C005F564D4450A8
:102C3C0045006175746F5472616E736974696F6E5F
:102C4C003A0073657474696E672069734E696768BE
:102C5C007420746F3A00417564696F506C617965CA
:102C6C0072436C617373207472616E736974696FF3
:082C7C006E20656E643A000051
:107800000C94343C0C94513C0C94513C0C94513CE1
:107810000C94513C0C94513C0C94513C0C94513CB4
:107820000C94513C0C94513C0C94513C0C94513CA4
:107830000C94513C0C94513C0C94513C0C94513C94
:107840000C94513C0C94513C0C94513C0C94513C84
:107850000C94513C0C94513C0C94513C0C94513C74
:107860000C94513C0C94513C11241FBECFEFD8E036
:10787000DEBFCDBF11E0A0E0B1E0ECE9FFE702C060
:1078800005900D92A230B107D9F712E0A2E0B1E065
:1078900001C01D92AD30B107E1F70E942D3D0C945F
:1078A000CC3F0C94003C982F959595959595959582
:1078B000905D8F708A307CF0282F295A8091C0000B
:1078C00085FFFCCF9093C6008091C00085FFFCCF60
:1078D0002093C6000895282F205DF0CF982F809127
:1078E000C00085FFFCCF9093C6000895EF92FF92F1
:1078F0000F931F93EE24FF2487018091C00087FD22
:1079000017C00894E11CF11C011D111D81E4E8164B
:1079100082E4F8068FE0080780E0180770F3E09132
:107920000401F091050109958091C00087FFE9CF1E
:107930008091C6001F910F91FF90EF9008950E94D3
:10794000763C982F8091C00085FFFCCF9093C600B5
:1079500091362CF490330CF09053892F089597555D
:10796000892F08951F930E949F3C182F0E949F3CCF
:107970001295107F810F1F9108951F93182F882350
:1079800021F00E94763C1150E1F71F9108951F935A
:10799000182F0E94763C803249F0809103018F5F5E
:1079A000809303018530C1F01F9108958091C0003C
:1079B00085FFFCCF84E18093C6008091C00085FFE5
:1079C000FCCF1093C6008091C00085FFFCCF80E102
:1079D0008093C6001F910895E0910401F091050184
:1079E00009951F9108950E94763C803241F0809164
:1079F00003018F5F80930301853081F008958091AA
:107A0000C00085FFFCCF84E18093C6008091C00058
:107A100085FFFCCF80E18093C6000895E0910401CA
:107A2000F09105010995089540E951E08823A1F0FE
:107A30002D9A28EE33E0FA013197F1F721503040CA
:107A4000D1F72D9828EE33E0FA013197F1F7215064
:107A50003040D1F7815061F708953F924F925F9285
:107A60006F927F928F929F92AF92BF92CF92DF924E
:107A7000EF92FF920F931F93CF93DF93000080E16B
:107A80008093C4001092C50088E18093C10086E015
:107A90008093C2005098589A259A81E00E94143D24
:107AA00024E1F22E9EE1E92E85E9D82E0FE0C02ECA
:107AB00010E1B12EAA24A394B1E49B2EA6E58A2E50
:107AC000F2E57F2EE0E26E2E79E4572E63E5462E36
:107AD00050E5352E0E94763C8033B1F18133B9F107
:107AE000803409F46FC0813409F476C0823409F41B
:107AF00085C0853409F488C0803531F1823521F1A3
:107B0000813511F1853509F485C0863509F48DC0BC
:107B1000843609F496C0843709F403C1853709F423
:107B200072C1863709F466C0809103018F5F80932C
:107B30000301853079F6E0910401F0910501099582
:107B40000E94763C803351F60E94F33CC3CF0E94E2
:107B5000763C803249F78091C00085FFFCCFF092DF
:107B6000C6008091C00085FFFCCF9092C600809136
:107B7000C00085FFFCCF8092C6008091C00085FFC9
:107B8000FCCF7092C6008091C00085FFFCCF609250
:107B9000C6008091C00085FFFCCF5092C600809146
:107BA000C00085FFFCCF4092C6008091C00085FFD9
:107BB000FCCF3092C6008091C00085FFFCCFB09210
:107BC000C60088CF0E94763C863808F4BDCF0E945C
:107BD000763C0E94F33C7ECF0E94763C803809F4CC
:107BE0009CC0813809F40BC1823809F43CC1883942
:107BF00009F48FC080E00E94C73C6CCF84E10E94F2
:107C0000BD3C0E94F33C66CF85E00E94BD3C0E94D3
:107C1000F33C60CF0E94763C809306010E94763C44
:107C2000809307010E94F33C55CF0E94763C80333D
:107C300009F41DC183E00E94BD3C80E00E94C73C66
:107C400049CF0E94763C809309020E94763C809343
:107C5000080280910C028E7F80930C020E94763C79
:107C6000853409F415C18091080290910902892B8D
:107C700089F000E010E00E94763CF801E85FFE4FDA
:107C800080830F5F1F4F80910802909109020817AF
:107C9000190788F30E94763C803209F045CF809125
:107CA0000C0280FF01C16091060170910701660F0F
:107CB000771F7093070160930601A0910802B091AD
:107CC00009021097C9F0E8E0F1E09B01AD014E0F09
:107CD0005F1FF999FECF32BD21BD819180BDFA9A17
:107CE000F99A2F5F3F4FE417F50799F76A0F7B1F4B
:107CF00070930701609306018091C00085FFFCCF5F
:107D0000F092C6008091C00085FFFCCFB092C60003
:107D1000E1CE83E00E94C73CDDCE82E00E94C73CFA
:107D2000D9CE0E94763C809309020E94763C8093D3
:107D300008028091060190910701880F991F909386
:107D40000701809306010E94763C853409F4A6C0A1
:107D500080910C028E7F80930C020E94763C8032D0
:107D600009F0B8CE8091C00085FFFCCFF092C6002C
:107D7000609108027091090261157105B9F140E046
:107D800050E080910C02A82FA170B82FB27011C0E2
:107D9000BB2309F45CC0E0910601F0910701319624
:107DA000F0930701E09306014F5F5F4F46175707B7
:107DB000E8F4AA2369F3F999FECF209106013091E6
:107DC000070132BD21BDF89A90B58091C00085FFB2
:107DD000FCCF9093C6002F5F3F4F30930701209355
:107DE00006014F5F5F4F4617570718F38091C00099
:107DF00085FDE5CE8091C00085FFF8CFE0CE81E023
:107E00000E94C73C67CE0E94763C803209F08CCE3F
:107E10008091C00085FFFCCFF092C6008091C00029
:107E200085FFFCCFE092C6008091C00085FFFCCFAB
:107E3000D092C6008091C00085FFFCCFC092C600E2
:107E40008091C00085FFFCCFB092C60043CEE09188
:107E50000601F091070194918091C00085FFFCCF4D
:107E60009093C6009CCF80E10E94C73C33CE0E9415
:107E7000763C0E94763C182F0E94763C112309F430
:107E800083C0113009F484C08FE00E94C73C22CE29
:107E900080910C02816080930C02E5CE80910C02EF
:107EA000816080930C0259CF809107018823880F4D
:107EB000880B8A2180930B02809106019091070123
:107EC000880F991F90930701809306018091080203
:107ED00080FF09C080910802909109020196909359
:107EE000090280930802F894F999FECF1127E091D6
:107EF0000601F0910701C8E0D1E08091080290915D
:107F00000902103091F40091570001700130D9F34B
:107F100003E000935700E89500915700017001308D
:107F2000D9F301E100935700E89509901990009169
:107F3000570001700130D9F301E000935700E89534
:107F40001395103498F011270091570001700130FB
:107F5000D9F305E000935700E895009157000170B0
:107F60000130D9F301E100935700E895329602976A
:107F700009F0C7CF103011F00296E5CF112480919F
:107F8000C00085FFB9CEBCCE8EE10E94C73CA2CD19
:0C7F900085E90E94C73C9ECDF894FFCF0D
:027F9C00800063
:040000030000780081
:00000001FF