:100000000C94BA010C9429060C9402060C94460A2E
:100010000C94460A0C94460A0C94E2010C94E201FA
:100020000C94E2010C94E2010C94E2010C94E201C4
:100030000C94E2010C94E2010C94E2010C94E201B4
:100040000C94B8050C94E2010C945B020C943502FC
:100050000C94E2010C94E2010C94E2010C94E20194
:100060000C94E2010C94E201F408F808FE08EE0892
:10007000FE08F008FC080609FE08FE08FE08FE0857
:10008000FE08FE08FE08FE080109FE08FE08FE083C
:10009000FE08FE08416464726573733D00416C6C38
:1000A000204446506C6179657273204D696E6920F9
:1000B000617265206F6E6C696E652E00322E506C19
:1000C0006561736520696E7365727420746865205C
:1000D000534420636172642120284446506C617946
:1000E000657220332900312E506C65617365207272
:1000F00065636865636B2074686520636F6E6E6509
:100100006374696F6E2120284446506C6179657272
:1001100020332900556E61626C6520746F20626522
:1001200067696E20284446506C61796572203329D6
:100130003A00322E506C6561736520696E7365728A
:100140007420746865205344206361726421202800
:100150004446506C6179657220322900312E506C12
:1001600065617365207265636865636B207468659B
:1001700020636F6E6E656374696F6E21202844463C
:10018000506C6179657220322900556E61626C6530
:1001900020746F20626567696E20284446506C6148
:1001A0007965722032293A00322E506C6561736590
:1001B00020696E73657274207468652053442063EF
:1001C0006172642120284446506C61796572203147
:1001D0002900312E506C6561736520726563686516
:1001E000636B2074686520636F6E6E656374696FFE
:1001F0006E2120284446506C6179657220312900B7
:10020000556E61626C6520746F20626567696E204F
:10021000284446506C617965722031293A00496E54
:10022000697469616C697A696E67204446506C61D3
:1002300079657273202E2E2E20284D6179207461ED
:100240006B6520337E35207365636F6E64732900A0
:100250006463635F617564696F5F33706C61796556
:1002600072730020506C61792046696E697368650D
:1002700064212028506C61796572203229004E7506
:100280006D6265723A0020506C61792046696E6932
:1002900073686564212028506C617965722031296A
:1002A000004E756D6265723A000000000024002760
:1002B000002A0000000000250028002B0004040490
:1002C00004040404040202020202020303030303FF
:1002D00003010204081020408001020408102001DC
:1002E00002040810200000000800020100000304BE
:1002F000070000000000000000506C61796572206A
:100300003320566F6C756D652043562000506C612C
:10031000796572203220566F6C756D6520435620CA
:1003200000506C61796572203120566F6C756D6577
:1003300020435620004D75746520566F6C756D65B1
:100340002043562000416464726573733D00436826
:10035000616E6765206E6967687420737461746587
:1003600020746F3A200000000000230026002900BE
:1003700059134D1311241FBECFEFD8E0DEBFCDBF00
:1003800023E0AAE8B1E001C01D92A03EB207E1F768
:1003900011E0A0E0B1E0EAEFFAE202C005900D92B0
:1003A000AA38B107D9F711E0C9EBD1E004C0219711
:1003B000FE010E941714C83BD107C9F70E94620EC4
:1003C0000C9470150C9400008AE192E00E94AF0238
:1003D00021E0892B09F420E0822F0895EF92FF920B
:1003E0000F931F93CF93DF93EC0181E0888F9B8D58
:1003F0008C8D981305C0E889F989808185FD24C01A
:10040000F62E0B8D10E00F5F1F4F0F731127E02E9C
:100410008C8DE8120CC00FB607FCFACFE889F98979
:10042000808185FFF5CFCE010E94A704F1CF8B8D8F
:10043000FE01E80FF11DE35AFF4FF0820B8FEA89AE
:10044000FB898081806207C0EE89FF896083E8892B
:10045000F98980818064808381E090E0DF91CF9191
:100460001F910F91FF90EF9008951F920F920FB67A
:100470000F9211242F933F934F935F936F937F932A
:100480008F939F93AF93BF93EF93FF938AE192E093
:100490000E94A704FF91EF91BF91AF919F918F911F
:1004A0007F916F915F914F913F912F910F900FBE70
:1004B0000F901F9018951F920F920FB60F92112454
:1004C0002F938F939F93EF93FF93E0912A02F091E4
:1004D0002B028081E0913002F091310282FD12C046
:1004E0009081809133028F5F8F7320913402821745
:1004F00051F0E0913302F0E0E65EFD4F958F80937E
:10050000330201C08081FF91EF919F918F912F91D4
:100510000F900FBE0F901F901895FC01918D828D4A
:10052000981761F0828DDF01A80FB11D5D968C9147
:10053000928D9F5F9F73928F90E008958FEF9FEF52
:100540000895FC01918D828D981731F0828DE80F0E
:10055000F11D858D90E008958FEF9FEF0895FC01C8
:10056000918D228D892F90E0805C9F4F821B910995
:100570008F739927089580E090E0892B29F00E94DD
:10058000E40181110C94000008953FB7F894809124
:10059000160290911702A0911802B091190226B587
:1005A000A89B05C02F3F19F00196A11DB11D3FBFAB
:1005B000BA2FA92F982F8827820F911DA11DB11D39
:1005C000BC01CD0142E0660F771F881F991F4A9535
:1005D000D1F7089508952091090230910A02281751
:1005E000390771F49091080280910702981741F041
:1005F000E0910802F0E0E953FE4F808190E0089519
:100600008FEF9FEF089508951F93CF93DF93DC0141
:100610005C962D913C915D972115310539F481E06F
:1006200090E013969C938E9312973DC05196ED9156
:10063000FC91529750969C915097892F80951FB7A7
:100640005E964C915E9741FB772770F941FD60956E
:10065000F8944081772311F0492B01C0482340834F
:10066000E9012197F1F748E0508160FF02C0592B62
:1006700001C058235083E9012197F1F76695415055
:1006800099F7772321F090818923808303C08081AB
:10069000982B90831FBF5C968D919C915D970197DD
:1006A000F1F721E030E0C901DF91CF911F9108956A
:1006B0000E945E1580911002811148C10E94C502FE
:1006C00020910E0230910F02DB01A21BB30B20918F
:1006D0008A0130918B01A217B30708F437C121E0DA
:1006E000E0918C01F0918D01AE17BF0708F020E07A
:1006F00070930F0260930E0261E060931002789491
:1007000040918F01509190014130510599F11CF4B5
:10071000452B51F019C14230510509F4B1C04330A5
:10072000510509F4E4C010C1222309F4CCC0809122
:1007300092018F5F809392018B3008F405C181E0B4
:1007400090E09093900180938F0161E070E0809140
:10075000B5010E94A10C10920D0282E590E09093E9
:100760008D0180938C0183E290E090938B018093C4
:100770008A01EAC030910D02313079F028F033302F
:1007800069F13430C1F1E0C0222329F060930D02F9
:10079000A0930C02D9C084E01EC02223D9F010928D
:1007A0000D02A0930B02909192019F5F9093920192
:1007B0008A2FAA0F990B20910C02821B910927FD09
:1007C000939597FF03C091958195910943970CF4F8
:1007D000BBC013C083E080930D02B6C021110DC0D1
:1007E00080918E01833021F482E080938E0118C0C5
:1007F00030938E0115C0222399F01092900110922F
:100800008F0182E990E090938D0180938C0182E5C5
:1008100090E090938B0180938A011092920128C0FE
:1008200082E090E09093900180938F0182E990E0C4
:1008300090938D0180938C0182E590E090938B01E1
:1008400080938A0110929401109296011092970160
:10085000109298011092990110929A0110929B01A6
:1008600080919201809395011092920110929301D0
:1008700060918E0170E08091B5010E94A10C64C06E
:10088000909192019F5F9093920180919301880FC4
:100890002111816080939301983009F055C0E09157
:1008A0009401E63099F41092900110928F0182E940
:1008B00090E090938D0180938C0182E590E090937D
:1008C0008B0180938A01109292013EC083E090E0F8
:1008D0009093900180938F0181E08E0F809394011B
:1008E000F0E0E157FE4F8091930187832DC0809106
:1008F00092018F5F809392012223E1F01092900188
:1009000010928F0182E990E090938D0180938C0189
:1009100082E590E090938B0180938A0188E0E4E97E
:10092000F1E0ACE9B1E001900D928A95E1F76093B6
:10093000910106C082E090E09093900180938F0136
:100940001092920110929301109210020895FC01EE
:10095000848DDF01A80FB11DA35ABF4F2C91848D48
:1009600090E001968F739927848FA689B7892C937D
:10097000A089B1898C9180648C93938D848D981318
:1009800006C00288F389E02D80818F7D80830895E1
:10099000CF93DF93EC01888D8823C9F0EA89FB8926
:1009A000808185FD05C0A889B9898C9186FD0FC01D
:1009B0000FB607FCF5CF808185FFF2CFA889B989F2
:1009C0008C9185FFEDCFCE010E94A704E7CFDF9188
:1009D000CF91089590E0FC01EB51FD4F3491FC0163
:1009E000EF52FD4F2491FC01E354FD4FE491EE23BF
:1009F00009F43BC0332339F1333091F038F431300E
:100A0000A9F0323001F584B58F7D12C0373091F0F6
:100A10003830A1F03430B9F4809180008F7D03C06C
:100A2000809180008F77809380000DC084B58F7790
:100A300084BD09C08091B0008F7703C08091B00061
:100A40008F7D8093B000F0E0EE0FFF1FED54FD4F5F
:100A5000A591B4918FB7F894EC91611103C02095E2
:100A60002E2301C02E2B2C938FBF0895CF93DF939D
:100A700090E0FC01EF52FD4F2491FC01E354FD4F47
:100A80008491882361F190E0880F991FFC01E7555C
:100A9000FD4FC591D491FC01ED54FD4FA591B4914A
:100AA000611109C09FB7F8948881209582238883BB
:100AB000EC912E230BC0623061F49FB7F89438811B
:100AC000822F809583238883EC912E2B2C939FBFBC
:100AD00006C08FB7F894E8812E2B28838FBFDF9153
:100AE000CF9108958F929F92AF92BF92CF92DF9253
:100AF000EF92FF926B017C010E94C5024B015C01E9
:100B0000C114D104E104F104F1F00E94C502DC013A
:100B1000CB0188199909AA09BB09883E9340A10510
:100B2000B10570F321E0C21AD108E108F10888EE9E
:100B3000880E83E0981EA11CB11CC114D104E104ED
:100B4000F10419F7DDCFFF90EF90DF90CF90BF90C9
:100B5000AF909F908F9008952FB7F89460911202F4
:100B60007091130280911402909115022FBF089585
:100B70001F920F920FB60F9211242F933F938F93D2
:100B80009F93AF93BF938091120290911302A09113
:100B90001402B09115023091110223E0230F2D377A
:100BA00020F40196A11DB11D05C026E8230F029671
:100BB000A11DB11D20931102809312029093130284
:100BC000A0931402B093150280911602909117021F
:100BD000A0911802B09119020196A11DB11D809338
:100BE000160290931702A0931802B0931902BF91B6
:100BF000AF919F918F913F912F910F900FBE0F90CA
:100C00001F9018951F920F920FB60F9211242F93D9
:100C10003F934F935F936F937F938F939F93AF9384
:100C2000BF93EF93FF93E0910301F09104010995C5
:100C3000FF91EF91BF91AF919F918F917F916F91B4
:100C40005F914F913F912F910F900FBE0F901F908A
:100C500018951F920F920FB60F9211242F933F9366
:100C60004F935F936F937F938F939F93AF93BF93B4
:100C7000EF93FF93E0910101F09102010995FF913B
:100C8000EF91BF91AF919F918F917F916F915F9104
:100C90004F913F912F910F900FBE0F901F9018957D
:100CA0008093A601882319F00E94AC0503C060E080
:100CB00070E0CB016093A7017093A8018093A90114
:100CC0009093AA0181E08093AB011092AC0188E07F
:100CD000EDEAF1E0DF011D928A95E9F708951F938F
:100CE000CF93DF9320E030E0232B29F0DF91CF91E9
:100CF0001F910C940000162FEC010E94CB1381175A
:100D000061F0612FCE010E94D31380E090E0892B27
:100D100021F0612FCE010E940000CE01DF91CF9122
:100D20001F910C94CB1320E030E0232B11F00C9496
:100D300000000C94CB13CF938DE190E00E949306BA
:100D400087FF0EC089E090E00E949306C82F81E0E3
:100D500090E00E94930640E4C49F9001112411C0CA
:100D600085FF13C081E190E00E949306C82F82E1C5
:100D700090E00E9493062C2F30E0205C3109322F46
:100D80002227A901482BCA0105C081E090E00E94FA
:100D9000930690E0CF9108958830910559F4662329
:100DA000F9F028E02093000120E030E0232B79F0D7
:100DB0000C94000020E030E0232BD1F741E08115B6
:100DC00024E0920708F040E0662379F001C041E09A
:100DD0009C01275031092230310538F440E005C02C
:100DE00020E030E0232B21F741E0842F0895DF92AB
:100DF000EF92FF920F931F93CF93DF938B01E42E1B
:100E000082FF27C083FF1BC061E0C8010E94CC069F
:100E1000882309F453C06E2DC8010E946F068E11FD
:100E20004DC080E090E0892B09F448C0DF91CF915C
:100E30001F910F91FF90EF90DF900C94000060E005
:100E4000C8010E94CC068823C9F1C8010E949306FC
:100E5000E6CF842F8770C1E0D0E001C0CC0F8A9527
:100E6000EAF7842F8870D82ECB010E949306F82EC3
:100E7000E4FE15C061E0C8010E94CC068823F1F0B1
:100E8000DD2011F0CF2904C09C2F9095CF2DC923D0
:100E90006C2FC8010E946F068C1310C0C2CF60E097
:100EA000C8010E94CC06882349F0CF21DD2019F02B
:100EB000CC2321F0B6CFCC2309F4B3CFDF91CF916F
:100EC0001F910F91FF90EF90DF900895CF92DF92E6
:100ED000EF92FF920F931F93CF93DF9300D0CDB784
:100EE000DEB77C016B01542F142F107E8091A4017A
:100EF00087FF20C0103E09F0ECC08091A501882337
:100F000009F4E7C090E029834A830E949306182FD2
:100F10008091A50190E001960E9493069FE3F9223B
:100F2000E12FF0E0F82B29815A81EE16FF0609F037
:100F3000D0C01DC080FF0DC029834A830E949B063C
:100F400029815A81E816F90621F0E114F10409F02B
:100F5000C0C0103631F100F1103A09F491C008F424
:100F6000A6C0103C09F4AAC0103E09F0B2C0852FFB
:100F70008370622F70E0782B6F5F7F4F402F852F3B
:100F80000F900F90DF91CF911F910F91FF90EF90F5
:100F9000DF90CF900C94F7061032E1F1103409F095
:100FA00057C080E090E0892B09F1852F8F71813047
:100FB00029F078F0803169F0813111F440E00AC005
:100FC00054FB882780F9452F4F70440F482B42501F
:100FD00001C041E055FB222720F90DE110E030E08F
:100FE000B601C7015A830E9400005A8180E090E058
:100FF000892B09F46EC0452FB601C7010F900F90E1
:10100000DF91CF911F910F91FF90EF90DF90CF90E4
:101010000C9400005F715F3109F05BC080E090E0EC
:10102000892B09F456C0422F4F7721F0413019F433
:1010300040E001C041E0622F661F6627661F262F31
:1010400030E00FE710E0B601C7010E94000041C088
:1010500011113FC0852F8E70E1F580E090E0892B63
:10106000C1F150FF36C081E00F900F90DF91CF911A
:101070001F910F91FF90EF90DF90CF900C940000A4
:10108000252F2F7054FF10C042E050E0B601C70179
:101090000F900F90DF91CF911F910F91FF90EF90E4
:1010A000DF90CF900C943D0B43E050E0EFCF103831
:1010B00081F4252F2F7141E050E0E8CF5F715E3160
:1010C00029F05F3131F445E050E0E0CF44E050E0FA
:1010D000DDCF0F900F90DF91CF911F910F91FF9077
:1010E000EF90DF90CF900895CF92DF92EF92FF9232
:1010F0000F931F93CF93DF93EC0188819981DC01DB
:10110000ED91FC910480F581E02D0995892B09F47E
:101110008DC00E8D88819981DC01ED91FC91068056
:10112000F781E02D011109C009958A878E3729F7CB
:101130001CA28E8D8F5F8E8FE0CF0995FE01E00F90
:10114000F11D82879E8D923079F0993091F0913027
:1011500009F069C08B858F3F09F465C01E8E98A386
:101160001BA21AA29CA382C08C85863009F45BC0A6
:1011700003C08B898F3E11F01E8E50C0FE013B963E
:10118000CE01419640E050E02191420F511DE817F9
:10119000F907D1F7298930E0322F2227519541955F
:1011A00051098A89280F311D1E8E42175307B1F548
:1011B000ED85E9A38F8590E0982F88272889820FF5
:1011C000911D9BA38AA34E2F50E0FA01FA97E631B6
:1011D000F105B8F4EC5CFF4F0C94171485E00DC0DA
:1011E00081FF15C084E009C081FF11C082E005C005
:1011F00081FF0DC083E001C086E088A381E08CA35D
:1012000006C081E088A31BA21AA28CA31DA21CA168
:10121000112369F1888D882349F129C081E088A3D1
:101220001BA21AA222C09F5F9E8F67CF8DA1882329
:10123000A9F00E94AC05CA80DB80EC80FD80DC0157
:10124000CB018C199D09AE09BF09CE80DF80E884EF
:10125000F9848C159D05AE05BF0510F41CA107C0CF
:101260001E8E18A21BA21AA281E08CA31DA2812FA0
:10127000DF91CF911F910F91FF90EF90DF90CF9072
:1012800008950F931F93CF93DF93EC016F8B598FCA
:101290004A8F8C010C5E1F4FFC0175969C01255EE8
:1012A0003F4F80E090E04191840F911DE217F307DA
:1012B000D1F79195819591099B8F8C8F888D88238B
:1012C00039F08DA1882351F0CE010E947408F9CF26
:1012D0006AE070E080E090E00E9472058881998168
:1012E000DC01ED91FC910280F381E02D4AE050E0B9
:1012F000B80109950E94AC056A837B838C839D832A
:1013000081E0988D911101C080E08DA3DF91CF9194
:101310001F910F9108952091090230910A02281718
:10132000390771F4809107022091080290E0805CF7
:101330009F4F821B910960E470E00E94031408959E
:1013400080E090E008952091090230910A02281768
:101350003907B9F49091080280910702981789F033
:10136000E0910802F0E0E953FE4F808120910802ED
:1013700030E02F5F3F4F2F7333272093080290E018
:1013800008958FEF9FEF089529E131E0FC0131834B
:101390002083E0910902F0910A02E817F90759F455
:1013A000A389B4899C918589809589238C93109217
:1013B0000A0210920902089588E0809300010895BE
:1013C0000F931F93CF93DF93EC01162F042F1B82F3
:1013D0001A8288EE93E0A0E0B0E08C839D83AE8318
:1013E000BF8389E191E0998388831F8A1E8A198EC1
:1013F000188E1B8E1A8E1D8E1C8E6E8D6E7F20FB9E
:1014000061F96E8F6695617081E06827842F0E9474
:10141000EA0461E0802F0E943605402F50E0FA0177
:10142000EF52FD4FE491E88BFA01E354FD4FE49154
:10143000F0E0EE0FFF1FED54FD4F859194919A8BD4
:10144000898B60E0812F0E9436058E8D81FD04C05E
:1014500061E0812F0E94EA041C87612F70E0FB018C
:10146000EF52FD4FE491ED87FB01E354FD4FE49112
:10147000F0E0EE0FFF1FEA59FC4F859194919F8792
:101480008E87DF91CF911F910F9108951F920F9238
:101490000FB60F9211242F933F934F935F936F9347
:1014A0007F938F939F93AF93BF93EF93FF93E091BD
:1014B0000902F0910A02309709F451C0968DA68571
:1014C000B785858591FF04C09C91892329F447C085
:1014D0009C91892309F043C0A389B4899C91858993
:1014E000809589238C93868997890197F1F7608D80
:1014F000718DA685B785558538E020E0CB01019731
:10150000F1F7822F90E095958795282F4C914523F0
:1015100009F02068315091F7868D81FD20958091EA
:10152000070290E001968F739927309108023817CF
:1015300049F0A0910702B0E0A953BE4F2C938093CD
:10154000070203C0868D8160868F828D938D0197FF
:10155000F1F7A389B4899C918589892B8C93FF919C
:10156000EF91BF91AF919F918F917F916F915F911B
:101570004F913F912F910F900FBE0F901F90189594
:10158000CF93DF93FC01828D938D892B31F1A09154
:101590000902B0910A02AE17BF07F9F0109751F097
:1015A0005396CD91DC915497988155968C91809566
:1015B00089238883868D8E7F868F109207021092F2
:1015C0000802F0930A02E0930902A389B4899C916E
:1015D0008589892B8C9381E001C080E0DF91CF91D8
:1015E0000895CF938093BB018EE493E00E94580C42
:1015F0008091BB0190E00E941C0EC1E0C093BA0133
:1016000041E050E069E18FE493E00E944109C0931A
:10161000B80141E050E069E189E293E0CF910C9498
:1016200041098091B701811111C081E08093B70118
:101630008091BB01882319F042E050E002C041E0F4
:1016400050E068E089E293E00C94410908958091AC
:10165000B901811111C081E08093B9018091BB0172
:10166000882319F042E050E002C041E050E068E019
:101670008FE493E00C9441090895CF93DF93C22F38
:101680004130510521F042305105D9F0C7C0822FB9
:1016900081709091BB0198130E94F10AC3FF0DC0A5
:1016A0008091B901882309F4B9C01092B90140E0D2
:1016B00050E066E18FE493E0ADC0DF91CF910C94F0
:1016C000270B20FF0EC08091B701882361F0109294
:1016D000B70140E050E066E189E293E00E944109F1
:1016E00002C00E94110BC2FF64C085E493E00E9417
:1016F000580C0E949B06AC0160E070E02AE08AE191
:1017000092E00E94AA0D6CE571E08AE192E00E94ED
:10171000850D85E393E00E94580C87E890E00E94D5
:101720003A0E67E871E08AE192E00E94600E87E875
:1017300090E00E9493060E94490E81E293E00E948D
:10174000580C8DE890E00E943A0E67E871E08AE15B
:1017500092E00E94600E8DE890E00E9493060E9445
:10176000490E8DE093E00E94580C8EE890E00E94B4
:101770003A0E67E871E08AE192E00E94600E8EE81E
:1017800090E00E9493060E94490E89EF92E00E9429
:10179000580C8FE890E00E943A0E67E871E08AE109
:1017A00092E00E94600E8FE890E00E9493060E94F3
:1017B000490EC3FBDD27D0F9C3FF03C087E890E0E3
:1017C00002C08DE890E00E949306482F50E066E04A
:1017D0008FE493E00E944109DD2319F087E890E04F
:1017E00002C08EE890E00E949306482F50E066E029
:1017F00089E293E00E944109DD2319F087E890E037
:1018000002C08EE890E00E949306482F50E066E008
:1018100083E093E0DF91CF910C944109DF91CF9168
:101820000895CF93DF93EC0184EF91E0A0E0B0E066
:101830008E839F83A887B9878AE0EBE0F1E0DE0121
:10184000549601900D928A95E1F71E8E82E08F8F5B
:101850001CA21DA2DF91CF910895CF92DF92EF924B
:10186000FF920F931F93CF93DF936C017A018B014B
:10187000C0E0D0E0CE15DF0589F0D8016D918D0173
:10188000D601ED91FC910190F081E02DC601099502
:10189000892B11F47E0102C02196ECCFC701DF91A4
:1018A000CF911F910F91FF90EF90DF90CF9008950F
:1018B0000F931F93CF93DF938C01C0E0D0E0F8012A
:1018C000EC0FFD1F6491662371F0E0911A02F09114
:1018D0001B020190F081E02D8AE192E00995892BAD
:1018E00011F02196ECCFCE01DF91CF911F910F9196
:1018F0000895EAE1F2E0A089B18982E08C93A485A1
:10190000B5851C92A685B78580E18C93108EA4893D
:10191000B58986E08C93A289B3898C9180618C9380
:10192000A289B3898C9188608C93A289B3898C91A8
:1019300080688C930288F389E02D80818F7D80837D
:1019400008958230F8F4E82FF0E0EE0FFF1FEF5F0C
:10195000FE4F2AE533E031832083813041F08091CE
:1019600069008C7F682B60936900E89A08958091E4
:101970006900660F771F660F771F837F682B609360
:101980006900E99A08951F93CF93DF93EC0111E06A
:10199000188F798368838E819F81A885B985885443
:1019A000944FAF4FBF4F8E839F83A887B98740E086
:1019B00050E06CE0CE010E9441091DA3CE010E94BF
:1019C00074088823D9F38E819F81A885B985885BA7
:1019D0009B40A109B1098E839F83A887B98768ECD2
:1019E00070E080E090E00E9472051CA281E098A166
:1019F000943009F080E0DF91CF911F910895FC01B0
:101A0000138E128E118E108E178A168A8DE991E030
:101A1000958F848F8485863108F04DC02DEB30E0A2
:101A2000378B268B2BE931E0318F208F2CE231E090
:101A3000338F228F90916800883050F021E08E30F3
:101A400008F420E081E001C0880F2A95EAF701C080
:101A500084E0892B809368008485883038F08E304C
:101A600040F0863148F020E030E008C02DE630E05C
:101A700005C02BE630E002C02CE630E0348B238B2F
:101A8000883030F491E001C0990F8A95EAF70EC0D2
:101A9000282F30E08E3018F42850310902C02E5023
:101AA000310991E001C0990F2A95EAF7958B848D51
:101AB000958D0197F1F7CF010C94C00A8F929F92F8
:101AC000AF92BF92CF92DF92EF92FF926B017C01B7
:101AD0000E94AC054B015C01C60ED71EE81EF91E24
:101AE0000E94AC05681579058A059B0528F0C61685
:101AF000D706E806F906A0F7FF90EF90DF90CF90A9
:101B0000BF90AF909F908F9008956115710579F007
:101B1000FB0101900020E9F73197AF01461B570BFD
:101B2000DC01ED91FC910280F381E02D099480E0CD
:101B300090E00895CF93DF930E94580CEC016CE580
:101B400071E08AE192E00E94850D8C0F9D1FDF916C
:101B5000CF9108954F925F926F927F92EF92FF9292
:101B60000F931F93CF93DF93CDB7DEB7A1970FB637
:101B7000F894DEBF0FBECDBF7C01FA01CB0119A2E4
:101B8000223008F42AE08E010F5D1F4F422E512CA7
:101B9000612C712CBF01A30192010E94E113F90194
:101BA000CA01015011096A3014F4605D01C0695C1A
:101BB000D8016C93232B242B252B61F7B801C70187
:101BC0000E94850DA1960FB6F894DEBF0FBECDBF63
:101BD000DF91CF911F910F91FF90EF907F906F90C9
:101BE0005F904F900895CF92DF92EF92FF92CF9344
:101BF000DF936B017C01E0911A02F0911B020190CE
:101C0000F081E02D6DE28AE192E00995EC01442734
:101C10005527BA014C195D096E097F092AE08AE14E
:101C200092E00E94AA0D8C0F9D1FDF91CF91FF9033
:101C3000EF90DF90CF900895CF93DF93AC01990F91
:101C4000660B770B77FF05C0CB01BA010E94F30D3D
:101C500005C02AE08AE192E00E94AA0DEC016CE541
:101C600071E08AE192E00E94850D8C0F9D1FDF914B
:101C7000CF910895AC01990F660B770B77FF04C0E5
:101C8000CB01BA010C94F30D2AE08AE192E00C94A6
:101C9000AA0DCF93DF93482F50E060E070E02AE078
:101CA0008AE192E00E94AA0DEC016CE571E08AE104
:101CB00092E00E94850D8C0F9D1FDF91CF910895BA
:101CC0000C94850D789484B5826084BD84B5816060
:101CD00084BD85B5826085BD85B5816085BD8091F7
:101CE0006E00816080936E0010928100809181006F
:101CF0008260809381008091810081608093810067
:101D0000809180008160809380008091B100846028
:101D10008093B1008091B00081608093B000809189
:101D20007A00846080937A0080917A008260809348
:101D30007A0080917A00816080937A0080917A00A5
:101D4000806880937A001092C1001092FB0210927A
:101D5000FC021092FD021092FE021092B902109243
:101D6000BA021092BB021092BC0268EB7BE080E0EA
:101D700090E00E945E0D8AE192E09093FA028093D7
:101D8000F9020E94790C0E94AC056093B90270932D
:101D9000BA028093BB029093BC026DE471E0809123
:101DA000F9029091FA020E94600E6AE070E080E011
:101DB00090E00E945E0DC1E0C093CD0283EB93E002
:101DC0000E94FF0C84E993E00E94FF0C85E793E0FA
:101DD0000E94FF0C0E94790C6CE571E08AE192E0B0
:101DE0000E94850D80E592E00E949A0D8EE192E0BE
:101DF0000E949A0D83EB93E00E94C00A63EB73E0AC
:101E00008FE493E00E94C30C81110DC080E092E04A
:101E10000E949A0D82ED91E00E949A0D88EA91E06D
:101E20000E949A0DFFCF84E993E00E94C00A64E902
:101E300073E089E293E00E94C30C81110DC08AE82F
:101E400091E00E949A0D8CE591E00E949A0D82E348
:101E500091E00E949A0DFFCF85E793E00E94C00AAF
:101E600065E773E083E093E00E94C30C81110DC02D
:101E700084E191E00E949A0D86EE90E00E949A0D16
:101E80008CEB90E00E949A0DFFCF8DE990E00E94CC
:101E90009A0D4FE050E066E08FE493E00E94410924
:101EA0000E94270B4FE050E066E089E293E00E9439
:101EB00041090E94110B4FE050E066E083E093E09F
:101EC0000E9441098091BC01811110C0C093BC01E6
:101ED0008091BB01882319F042E050E002C041E04C
:101EE00050E068E083E093E00E9441091092B50160
:101EF00082E08093B60160E00E94360585E1EFE85C
:101F0000F1E0DF011D928A95E9F783E080938E016D
:101F100082E990E090938D0180938C0182E590E0BE
:101F200090938B0180938A0163E070E08091B5010A
:101F30000E94A10C81E08093A4011092A5018DE183
:101F400090E00E949306682F61608DE190E00E940E
:101F50006F0664E687E090E00E946F066DE088E01F
:101F600090E00E946F0680E00E94500660E273E0FD
:101F700080E090E00E94720584E990E00E94580C95
:101F80000E949B06AC0160E070E02AE08AE192E0EA
:101F90000E94AA0D6CE571E08AE192E00E94850D35
:101FA000B4EF4B2E55245394612C712CC8E03C2E79
:101FB000D0E0AD2ED0E0BD2E10E0812E10E0912EAD
:101FC0000E94AC05672B682B692B41F40E94AC057D
:101FD000623071058105910508F40EC10E94AC05BF
:101FE0006093C3017093C4018093C5019093C601AF
:101FF0000091BF011091C0012091C1013091C20137
:10200000601771078207930740F46093BF017093D4
:10201000C0018093C1019093C2010091BF01109152
:10202000C0012091C1013091C2016B017C01C01A35
:10203000D10AE20AF30A970186010A3F1105210538
:10204000310508F4D9C06093BF017093C00180933B
:10205000C1019093C2014092C5025092C6026092A3
:10206000C7027092C8021092C9021092CA0210925E
:10207000CB021092CC028091BD029091BE02A09141
:10208000BF02B091C0028093C1029093C202A0939C
:10209000C302B093C4020E94AC056093BD0270936A
:1020A000BE028093BF029093C0020E94AC05609371
:1020B000B9027093BA028093BB029093BC020E9453
:1020C000AC056B017C016FE571E08091F9029091A4
:1020D000FA020E94600E2AE041E050E060E070E009
:1020E0008091F9029091FA020E94AA0D66E671E0D1
:1020F0008091F9029091FA020E94600E2AE0B701E5
:10210000A6018091F9029091FA020E94AA0D68E658
:1021100071E08091F9029091FA020E94600E809124
:10212000BD029091BE02A091BF02B091C002B70162
:10213000A601481B590B6A0B7B0B2AE08091F90220
:102140009091FA020E94AA0D68E671E08091F9026E
:102150009091FA020E94600E4091BD025091BE0221
:102160006091BF027091C0028091C1029091C20241
:10217000A091C302B091C402481B590B6A0B7B0BA0
:102180002AE08091F9029091FA020E94AA0D6AE673
:1021900071E08091F9029091FA020E94600E4091E4
:1021A000FF025091000360910103709102032AE045
:1021B0008091F9029091FA020E94AA0DC091F90251
:1021C000D091FA026CE671E0CE010E94850D6CE5BB
:1021D00071E0CE010E94850D62E070E080E090E049
:1021E0000E945E0D0E94AC056093BD027093BE021A
:1021F0008093BF029093C0028091A6018823B9F01A
:102200000E94AC050091A7011091A8012091A9019D
:102210003091AA01DC01CB01801B910BA20BB30B07
:102220004597A105B10518F080E00E945006809105
:102230009101882309F42BC1F894ECE9F1E0A4EDB5
:10224000B3E0832D01900D928A95E1F710929101F0
:10225000789490919C01EEE9F1E080E02E2FAEE9B8
:10226000EA2EA1E0FA2E2E19291718F421918227BF
:10227000F5CF81110CC140E050E0452B21F084EDF9
:1022800093E00E9400008091D60381111FC09091BD
:10229000D70391111BC08114910411F00E9400001A
:1022A0008091A601882371F051E05093A6010E940D
:1022B000AC056093A7017093A8018093A901909346
:1022C000AA01E5C081E00E945006E1C09091A601FC
:1022D000992309F48AC08057803108F083C081E0D7
:1022E0008093A6010E94AC056093A7017093A8019A
:1022F0008093A9019093AA0148E050E06DEA71E053
:1023000084ED93E00E946315892B61F01092AC017B
:10231000E4EDF3E0ADEAB1E0832D01900D928A95F2
:10232000E1F7B5C08091AC018F5F8093AC018091E3
:10233000D403833009F041C08091D603982F977061
:102340001091D703953049F41093AB01A114B10457
:1023500009F49DC00E9400009AC0943089F0C92FF2
:10236000D0E0943058F49091AB01992339F0A4E077
:102370009A9FC00DD11D1124239704C0219602C03D
:10238000CDE1D0E083FF0CC061E0CE010E94CC061D
:10239000882309F47CC0612FCE010E946F060AC019
:1023A00060E0CE010E94CC06882309F470C0CE0103
:1023B0000E94930681136BC0C9CF843009F067C0B7
:1023C0008091D603682F637070E0762F6627909116
:1023D000D703692B6F5F7F4F4091D8038C700E94A9
:1023E000F70655C080E00E9450068091D6038F3FCB
:1023F00071F48091D70381114AC070E0C72E70E05C
:10240000D72ECD2809F443C00E94000040C087FDAC
:102410000AC00091D9032091D8034091D70360E00E
:1024200070E090E032C0803CF0F49091A40197FFFE
:102430002EC0C091D703D0E0C095D095C077DD27DE
:10244000CC0FDD1FCC0FDD1F8F73C82B90FFDBC0BF
:102450000E949B06C817D90709F4D5C0CF3F21E0D9
:10246000D207A9F4D0C0883E90F490E0805C910936
:10247000982F88273091D7030091DA032091D90350
:102480004091D80361E070E0832B0E9466070E94B0
:10249000AC050091FF0210910003209101033091DF
:1024A0000203DC01CB01801B910BA20BB30B81312A
:1024B0009742A105B105F0F00E94AC056093FF02C0
:1024C00070930003809301039093020363E771E02C
:1024D0008AE192E00E94600E8091BB0141E0842776
:1024E00090E00E941C0E9091BB0181E08927981317
:1024F0000E94F10A8091BD019091BE01892BC1F526
:102500008FE493E00E947408882371F110927303A2
:1025100080916F038530F9F481EA92E00E94580CB3
:1025200010927303409171035091720360E070E068
:102530002AE08AE192E00E94AA0D86E892E00E94D9
:102540009A0D8091BA01882331F01092BA0110924D
:10255000B9010E94270B8091BD019091BE010196A7
:102560009093BE018093BD0184E993E00E94C00A6C
:102570008091BD019091BE010197C1F589E293E080
:102580000E947408882371F110924D0380914903D1
:102590008530F9F48EE792E00E94580C10924D03BA
:1025A00040914B0350914C0360E070E02AE08AE1D7
:1025B00092E00E94AA0D83E692E00E949A0D80911B
:1025C000B801882331F01092B8011092B7010E942F
:1025D000110B8091BD019091BE0101969093BE01B7
:1025E0008093BD0183EB93E00E94C00A8091BD01FE
:1025F0009091BE01029724F01092BE011092BD018D
:102600000E94BB02DDCC8091D703482F4770C42EB7
:10261000D12CD594C7948E0101501109000F111FC0
:10262000000F111F0C291D290F5F1F4F87FF27C0A7
:10263000582F5170252E282F287083FBFF24F0F887
:1026400080E090E0892B21F0BE01C8010E940000CB
:10265000A0E0B0E0AB2B31F02F2D422D6C2DCE0140
:102660000E94000050E0C52E50E0D52ECD2809F480
:102670000ECF4F2D622DC8010E94000008CF40E010
:10268000E42E40E0F42EEF2809F401CF4091D80366
:102690006C2DC8010E940000FACE85E793E00E94ED
:1026A000C40984E993E00E94C40983EB93E00C948D
:1026B000C409EAE1F2E01382128288EE93E0A0E01E
:1026C000B0E084839583A683B78389E291E0918308
:1026D000808385EC90E09587848784EC90E09787F1
:1026E000868780EC90E0918B808B81EC90E0938BDF
:1026F000828B82EC90E0958B848B86EC90E0978BBC
:10270000868B118E128E138E148EE7EBF2E01682FA
:1027100017821086118612861386148615861686F1
:102720001786108A118A128A138A148A158A8AEAED
:1027300090E00E9431149093D3038093D20320E061
:102740004BE06AE083EB93E00E94E00920E048E080
:1027500069E084E993E00E94E00920E04DE06CE04C
:1027600085E793E00E94E0098FE493E00E94110C5A
:1027700089E293E00E94110C83E093E00E94110C27
:102780000E94AC056093FF027093000380930103E5
:10279000909302030895F999FECF92BD81BDF89AF6
:1027A000992780B50895262FF999FECF1FBA92BDBB
:1027B00081BD20BD0FB6F894FA9AF99A0FBE019622
:1027C0000895A1E21A2EAA1BBB1BFD010DC0AA1F72
:1027D000BB1FEE1FFF1FA217B307E407F50720F08A
:1027E000A21BB30BE40BF50B661F771F881F991F05
:1027F0001A9469F760957095809590959B01AC014E
:10280000BD01CF01089597FB072E16F4009407D061
:1028100077FD09D00E941D1407FC05D03EF4909569
:1028200081959F4F0895709561957F4F0895EE0FA4
:10283000FF1F0590F491E02D0994AA1BBB1B51E1E9
:1028400007C0AA1FBB1FA617B70710F0A61BB70B20
:10285000881F991F5A95A9F780959095BC01CD01C5
:102860000895CF93DF938230910510F482E090E0D9
:10287000E091DE03F091DF0320E030E0C0E0D0E043
:10288000309711F14081518148175907C0F048171E
:10289000590761F482819381209719F09B838A8381
:1028A0002BC09093DF038093DE0326C021153105F2
:1028B00019F04217530718F49A01BE01DF01EF0126
:1028C0000280F381E02DDCCF2115310509F1281BB1
:1028D000390B2430310590F412968D919C91139709
:1028E0006115710521F0FB019383828304C09093ED
:1028F000DF038093DE03FD01329644C0FD01E20F49
:10290000F31F81939193225031092D933C933AC048
:102910002091DC033091DD03232B41F4209107014A
:10292000309108013093DD032093DC0320910501F1
:10293000309106012115310541F42DB73EB7409184
:10294000090150910A01241B350BE091DC03F09141
:10295000DD03E217F307A0F42E1B3F0B28173907FE
:1029600078F0AC014E5F5F4F2417350748F04E0FEB
:102970005F1F5093DD034093DC038193919302C06A
:10298000E0E0F0E0CF01DF91CF9108950F931F9326
:10299000CF93DF93009709F48CC0FC013297138228
:1029A00012820091DE031091DF030115110581F4FD
:1029B00020813181820F931F2091DC033091DD0350
:1029C0002817390779F5F093DD03E093DC0371C034
:1029D000D80140E050E0AE17BF0750F412962D9199
:1029E0003C911397AD012115310509F1D901F3CFC0
:1029F0009D01DA013383228360817181860F971FE5
:102A00008217930769F4EC0128813981260F371F5B
:102A10002E5F3F4F318320838A819B819383828302
:102A2000452B29F4F093DF03E093DE0342C01396B5
:102A3000FC93EE931297ED01499159919E01240F59
:102A4000351FE217F30771F480819181840F951F80
:102A5000029611969C938E938281938113969C93F8
:102A60008E931297E0E0F0E0D80112968D919C9140
:102A70001397009719F0F8018C01F6CF8D919C9176
:102A800098012E5F3F4F820F931F2091DC033091FE
:102A9000DD032817390769F4309729F41092DF0312
:102AA0001092DE0302C0138212821093DD030093A2
:102AB000DC03DF91CF911F910F91089581E090E0A9
:102AC000F8940C947015FB01DC0104C08D91019009
:102AD000801921F441505040C8F7881B990B089584
:102AE00011E0C9EBD1E004C0FE010E941714219649
:0A2AF000CA3BD107C9F7F894FFCFE5
:102AFA0096EA02EA020000E00380007EFF06000177
:102B0A0000000000EF0000000004032D0C8B09A355
:102B1A0009EB02030300000000EE012D0CAF028D49
:102B2A0002A102C8040000000058032D0C580358E3
:102B3A0003580358030000000058032D0C564D4457
:102B4A0050565F317C315F564D4450560D0A00563F
:102B5A004D4450455F003A323A007C005F564D447E
:102B6A0050450073657474696E672069734E6967AE
:0A2B7A00687420746F3A003D0000FB
:00000001FF
