:100000000C943F010C948A090C9463090C94BF046E
:100010000C94BF040C94BF040C9467010C9467010A
:100020000C9467010C9467010C9467010C946701B0
:100030000C9467010C9467010C9467010C946701A0
:100040000C9419090C9467010C9440080C941A083C
:100050000C9467010C9467010C9467010C94670180
:100060000C9467010C94670128042C0432042204C8
:100070003204240430043A043204320432043204D8
:1000800032043204320432043504320432043204BD
:10009000320432044368616E6765206E6967687474
:1000A00020737461746520746F3A20004368616E38
:1000B00067652043562000506C61796572203320BB
:1000C000757365207472616E736974696F6E204315
:1000D000562000506C61796572203220757365205E
:1000E0007472616E736974696F6E2043562000509C
:1000F0006C61796572203120757365207472616E50
:10010000736974696F6E2043562000416C6C2070D7
:100110006C617965727320757365207472616E739A
:100120006974696F6E20435620005472616E736962
:1001300074696F6E206475726174696F6E204356C6
:1001400020004175746F207472616E736974696FF9
:100150006E2043562000506C617965722033205622
:100160006F6C756D652043562000506C6179657227
:10017000203220566F6C756D652043562000506C00
:1001800061796572203120566F6C756D652043561C
:1001900020004D75746520566F6C756D6520435653
:1001A0002000416464726573733D00000000002309
:1001B000002600290000000000240027002A00007B
:1001C000000000250028002B00040404040404049B
:1001D00004020202020202030303030303010204F6
:1001E00008102040800102040810200102040810B9
:1001F00020000000080002010000030407000000C6
:100200000000000000416C6C204446506C61796530
:100210007273204D696E6920617265206F6E6C6922
:100220006E652E00496E697469616C697A696E67E2
:10023000204446506C6179657273202E2E2E202842
:100240004D61792074616B6520337E352073656361
:100250006F6E647329006463635F617564696F5FC7
:1002600033706C6179657273004164647265737395
:100270003D0052657365742043562000CB13112452
:100280001FBECFEFD8E0DEBFCDBF24E0A8EEB1E0C7
:1002900001C01D92A230B207E1F711E0A0E0B1E089
:1002A000EAEAFBE202C005900D92A83EB107D9F739
:1002B00011E0CFE3D1E004C02197FE010E947A143F
:1002C000CE33D107C9F70E94F30E0C94D3150C94CA
:1002D00000008FE080930001089520912B0230915F
:1002E0002C022817390771F490912A028091290273
:1002F000981741F0E0912A02F0E0E751FE4F80812B
:1003000090E008958FEF9FEF089508951F93CF9386
:10031000DF93DC015C962D913C915D9721153105B1
:1003200039F481E090E013969C938E9312973DC030
:100330005196ED91FC91529750969C915097892F30
:1003400080951FB75E964C915E9741FB772770F9B9
:1003500041FD6095F8944081772311F0492B01C04D
:1003600048234083E9012197F1F748E0508160FF7D
:1003700002C0592B01C058235083E9012197F1F79E
:100380006695415099F7772321F0908189238083E6
:1003900003C08081982B90831FBF5C968D919C91A8
:1003A0005D970197F1F721E030E0C901DF91CF912E
:1003B0001F91089520912B0230912C0228173907A4
:1003C00071F48091290220912A0290E0805C9F4F75
:1003D000821B910960E470E00E946614089580E039
:1003E00090E0089520912B0230912C0228173907B4
:1003F000B9F490912A0280912902981789F0E0912E
:100400002A02F0E0E751FE4F808120912A0230E07D
:100410002F5F3F4F2F73332720932A0290E00895D8
:100420008FEF9FEF089580913202811148C10E94A1
:10043000AE082091300230913102DB01A21BB30BD8
:1004400020913C0230913D02A217B30708F437C156
:1004500021E0E0913E02F0913F02AE17BF0708F0A5
:1004600020E0709331026093300261E060933202C9
:10047000789440914102509142024130510599F1E6
:100480001CF4452B51F019C14230510509F4B1C09B
:100490004330510509F4E4C010C1222309F4CCC053
:1004A000809144028F5F809344028B3008F405C131
:1004B00081E090E0909342028093410261E070E01D
:1004C000809167020E94F40D10922F0282E590E065
:1004D00090933F0280933E0283E290E090933D022E
:1004E00080933C02EAC030912F02313079F028F03D
:1004F000333069F13430C1F1E0C0222329F0609338
:100500002F02A0932E02D9C084E01EC02223D9F06E
:1005100010922F02A0932D02909144029F5F90931E
:1005200044028A2FAA0F990B20912E02821B910957
:1005300027FD939597FF03C0919581959109439766
:100540000CF4BBC013C083E080932F02B6C021110E
:100550000DC080914002833021F482E080934002FC
:1005600018C03093400215C0222399F01092420225
:100570001092410282E990E090933F0280933E0204
:1005800082E590E090933D0280933C0210924402F9
:1005900028C082E090E0909342028093410282E979
:1005A00090E090933F0280933E0282E590E090932A
:1005B0003D0280933C021092460210924802109233
:1005C000490210924A0210924B0210924C02109271
:1005D0004D0280914402809347021092440210928F
:1005E00045026091400270E0809167020E94F40D24
:1005F00064C0909144029F5F9093440280914502B1
:10060000880F2111816080934502983009F055C010
:10061000E0914602E63099F41092420210924102B3
:1006200082E990E090933F0280933E0282E590E061
:1006300090933D0280933C02109244023EC083E0BE
:1006400090E0909342028093410281E08E0F80936C
:100650004602F0E0EF5BFD4F8091450287832DC09D
:10066000809144028F5F809344022223E1F0109234
:1006700042021092410282E990E090933F028093FF
:100680003E0282E590E090933D0280933C0288E038
:10069000E6E4F2E0AEE4B2E001900D928A95E1F773
:1006A0006093430206C082E090E090934202809300
:1006B00041021092440210924502109232020895B3
:1006C0001F93CF93DF93EC01162F8CEA90E00E94EA
:1006D000AB0DAE0160E070E02AE082E792E00E949C
:1006E0003B0E6AE771E082E792E00E94F10E812FF3
:1006F000DF91CF911F910C94DA0E8830910559F457
:100700006623F9F02FE02093000120E030E0232B56
:1007100079F00C94000020E030E0232BD1F741E089
:10072000811524E0920708F040E0662379F001C0CB
:1007300041E09C01275031092230310538F440E076
:1007400005C020E030E0232B21F741E0842F0895FD
:10075000CF92DF92EF92FF920F931F93CF93DF938D
:10076000EC0188819981DC01ED91FC910480F58197
:10077000E02D0995892B09F48DC00E8D8881998112
:10078000DC01ED91FC910680F781E02D011109C09B
:1007900009958A878E3729F71CA28E8D8F5F8E8FE1
:1007A000E0CF0995FE01E00FF11D82879E8D92300A
:1007B00079F0993091F0913009F069C08B858F3FC5
:1007C00009F465C01E8E98A31BA21AA29CA382C026
:1007D0008C85863009F45BC003C08B898F3E11F095
:1007E0001E8E50C0FE013B96CE01419640E050E087
:1007F0002191420F511DE817F907D1F7298930E0FF
:10080000322F22275195419551098A89280F311D90
:100810001E8E42175307B1F5ED85E9A38F8590E051
:10082000982F88272889820F911D9BA38AA34E2F7A
:1008300050E0FA01FA97E631F105B8F4EC5CFF4FAD
:100840000C947A1485E00DC081FF15C084E009C0C6
:1008500081FF11C082E005C081FF0DC083E001C0AF
:1008600086E088A381E08CA306C081E088A31BA258
:100870001AA28CA31DA21CA1112369F1888D8823C3
:1008800049F129C081E088A31BA21AA222C09F5F60
:100890009E8F67CF8DA18823A9F00E940D09CA8081
:1008A000DB80EC80FD80DC01CB018C199D09AE0959
:1008B000BF09CE80DF80E884F9848C159D05AE05E4
:1008C000BF0510F41CA107C01E8E18A21BA21AA2FD
:1008D00081E08CA31DA2812FDF91CF911F910F91F9
:1008E000FF90EF90DF90CF9008950F931F93CF93D9
:1008F000DF93EC016F8B598F4A8F8C010C5E1F4F79
:10090000FC0175969C01255E3F4F80E090E041918F
:10091000840F911DE217F307D1F791958195910905
:100920009B8F8C8F888D882339F08DA1882351F07F
:10093000CE010E94A803F9CF6AE070E080E090E069
:100940000E94D30888819981DC01ED91FC9102809D
:10095000F381E02D4AE050E0B80109950E940D09AD
:100960006A837B838C839D8381E0988D911101C084
:1009700080E08DA3DF91CF911F910F9108951F9279
:100980000F920FB60F9211242F933F934F935F93C3
:100990006F937F938F939F93AF93BF93EF93FF9347
:1009A000E0912B02F0912C02309709F451C0968D02
:1009B000A685B785858591FF04C09C91892329F47C
:1009C00047C09C91892309F043C0A389B4899C91B5
:1009D0008589809589238C93868997890197F1F77A
:1009E000608D718DA685B785558538E020E0CB01F7
:1009F0000197F1F7822F90E095958795282F4C91DC
:100A0000452309F02068315091F7868D81FD2095AE
:100A10008091290290E001968F73992730912A02E4
:100A2000381749F0A0912902B0E0A751BE4F2C938E
:100A30008093290203C0868D8160868F828D938D7D
:100A40000197F1F7A389B4899C918589892B8C93AF
:100A5000FF91EF91BF91AF919F918F917F916F9196
:100A60005F914F913F912F910F900FBE0F901F906C
:100A70001895CF93DF93FC01828D938D892B31F1F3
:100A8000A0912B02B0912C02AE17BF07F9F010977E
:100A900051F05396CD91DC915497988155968C9155
:100AA000809589238883868D8E7F868F1092290278
:100AB00010922A02F0932C02E0932B02A389B489AE
:100AC0009C918589892B8C9381E001C080E0DF9126
:100AD000CF910895909169029817A9F180936902C6
:100AE00084E990E00E94AB0D8091690290E00E9441
:100AF000AD0E86E990E00E94CA0B882321F187E9B8
:100B000090E00E94CA0B882331F06091690281EC69
:100B100093E00E94080A88E990E00E94CA0B8823AB
:100B200031F0609169028EE893E00E94080A89E939
:100B300090E00E94CA0B882331F0609169028BE536
:100B400093E00C94080A0895CF93DF93C22F4130AD
:100B5000510521F04230510589F03FC1822F81704B
:100B60000E946A0581EC93E0C3FF04C0DF91CF913E
:100B70000C94B109DF91CF910C94BD098EE893E0FC
:100B800020FF03C00E94B10902C00E94BD098BE58D
:100B900093E0C1FF03C00E94B10902C00E94BD09D9
:100BA000C2FFE4C08091E8018111E2C081E080933E
:100BB000E80182EA91E00E94AB0D0E94410CAC0179
:100BC00060E070E02AE082E792E00E943B0E6CEA6F
:100BD00071E082E792E00E94160E82E991E00E94A5
:100BE000AB0D87E890E00E94CB0E6AE771E082E7E8
:100BF00092E00E94F10E87E890E00E94CA0B0E94EA
:100C0000DA0E8EE791E00E94AB0D8DE890E00E9435
:100C1000CB0E6AE771E082E792E00E94F10E8DE868
:100C200090E00E94CA0B0E94DA0E8AE691E00E94D0
:100C3000AB0D8EE890E00E94CB0E6AE771E082E790
:100C400092E00E94F10E8EE890E00E94CA0B0E9492
:100C5000DA0E86E591E00E94AB0D8FE890E00E94ED
:100C6000CB0E6AE771E082E792E00E94F10E8FE816
:100C700090E00E94CA0B0E94DA0E82E491E00E948A
:100C8000AB0D81E990E00E94CB0E6AE771E082E74C
:100C900092E00E94F10E81E990E00E94CA0B0E944E
:100CA000DA0E8AE291E00E94AB0D82E990E00E94A8
:100CB000CB0E6AE771E082E792E00E94F10E82E9D2
:100CC00090E00E94CA0B0E94DA0E8BE091E00E9435
:100CD000AB0D86E990E00E94CB0E6AE771E082E7F7
:100CE00092E00E94F10E86E990E00E94CA0B0E94F9
:100CF000DA0E8FEE90E00E94AB0D87E990E00E9443
:100D0000CB0E6AE771E082E792E00E94F10E87E97C
:100D100090E00E94CA0B0E94DA0E83ED90E00E94E0
:100D2000AB0D88E990E00E94CB0E6AE771E082E7A4
:100D300092E00E94F10E88E990E00E94CA0B0E94A6
:100D4000DA0E87EB90E00E94AB0D89E990E00E94FB
:100D5000CB0E6AE771E082E792E00E94F10E89E92A
:100D600090E00E94CA0B0E94DA0E02C01092E801C5
:100D7000C3FBDD27D0F9C3FF03C087E890E002C0C2
:100D80008DE890E00E94CA0B482F50E066E083ECAB
:100D900093E00E947504DD2319F087E890E002C01B
:100DA0008EE890E00E94CA0B482F50E066E080E990
:100DB00093E00E947504DD2319F087E890E002C0FB
:100DC0008EE890E00E94CA0B482F50E066E08DE567
:100DD00093E0DF91CF910C947504DF91CF9108954A
:100DE000FC01918D828D981761F0828DDF01A80F33
:100DF000B11D5D968C91928D9F5F9F73928F90E055
:100E000008958FEF9FEF0895FC01918D828D9817C3
:100E100031F0828DE80FF11D858D90E008958FEF00
:100E20009FEF0895FC01918D228D892F90E0805CC9
:100E30009F4F821B91098F739927089582E792E053
:100E40000E94120721E0892B09F420E0822F0895E7
:100E5000FC01848DDF01A80FB11DA35ABF4F2C9157
:100E6000848D90E001968F739927848FA689B78926
:100E70002C93A089B1898C9180648C93938D848DFF
:100E8000981306C00288F389E02D80818F7D8083CE
:100E90000895EF92FF920F931F93CF93DF93EC018E
:100EA00081E0888F9B8D8C8D981305C0E889F98926
:100EB000808185FD24C0F62E0B8D10E00F5F1F4F43
:100EC0000F731127E02E8C8DE8120CC00FB607FCB3
:100ED000FACFE889F989808185FFF5CFCE010E949C
:100EE0002807F1CF8B8DFE01E80FF11DE35AFF4F6C
:100EF000F0820B8FEA89FB898081806207C0EE89CE
:100F0000FF896083E889F98980818064808381E03A
:100F100090E0DF91CF911F910F91FF90EF90089596
:100F2000CF93DF93EC01888D8823C9F0EA89FB8990
:100F3000808185FD05C0A889B9898C9186FD0FC087
:100F40000FB607FCF5CF808185FFF2CFA889B9895C
:100F50008C9185FFEDCFCE010E942807E7CFDF916E
:100F6000CF91089580E090E0892B29F00E941E0720
:100F700081110C940000089590E0FC01EF50FE4FA9
:100F80003491FC01E352FE4F2491FC01E753FE4FE4
:100F9000E491EE2309F43BC0332339F1333091F06F
:100FA00038F43130A9F0323001F584B58F7D12C0AC
:100FB000373091F03830A1F03430B9F480918000AE
:100FC0008F7D03C0809180008F77809380000DC05B
:100FD00084B58F7784BD09C08091B0008F7703C03E
:100FE0008091B0008F7D8093B000F0E0EE0FFF1F86
:100FF000E154FE4FA591B4918FB7F894EC91611133
:1010000003C020952E2301C02E2B2C938FBF089553
:1010100008950E94C11521E0FC0120A721A5029698
:10102000222319F043E050E002C041E050E068E0C4
:101030000C9475041F920F920FB60F9211242F93E8
:101040003F934F935F936F937F938F939F93AF9350
:10105000BF93EF93FF9382E792E00E942807FF91EE
:10106000EF91BF91AF919F918F917F916F915F9120
:101070004F913F912F910F900FBE0F901F90189599
:101080001F920F920FB60F9211242F938F939F935D
:10109000EF93FF93E0918202F09183028081E091CF
:1010A0008802F091890282FD12C0908180918B02AA
:1010B0008F5F8F7320918C02821751F0E0918B0229
:1010C000F0E0EE58FD4F958F80938B0201C0808138
:1010D000FF91EF919F918F912F910F900FBE0F90E5
:1010E0001F901895CF93DF9390E0FC01E352FE4FE1
:1010F0002491FC01E753FE4F8491882361F190E035
:10110000880F991FFC01EB54FE4FC591D491FC014F
:10111000E154FE4FA591B491611109C09FB7F894B5
:101120008881209582238883EC912E230BC0623026
:1011300061F49FB7F8943881822F80958323888348
:10114000EC912E2B2C939FBF06C08FB7F894E881AB
:101150002E2B28838FBFDF91CF9108953FB7F8944E
:101160008091380290913902A0913A02B0913B02ED
:1011700026B5A89B05C02F3F19F00196A11DB11DF2
:101180003FBFBA2FA92F982F8827820F911DA11D2D
:10119000B11DBC01CD0142E0660F771F881F991F6A
:1011A0004A95D1F708958F929F92AF92BF92CF92B6
:1011B000DF92EF92FF926B017C010E94AE084B011F
:1011C0005C01C114D104E104F104F1F00E94AE0805
:1011D000DC01CB0188199909AA09BB09883E934013
:1011E000A105B10570F321E0C21AD108E108F108A8
:1011F00088EE880E83E0981EA11CB11CC114D10496
:10120000E104F10419F7DDCFFF90EF90DF90CF906C
:10121000BF90AF909F908F9008952FB7F8946091F2
:1012200034027091350280913602909137022FBFBF
:1012300008951F920F920FB60F9211242F933F9390
:101240008F939F93AF93BF93809134029091350217
:10125000A0913602B09137023091330223E0230F80
:101260002D3720F40196A11DB11D05C026E8230FDE
:101270000296A11DB11D20933302809334029093F6
:101280003502A0933602B0933702809138029091D4
:101290003902A0913A02B0913B020196A11DB11D05
:1012A0008093380290933902A0933A02B0933B02A4
:1012B000BF91AF919F918F913F912F910F900FBE52
:1012C0000F901F9018951F920F920FB60F92112436
:1012D0002F933F934F935F936F937F938F939F933E
:1012E000AF93BF93EF93FF93E0910301F09104015B
:1012F0000995FF91EF91BF91AF919F918F917F9150
:101300006F915F914F913F912F910F900FBE0F9072
:101310001F9018951F920F920FB60F9211242F93C2
:101320003F934F935F936F937F938F939F93AF936D
:10133000BF93EF93FF93E0910101F09102010995B2
:10134000FF91EF91BF91AF919F918F917F916F919D
:101350005F914F913F912F910F900FBE0F901F9073
:101360001895FC0120A5222339F010A640E050E09A
:1013700066E102960C9475040895FC0120A52111E4
:1013800002C00C940B0808950F931F93CF93DF9323
:10139000FC0122A52223B9F1EC010E940D090BA545
:1013A0001CA52DA53EA5DC01CB01801B910BA20B3A
:1013B000B30B0FA518A929A93AA9081719072A07D5
:1013C0003B0708F51AA66CE771E082E792E00E94FD
:1013D000F10E99A581E0892790E00E94AD0EFE01F3
:1013E000819191918F010E94390541E050E069E1BE
:1013F000C8010E94750418A6CE01DF91CF911F91FC
:101400000F910C940B08DF91CF911F910F910895CC
:101410000F931F93CF93DF93EC0169A7FC01819198
:1014200091918F010E94390541E050E069E1C801C6
:101430000E94750418A60E940D096BA77CA78DA7B2
:101440009EA781E08AA798A5911111C088A789A5B8
:10145000882319F042E050E002C044E050E068E028
:10146000C801DF91CF911F910F910C947504DF910A
:10147000CF911F910F910895FF920F931F93CF93D8
:10148000DF93EC0128EE33E0629FC001639F900D73
:101490001124092E000CAA0BBB0B8FA798ABA9AB8C
:1014A000BAABE881F981138E128E118E108E178AD5
:1014B000168A8DE991E0958F848F8485863108F0B6
:1014C0004DC02DEB30E0378B268B2BE931E0318F8F
:1014D000208F2CE231E0338F228F9091680088308A
:1014E00050F021E08E3008F420E081E001C0880F48
:1014F0002A95EAF701C084E0892B809368008485EF
:10150000883038F08E3040F0863148F020E030E00E
:1015100008C02DE630E005C02BE630E002C02CE626
:1015200030E0348B238B883030F491E001C0990F88
:101530008A95EAF70EC0282F30E08E3018F4285034
:10154000310902C02E50310991E001C0990F2A954E
:10155000EAF7958B848D958D0197F1F7CF010E9465
:101560003905888199810E943905FE018191919107
:101570008F01FF24F394FA8E9B838A838885998553
:10158000AA85BB858854944FAF4FBF4F88879987F2
:10159000AA87BB8740E050E06CE0CF010E94750451
:1015A000FFA2C8010E94A8038823D9F388859985E2
:1015B000AA85BB85885B9B40A109B109888799876B
:1015C000AA87BB8768EC70E080E090E00E94D308B7
:1015D0001EA28AA1843009F0FFCFDF91CF911F9125
:1015E0000F91FF900895EF92FF920F931F93CF9367
:1015F000DF938C01F62EE42E84EF91E0A0E0B0E0C2
:10160000F80180879187A287B3878AE0EBE0F1E059
:10161000D801569601900D928A95E1F7F80110A233
:1016200082E081A316A217A210A611A612A613A6E5
:1016300014A615A616A680E197E2A0E0B0E087A761
:1016400090ABA1ABB2AB8FE190E00E949414EC019F
:101650001B821A8288EE93E0A0E0B0E08C839D8329
:10166000AE83BF8389E191E0998388831F8A1E8AB4
:10167000198E188E1B8E1A8E1D8E1C8E6E8D6E7F8F
:101680006D7F6E8F6695617081E068278E2D0E9458
:10169000BC0761E08E2D0E9472084E2D50E0FA01C9
:1016A000E352FE4FE491E88BFA01E753FE4FE491D9
:1016B000F0E0EE0FFF1FE154FE4F859194919A8B5D
:1016C000898B60E08F2D0E9472088E8D81FD04C091
:1016D00061E08F2D0E94BC07FC866F2D70E0FB013E
:1016E000E352FE4FE491ED87FB01E753FE4FE49197
:1016F000F0E0EE0FFF1FE555FE4F859194919F8717
:101700008E87F801D183C083DF91CF911F910F9114
:10171000FF90EF90089580935802882319F00E945B
:101720000D0903C060E070E0CB0160935902709333
:101730005A0280935B0290935C0281E080935D0289
:1017400010925E0288E0EFE5F2E0DF011D928A95DB
:10175000E9F708951F93CF93DF9320E030E0232B28
:1017600029F0DF91CF911F910C940000162FEC010E
:101770000E942E14811741F0612FCE010E94361471
:10178000612FCE010E946003CE01DF91CF911F91A6
:101790000C942E1420E030E0232B11F00C94000068
:1017A0000C942E14DF92EF92FF920F931F93CF931E
:1017B000DF938B01E42E82FF27C083FF1BC061E013
:1017C000C8010E947D03882309F453C06E2DC8010F
:1017D0000E94AA0B8E114DC080E090E0892B09F485
:1017E00048C0DF91CF911F910F91FF90EF90DF9054
:1017F0000C94000060E0C8010E947D038823C9F1B9
:10180000C8010E94CA0BE6CF842F8770C1E0D0E0E8
:1018100001C0CC0F8A95EAF7842F8870D82ECB01AF
:101820000E94CA0BF82EE4FE15C061E0C8010E94B8
:101830007D038823F1F0DD2011F0CF2904C09C2F17
:101840009095CF2DC9236C2FC8010E94AA0B8C1331
:1018500010C0C2CF60E0C8010E947D03882349F018
:10186000CF21DD2019F0CC2321F0B6CFCC2309F411
:10187000B3CFDF91CF911F910F91FF90EF90DF9049
:101880000895CF938DE190E00E94CA0B87FF0EC0B0
:1018900089E090E00E94CA0BC82F81E090E00E948E
:1018A000CA0B40E4C49F9001112411C085FF13C0EE
:1018B00081E190E00E94CA0BC82F82E190E00E9473
:1018C000CA0B2C2F30E0205C3109322F2227A901CE
:1018D000482BCA0105C081E090E00E94CA0B90E04D
:1018E000CF910895CF92DF92EF92FF920F931F93C3
:1018F000CF93DF9300D0CDB7DEB77C016B01542FBF
:10190000142F107E8091560287FF20C0103E09F0F0
:10191000ECC080915702882309F4E7C090E0298346
:101920004A830E94CA0B182F8091570290E00196BB
:101930000E94CA0B9FE3F922E12FF0E0F82B2981E6
:101940005A81EE16FF0609F0D0C01DC080FF0DC001
:1019500029834A830E94410C29815A81E816F9069D
:1019600021F0E114F10409F0C0C0103631F100F1AA
:10197000103A09F491C008F4A6C0103C09F4AAC0BA
:10198000103E09F0B2C0852F8370622F70E0782B73
:101990006F5F7F4F402F852F0F900F90DF91CF917A
:1019A0001F910F91FF90EF90DF90CF900C94D20B8E
:1019B0001032E1F1103409F057C080E090E0892B3B
:1019C00009F1852F8F71813029F078F0803169F02D
:1019D000813111F440E00AC054FB882780F9452F7B
:1019E0004F70440F482B425001C041E055FB222765
:1019F00020F90DE110E030E0B601C7015A830E94E2
:101A000000005A8180E090E0892B09F46EC0452FD8
:101A1000B601C7010F900F90DF91CF911F910F91E9
:101A2000FF90EF90DF90CF900C9400005F715F31DA
:101A300009F05BC080E090E0892B09F456C0422F8A
:101A40004F7721F0413019F440E001C041E0622FAE
:101A5000661F6627661F262F30E00FE710E0B601ED
:101A6000C7010E94000041C011113FC0852F8E7038
:101A7000E1F580E090E0892BC1F150FF36C081E0B4
:101A80000F900F90DF91CF911F910F91FF90EF90EA
:101A9000DF90CF900C940000252F2F7054FF10C0C2
:101AA00042E050E0B601C7010F900F90DF91CF9157
:101AB0001F910F91FF90EF90DF90CF900C94A405B1
:101AC00043E050E0EFCF103881F4252F2F7141E033
:101AD00050E0E8CF5F715E3129F05F3131F445E0CD
:101AE00050E0E0CF44E050E0DDCF0F900F90DF9169
:101AF000CF911F910F91FF90EF90DF90CF900895BD
:101B0000CF92DF92EF92FF920F931F93CF93DF93C9
:101B10006C017A018B01C0E0D0E0CE15DF0589F0C1
:101B2000D8016D918D01D601ED91FC910190F0816C
:101B3000E02DC6010995892B11F47E0102C0219682
:101B4000ECCFC701DF91CF911F910F91FF90EF90E4
:101B5000DF90CF9008950F931F93CF93DF938C0165
:101B6000C0E0D0E0F801EC0FFD1F6491662371F036
:101B7000E0917202F09173020190F081E02D82E712
:101B800092E00995892B11F02196ECCFCE01DF91DF
:101B9000CF911F910F910895E2E7F2E0A089B189FA
:101BA00082E08C93A485B5851C92A685B78580E1DB
:101BB0008C93108EA489B58986E08C93A289B38911
:101BC0008C9180618C93A289B3898C9188608C936D
:101BD000A289B3898C9180688C930288F389E02D67
:101BE00080818F7D808308958230F8F4E82FF0E0C3
:101BF000EE0FFF1FEF5FFE4F23E132E031832083C2
:101C0000813041F0809169008C7F682B609369007E
:101C1000E89A089580916900660F771F660F771F15
:101C2000837F682B60936900E99A089561157105B7
:101C300079F0FB0101900020E9F73197AF01461BD5
:101C4000570BDC01ED91FC910280F381E02D0994AA
:101C500080E090E00895CF93DF930E94AB0DEC01FC
:101C60006CEA71E082E792E00E94160E8C0F9D1FD5
:101C7000DF91CF9108954F925F926F927F92EF9292
:101C8000FF920F931F93CF93DF93CDB7DEB7A1974A
:101C90000FB6F894DEBF0FBECDBF7C01FA01CB01B9
:101CA00019A2223008F42AE08E010F5D1F4F422E48
:101CB000512C612C712CBF01A30192010E9444148C
:101CC000F901CA01015011096A3014F4605D01C0C4
:101CD000695CD8016C93232B242B252B61F7B80169
:101CE000C7010E94160EA1960FB6F894DEBF0FBE74
:101CF000CDBFDF91CF911F910F91FF90EF907F901B
:101D00006F905F904F900895CF92DF92EF92FF9285
:101D1000CF93DF936B017C01E0917202F09173022B
:101D20000190F081E02D6DE282E792E00995EC01EF
:101D300044275527BA014C195D096E097F092AE02D
:101D400082E792E00E943B0E8C0F9D1FDF91CF91A6
:101D5000FF90EF90DF90CF900895CF93DF93AC0189
:101D6000990F660B770B77FF05C0CB01BA010E9474
:101D7000840E05C02AE082E792E00E943B0EEC014F
:101D80006CEA71E082E792E00E94160E8C0F9D1FB4
:101D9000DF91CF910895AC01990F660B770B77FF18
:101DA00004C0CB01BA010C94840E2AE082E792E0D1
:101DB0000C943B0ECF93DF93482F50E060E070E02F
:101DC0002AE082E792E00E943B0EEC016CEA71E0AF
:101DD00082E792E00E94160E8C0F9D1FDF91CF913B
:101DE00008950C94160ECF93DF9300D000D0CDB79A
:101DF000DEB7789484B5826084BD84B5816084BD8B
:101E000085B5826085BD85B5816085BD80916E0098
:101E1000816080936E0010928100809181008260C9
:101E20008093810080918100816080938100809106
:101E300080008160809380008091B10084608093F5
:101E4000B1008091B00081608093B00080917A00F1
:101E5000846080937A0080917A00826080937A0017
:101E600080917A00816080937A0080917A00806806
:101E700080937A001092C100109253031092540381
:101E800010925503109256031092110310921203F0
:101E900010921303109214030E940D096B017C0130
:101EA0004B015C0128EB820E2BE0921EA11CB11CA1
:101EB0000E940D096C157D058E059F0528F086167C
:101EC0009706A806B906A0F782E792E0909352031E
:101ED000809351030E94CC0D0E940D096093110361
:101EE0007093120380931303909314036DE971E0D0
:101EF00080915103909152030E94F10E0E940D09AE
:101F00006B017C014B015C013AE0830E911CA11C2A
:101F1000B11C0E940D096C157D058E059F0528F0EA
:101F200086169706A806B906A0F711E010932503B8
:101F30001092670282E08093680260E00E9472085B
:101F400085E1E1E4F2E0DF011D928A95E9F783E0A3
:101F50008093400282E990E090933F0280933E029A
:101F600082E590E090933D0280933C0263E070E054
:101F7000809167020E94F40D10935602109257024E
:101F80008DE190E00E94CA0B682F61608DE190E0C6
:101F90000E94AA0B64E687E090E00E94AA0B6DE025
:101FA00088E090E00E94AA0B80E00E948B0B60E228
:101FB00073E080E090E00E94D30889E692E00E94FE
:101FC000AB0D0E94410CAC0160E070E02AE082E7BA
:101FD00092E00E943B0E6CEA71E082E792E00E9480
:101FE000160E82E990E00E94CA0B182F682F81EC30
:101FF00093E00E943C0A612F8EE893E00E943C0A25
:10200000612F8BE593E00E943C0A0E94CC0D6CEAA4
:1020100071E082E792E00E94160E86E592E00E944F
:102020002B0E84E292E00E942B0E85E092E00E944B
:102030002B0E4FE050E066E083EC93E00E947504C5
:1020400081EC93E00E94BD094FE050E066E080E93A
:1020500093E00E9475048EE893E00E94BD094FE072
:1020600050E066E08DE593E00E9475048BE593E017
:102070000E94BD0984EF482E55245394612C712C85
:1020800090E0292E90E0392E20E0A22E20E0B22E02
:1020900030E0832E30E0932E0E940D09672B682BD1
:1020A000692B41F40E940D0962307105810591058B
:1020B00008F41AC10E940D0960936E0270936F02BA
:1020C000809370029093710200916A0210916B02EA
:1020D00020916C0230916D0260177107820793079F
:1020E00040F460936A0270936B0280936C02909349
:1020F0006D0200916A0210916B0220916C02309186
:102100006D026B017C01C01AD10AE20AF30A970141
:1021100086010A3F11052105310508F4E5C06093E9
:102120006A0270936B0280936C0290936D024092EE
:102130001D0350921E0360921F03709220031092A1
:102140002103109222031092230310922403809102
:10215000150390911603A0911703B0911803809373
:10216000190390931A03A0931B03B0931C030E94BE
:102170000D096093150370931603809317039093D2
:1021800018030E940D09609311037093120380934A
:102190001303909314030E940D096B017C016FEAF5
:1021A00071E080915103909152030E94F10E2AE058
:1021B00041E050E060E070E0809151039091520363
:1021C0000E943B0E66EB71E08091510390915203A7
:1021D0000E94F10E2AE0B701A6018091510390916F
:1021E00052030E943B0E68EB71E080915103909185
:1021F00052030E94F10E8091150390911603A09155
:102200001703B0911803B701A601481B590B6A0BBD
:102210007B0B2AE080915103909152030E943B0E68
:1022200068EB71E080915103909152030E94F10E8E
:102230004091150350911603609117037091180394
:102240008091190390911A03A0911B03B0911C0374
:10225000481B590B6A0B7B0B2AE08091510390912C
:1022600052030E943B0E6AEB71E080915103909102
:1022700052030E94F10E0E940D09AB01BC012AE03D
:1022800080915103909152030E943B0E00915103A3
:10229000109152036CEB71E0C8010E94160E6CEABB
:1022A00071E0C8010E94160E0E940D096B017C01AD
:1022B0009B01AC012E5F3F4F4F4F5F4F29833A8305
:1022C0004B835C830E940D096C157D058E059F056F
:1022D00008F0E6C10E940D09609315037093160380
:1022E0008093170390931803809158028823B9F0C4
:1022F0000E940D090091590210915A0220915B022F
:1023000030915C02DC01CB01801B910BA20BB30B63
:102310004597A105B10518F080E00E948B0B8091D4
:102320004302882309F433C1F894EEE4F2E0A4EF09
:10233000B3E088E001900D928A95E1F71092430294
:10234000789490914E02E0E5F2E080E02E2F40E597
:1023500052E0241B291718F421918227F7CF81110D
:1023600016C12114310421F084EF93E00E94000093
:102370008091F603811121C09091F70391111DC046
:1023800080E090E0892B19F080E00E9400008091AD
:102390005802882371F081E0809358020E940D0951
:1023A0006093590270935A0280935B0290935C028F
:1023B000EEC081E00E948B0BEAC0909158029923F5
:1023C00009F48FC08057803108F088C081E0809385
:1023D00058020E940D096093590270935A0280932B
:1023E0005B0290935C0248E050E06FE572E084EF9E
:1023F00093E00E94C615892B61F010925E02E4EF13
:10240000F3E0AFE5B2E088E001900D928A95E1F744
:10241000BEC080915E028F5F80935E028091F40364
:10242000833009F046C08091F603982F9770109181
:10243000F703953049F410935D02A114B10409F437
:10244000A6C00E940000A3C09430A9F0E92EF12C90
:10245000943068F490915D02992349F0A4E09A9F2A
:10246000E00CF11C1124B3E0EB1AF10807C0EFEF08
:10247000EE1AFE0A03C00DE1E02EF12C83FF0CC022
:1024800061E0C7010E947D03882309F480C0612FA9
:10249000C7010E94AA0B0AC060E0C7010E947D0329
:1024A000882309F474C0C7010E94CA0B81136FC04E
:1024B000C4CF843009F06BC08091F603682F63703D
:1024C00070E0762F66279091F703692B6F5F7F4F3F
:1024D0004091F8038C700E94D20B59C080E00E949A
:1024E0008B0B8091F6038F3F71F48091F70381117C
:1024F0004EC0A0E0CA2EA0E0DA2ECD2809F447C0D5
:102500000E94000044C087FD0AC00091F903209199
:10251000F8034091F70360E070E090E036C0803C43
:1025200010F59091560297FF32C02091F70330E0EA
:102530002095309520773327220F331F220F331F2A
:102540008F737901E82AFA82E98290FFB4C00E9471
:10255000410CE816F90609F4AEC02FEFE21621E0AF
:10256000F206A9F4A8C0883E90F490E0805C91093E
:10257000982F88273091F7030091FA032091F903EF
:102580004091F80361E070E0832B0E94720C81ECB3
:1025900093E00E94C4098EE893E00E94C4098BE591
:1025A00093E00E94C40981E990E00E94CA0BF82ED2
:1025B0008823D1F00E940D09009157031091580310
:1025C0002091590330915A03DC01CB01801B910B00
:1025D000A20BB30B0F2D10E020E030E00817190715
:1025E0002A073B0708F4B1C088E090E00E94CA0BBC
:1025F000883009F052C08114910419F00E94000043
:1026000005C08FB38695817091E08927882309F4EE
:1026100044C080910001882309F43FC082E792E022
:102620000E94AB0D8091000190E09C01220F331FAE
:10263000820F931FFC01EB5DFE4F4081518160E0F2
:1026400070E02AE082E792E00E943B0E6AE771E0C8
:1026500082E792E00E94F10E8091000190E09C01DF
:10266000220F331F820F931FFC01EB5DFE4F82810F
:102670000E94DA0EE0910001E150E0930001F0E0E9
:10268000CF01880F991FE80FF91FEB5DFE4F6281A4
:10269000808191810E94AA0BBCCF0E94B207FCCC22
:1026A00029813A814B815C812617370748075907F2
:1026B00008F008CE0FCE8091F703482F4770C42E44
:1026C000D12CD594C79409811A8101501109000FAA
:1026D000111F000F111F0C291D290F5F1F4F87FFAE
:1026E00026C0382F3170E32E282F287083FBFF245B
:1026F000F0F880E090E0892B29F069817A81C801A7
:102700000E940000A0E0B0E0AB2B39F02F2D4E2D41
:102710006C2D89819A810E940000E0E0F0E0309702
:1027200009F435CF4F2D6E2DC801099530CFE0E06B
:10273000EE2EE0E0FE2EEF2809F429CF4091F803B9
:102740006C2DC8010E94000022CF0E940D096093E9
:102750005703709358038093590390935A0363EC83
:1027600071E082E792E00E94F10E8F2D0E94DA0E56
:1027700063ED71E082E792E00E94F10E80916902C0
:1027800011E0812790E00E94AD0E809169028127BF
:102790000E946A0529CFE2E7F2E01382128288EEF6
:1027A00093E0A0E0B0E084839583A683B78386E5B9
:1027B00091E09183808385EC90E09587848784EC19
:1027C00090E09787868780EC90E0918B808B81ECFE
:1027D00090E0938B828B82EC90E0958B848B86ECDF
:1027E00090E0978B868B118E128E138E148EEFE0F5
:1027F000F3E01682178210861186128613861486DD
:10280000158616861786108A118A128A138A148AE8
:10281000158A8AEA90E00E9494149093FD038093B5
:10282000FC034BE06AE081EC93E00E94F30A48E08D
:1028300069E08EE893E00E94F30A4DE06CE08BE5DE
:1028400093E00E94F30A0E940D096093570370936E
:1028500058038093590390935A030895F999FECF32
:1028600092BD81BDF89A992780B50895262FF999D0
:10287000FECF1FBA92BD81BD20BD0FB6F894FA9A63
:10288000F99A0FBE01960895A1E21A2EAA1BBB1B4E
:10289000FD010DC0AA1FBB1FEE1FFF1FA217B3072C
:1028A000E407F50720F0A21BB30BE40BF50B661F42
:1028B000771F881F991F1A9469F760957095809506
:1028C00090959B01AC01BD01CF01089597FB072EA8
:1028D00016F4009407D077FD09D00E94801407FCFD
:1028E00005D03EF4909581959F4F08957095619520
:1028F0007F4F0895EE0FFF1F0590F491E02D09948E
:10290000AA1BBB1B51E107C0AA1FBB1FA617B70715
:1029100010F0A61BB70B881F991F5A95A9F7809531
:102920009095BC01CD010895CF93DF93823091053E
:1029300010F482E090E0E0910004F091010420E0C6
:1029400030E0C0E0D0E0309711F14081518148176C
:102950005907C0F04817590761F482819381209785
:1029600019F09B838A832BC0909301048093000409
:1029700026C02115310519F04217530718F49A01A2
:10298000BE01DF01EF010280F381E02DDCCF2115D4
:10299000310509F1281B390B2430310590F41296CA
:1029A0008D919C9113976115710521F0FB01938323
:1029B000828304C09093010480930004FD01329649
:1029C00044C0FD01E20FF31F81939193225031091E
:1029D0002D933C933AC02091FE033091FF03232BAB
:1029E00041F420910701309108013093FF032093B7
:1029F000FE0320910501309106012115310541F4B6
:102A00002DB73EB74091090150910A01241B350BA7
:102A1000E091FE03F091FF03E217F307A0F42E1BF1
:102A20003F0B2817390778F0AC014E5F5F4F241732
:102A3000350748F04E0F5F1F5093FF034093FE038E
:102A40008193919302C0E0E0F0E0CF01DF91CF915C
:102A500008950F931F93CF93DF93009709F48CC0D1
:102A6000FC0132971382128200910004109101043C
:102A70000115110581F420813181820F931F20916E
:102A8000FE033091FF032817390779F5F093FF0310
:102A9000E093FE0371C0D80140E050E0AE17BF07DD
:102AA00050F412962D913C911397AD0121153105EB
:102AB00009F1D901F3CF9D01DA01338322836081CB
:102AC0007181860F971F8217930769F4EC012881A3
:102AD0003981260F371F2E5F3F4F318320838A8134
:102AE0009B8193838283452B29F4F0930104E09327
:102AF000000442C01396FC93EE931297ED014991A6
:102B000059919E01240F351FE217F30771F480815C
:102B10009181840F951F029611969C938E938281CA
:102B2000938113969C938E931297E0E0F0E0D80186
:102B300012968D919C911397009719F0F8018C01D2
:102B4000F6CF8D919C9198012E5F3F4F820F931F7E
:102B50002091FE033091FF032817390769F430975D
:102B600029F4109201041092000402C01382128210
:102B70001093FF030093FE03DF91CF911F910F91FC
:102B8000089581E090E0F8940C94D315FB01DC01EA
:102B900004C08D910190801921F441505040C8F734
:0A2BA000881B990B0895F894FFCFED
:102BAA00A0080808080000020480007EFF06000151
:102BBA0000000000EF000000008601800DDA01F23B
:102BCA00016D0185010100031100001200030800D4
:102BDA00001D00028700018D000F8E000F8F000F6D
:102BEA0091000092000A960001970001980001994D
:102BFA000001000000004907800D1207F0060407D3
:102C0A009007000000000908800D09080908090852
:102C1A000908000000000908800D3D00417564693B
:102C2A006F506C61796572436C6173732074726161
:102C3A006E736974696F6E20656E643A00564D440E
:102C4A0050565F317C315F564D4450560D0A00563E
:102C5A004D4450455F003A323A007C005F564D447D
:102C6A005045006175746F5472616E736974696F4F
:102C7A006E3A0073657474696E672069734E69678A
:082C8A00687420746F3A000029
:00000001FF
